:020000040200F8
:1000000000040022B9090002B9080002C309000275
:10001000C3090002C3090002C3090002C3090002A8
:10002000000000000000000000000000C309000202
:10003000C309000200000000C3090002C309000256
:100040004FF244004FF00271C4F200000160002141
:1000500001744AF2015101847047022818BF7047A9
:1000600040F22C4040F61471C2F20020C0F2002190
:1000700000F005B880B5FFF7E3FF002080BD80B534
:1000800045F25422C5F24F020260084600F004F81F
:10009000002080BDD4D4D4D470B5044600F060F8FC
:1000A00040F2884CEFF31081C2F2002C012080F363
:1000B0001088DCF8000038B940F614500022C4F271
:1000C0004000027040220270DCF800000130CCF8E1
:1000D000000081F31088208828B340F6000E00212C
:1000E000C4F2400E00BF00BF606800EBC10250F8D0
:1000F00031309288D8034FEA1220D2B20BD50EEBE2
:10010000801555F8226026F4803645F8226023F4E5
:10011000803645F822600EEB8010013140F8223025
:1001200020888142E0D30120EFF3108180F3108812
:10013000DCF8000020B1DCF800000138CCF8000049
:10014000DCF8000038B940F614500022C4F2400038
:1001500002708022027081F3108870BDD4D4D4D490
:100160002DE9F04F81B004460088002865D04EF696
:100170004C4B0025C4F2010B4FF0010A00BF00BF39
:1001800040F6207642F240080027C0F20026C4F272
:10019000200800BF00BF00BF606836F8021B00EBFC
:1001A000C50082888A423FD100689BF8001000F0A9
:1001B000B8500AFA07F9B0F1807F09EA010017D1B7
:1001C00058B9012000F0D0FB9BF8000040EA09007C
:1001D0008BF80000012000F0A0FB98F90000002837
:1001E00022D498F8000040F0800017E000BF00BF64
:1001F00058B1012000F0B8FB9BF8000020EA09008C
:100200008BF80000012000F088FB98F90000B0F1A5
:10021000FF3F09DC98F8000000F07F0088F800003C
:10022000C820012100F005FB013708F10208032F67
:10023000B2D1208801358542A2D301B0BDE8F08F4C
:100240004EF22401C4F201018878098801F00F02FE
:10025000A2F1080103293BD8DFE801F0022C101EAF
:1002600040F20041C2F2002151F820004AF6AB21D1
:10027000CAF6AA21A0FB0101480830E040F2004183
:10028000C2F2002151F820004AF6AB21CAF6AA2199
:10029000A0FB0101C80822E040F20041C2F20021A7
:1002A00051F820004AF6AB21CAF6AA21A0FB0101B1
:1002B000080914E040F20041C2F2002151F8200088
:1002C0004AF6AB21CAF6AA21A0FB0101880806E084
:1002D00040F20041C2F2002151F82000D04040F22B
:1002E0009841C2F2002108607047D4D4D4D4D4D449
:1002F0002DE9F04182B0CAA04EF2FA38C4F20108EA
:100300004AF20151CFF6FF7190ED001F40F200401C
:100310000231A8F80010C2F20020C5A14EF6014635
:1003200080ED001F4EF600474EF2140591ED001FC0
:1003300046F200514AF2003280ED041F2030C1F62F
:10034000CD5141F60043C4F20106C4F20107C4F2E4
:100350000105C1F2E112C0F64E630EC0FFF770FF57
:100360004FF650600A21CFF6FF703954092085F806
:100370008E00387818B93078800700F04C813878D2
:1003800048B901203870C820012100F052FA00BF9E
:1003900038780128FCD10020307038704AF20156BC
:1003A0000020A87700BF00BF95F828000007FBD504
:1003B0004EF6145049F20251C5F8B41040F23741DC
:1003C0006987002285F836204FF60211C5F898108B
:1003D00040F251312987CEF20000BFF34F8FBFF3B7
:1003E0006F8F03684EF2000123F400330360C0F8FE
:1003F0003C22CEF20101BFF34F8FBFF36F8F0A682B
:1004000022F440520A60BFF34F8FBFF36F8F2A78F8
:1004100002F0F80201322A702A78D206FCD40A6867
:1004200042F440520A60BFF34F8FBFF36F8F0168F1
:10043000890312D4BFF34F8FBFF36F8F0021C0F831
:100440003C12BFF34F8FBFF36F8F016841F400314F
:100450000160BFF34F8FBFF36F8F0020A87500BFFF
:1004600095F828008006FBD54CF200070020C4F266
:10047000130738703878387838787868FA2807D0D1
:10048000FA20C1F6006000BF78607968FA29FBD1D4
:10049000B8687D2808D07D20CEF2001000BF00BFD4
:1004A000B860B9687D29FBD143F23240C3F2232002
:1004B000E86042F2202028820520A874FFF7C0FEE1
:1004C0001E200121012400F0B4F978686FF39F2009
:1004D000652828BF3C70FFF7B3FE42F200004FF4DE
:1004E0002541C4F200000680BFF35F8F0472BFF3A2
:1004F0005F8F01802C7785F83E4085F83F4095F866
:10050000600040F0400085F8600000BF00BF00BF01
:1005100095F96000B0F1FF3FFADC062085F858003D
:100520004A2085F860000A2085F8600000BF00BFFF
:1005300095F960000028FBD44FF48570ADF80600F3
:100540000DF1060000F07CF895F8410040F0400005
:1005500085F8410000BF00BF95F94100B0F1FF3FB1
:10056000FADC012085F84000CA2085F8410095F8A2
:10057000410000F0BF0085F8410000BF00BF00BF90
:1005800095F941000028FBD495F8430040F0400065
:1005900085F8430000BF00BF95F94300B0F1FF3F6D
:1005A000FADC002085F84200C72085F8430095F862
:1005B000430000F0BF0085F8430000BF00BF00BF4C
:1005C00095F943000028FBD495F8490040F040001D
:1005D00085F8490000BF00BF95F94900B0F1FF3F21
:1005E000FADC002085F84800C92085F8490095F814
:1005F000490000F0BF0085F8490000BF00BF00BF00
:1006000095F949000028FBD44FF42540A8F80000D4
:1006100002B0BDE8F0814FF47A7000F0C2F8BDE698
:10062000006CDC0200127A000080000000366E01CF
:100630000080000000CA9A3B80D1F0085543DE13C9
:100640002DE9F04F81B04EF2FA3143F20406C4F2C4
:1006500001018246C4F220064AF20350B1F800902C
:1006600008804FF0010B00254FF480340127002053
:1006700004FA00F132680A4210D1EFF310888BF3CC
:10068000108832680BFA00F011433160316805437D
:100690001E20012100F0CDF888F31088F8074FF0F4
:1006A00001004FF00007E3D14EF2750740F2004120
:1006B000C4F20107C2F20021387800F00F0051F8AF
:1006C000200017F8081C01F00F01022901D80122AF
:1006D0000BE0CA1E052A06D241F27411C0F20021B5
:1006E00051F8221003E00839102202FA01F1B0FBA0
:1006F000F1F04DF68361C4F21B31A0FB01016FF0F4
:10070000010000EA5140012100F093F8387840F0F0
:100710004000387000BF00BF97F90000B0F1FF3F04
:10072000FADC9AF8010007F8080C9AF8000040F08B
:10073000400038709AF80000387000BF00BF00BF5A
:1007400097F900000028FBD400204FF0010A4FF475
:100750008038012400BF00BF25FA00F1C90710D07E
:10076000EFF310878AF3108808FA00F0316821EA65
:100770000000306030681E20012100F05AF887F335
:100780001088E0074FF001004FF00004E4D14EF272
:10079000FA3149F42540C4F20101088001B0BDE8F6
:1007A000F08F7047D4D4D4D4B0B542F22404C8201A
:1007B000C4F2200401210025257100F03AF82570CB
:1007C000207808B12FF005C0207840F0020020709A
:1007D00020788007FCD4002004F8020C00BF00BF82
:1007E00014F8020C08B12FF005C84FF0030E0020DA
:1007F00004F11C0100BF00BF11F8102002F07F02BD
:1008000001F8102000BF00BF11F91020002AFBD40E
:1008100001300FF00FC8012000F0A6F84EF64C4151
:100820000120C4F2010100220A70BDE8B04000F0CE
:1008300074B840F2984241F20023C2F20022C0F2A2
:100840007A03484312689A420FD344F23F21C0F220
:100850000F0111444DF68362C4F21B32A1FB021258
:10086000910CA0FB0101C9B11BE04CF60021C3F6BD
:100870009A31B1FBF2F148F63812C0F241029042CF
:1008800005D24FF47A725043B0FBF1F006E0B0FBB2
:10089000F1F0904205D24FF47A71484328B100F04C
:1008A00007B84FF0FF3000F003B87047D4D4D4D469
:1008B00001380028FCD17047F0B581B04CF200152A
:1008C00040F23447C4F200050024C2F20027286831
:1008D000296A01EA000600BF26FA04F0C00703D027
:1008E000396809B12046884701340437152CF3D103
:1008F0002E6100BF00BF00BF286A3042FCD101B0AA
:10090000F0BD41F28810C0F20020008820B14CF206
:100910000031C4F2000108607047EFF3108101223A
:1009200082F3108840F28C42C2F2002232F810307A
:1009300023B132F81030013B22F8103032F8102089
:100940007AB94EF2FA3241F28A1CC4F20102C0F2C4
:10095000002C13883CF8100043F4254323EA0000E0
:10096000108081F31088704710B5EFF310810122D9
:1009700082F3108840F28C42C2F2002232F810302A
:1009800083B94EF2FA3E41F28A1CC4F2010EC0F263
:10099000002CBEF800403CF81030234343F42543BC
:1009A000AEF8003032F81030013322F8103081F305
:1009B000108810BDD4D4D4D400F006F8FFF75AFB49
:1009C000FEE700BE7047D4D470B54EF6005540F235
:1009D0000120CEF20005C0F20E004EF20006686162
:1009E000CEF20106BFF34F8FBFF36F8F2968C1F3BB
:1009F000035001285FEA1F9211F00F0F5FEA0F9179
:100A00001142316811D102280FD241F00400306048
:100A10004EF20800BFF34F8FCEF20000BFF36F8F8E
:100A2000016841F48031016002E021F0040030608F
:100A3000BFF34F8FBFF36F8F4FF4700040F2000190
:100A4000C5F888000020C0F20021A9600024FFF74B
:100A500004FBFFF74DFC4EF2FA304EF6B022C4F222
:100A60000100C4F201024AF20251018014704FF4F5
:100A7000254101800120FFF7F0FA40F20000C2F2A8
:100A8000002080F30A883068800721D5A868B0F17B
:100A9000007F1DD130694FF40071C0F3C30072694B
:100AA00001FA00F3C2F3C30081400020DA08CB084A
:100AB0000146064642F005C0E6E802010FF005C017
:100AC0004FF0005243F005C0E2E802010FF005C00C
:100AD000002000F059F8FFF7B3FBFFF765FE032095
:100AE000FFF742FF4FF00E0E40F63050C4F24000C8
:100AF00020F8044B0FF005C00320FFF70EFF032082
:100B0000FFF732FF44F204000026C4F22000066022
:100B100046608660C6600320FFF7FFFE0220FFF7F5
:100B20009CFA012000F030F840F2A044C2F2002408
:100B3000204600F06DF8204600F07EF8BFF34F8F9E
:100B400041F2E21041F2E211BFF36F8FC5F850623B
:100B5000C0F20020C0F20021BFF34F8F081ABFF38C
:100B60006F8F8410012C08DB41F2E215C0F20025E2
:100B700055F8040B8047013CFAD1FFF7C2FE002074
:100B8000BDE8704000F02FB8F0B581B040F6487570
:100B90000446C0F200252E6876B16868071D00BFC4
:100BA0007879844204D157E90101091A00F01CF850
:100BB000013E07F10C07F3D1AE6896B1E86800F189
:100BC000080500BF00BF00BF6879844205D155E920
:100BD00002022968121A00F00BF8013E05F1100517
:100BE000F2D101B0F0BD70470A46002100F009B80B
:100BF00010B5002322B1CC5C013AC4540133F9E7AB
:100C000010BD03461AB103F8011B013AFAE7704719
:100C100010B505490446054AFFF7EAFF04480549AF
:100C20002044FFF7E1FF10BD40000002000000007B
:100C300000000000000000000249401A024908605C
:100C4000704700BF080000009C0400220008011C3F
:100C5000000100000008011C010100000008011C47
:100C6000030100000004011C070100001040000007
:100C700008010000040C00000A010000000C01152E
:100C80000B010000000C010B0C010000000C010B1B
:100C90000D010000000C010B0E010000000C010B07
:100CA0000F010000004000000002000010400000A2
:100CB0000102000000000105080200000004010517
:100CC00009020000000801000A0200000000010003
:100CD0000B020000000001000C02000000000100F7
:100CE0000D020000000001000E02000000000100E3
:100CF0000F020000000C010B00030000000C010BB0
:100D000001030000000C010B020300001040000072
:100D10000303000000000113070400000004011396
:100D20000804000040040107090400004004010712
:100D30000A040000000C010B03050000000C010B6D
:100D400004050000000C010B05050000000C010B60
:100D500006050000000C010B07050000000C010B4C
:100D600008050000000C010B09050000000C010B38
:100D70000A0500000404000006060000000C010B38
:100D800007060000000C010B08060000000C010B18
:100D900009060000000C010B0A060000000C010B04
:100DA0000B060000000C010B0C060000000C010BF0
:100DB0000D060000000C010B0E060000000C010BDC
:100DC0000F0600000008011C030800000008011CB9
:100DD00008080000000C010B0D080000000C0113B6
:100DE0000E080000000C01130F080000000C010B9E
:100DF000000A0000000C010B010A0000000C010BAE
:100E0000020A0000000C010B030A0000000C010B99
:100E1000040A0000000C010B050A0000000C010B85
:100E2000060A0000000C010B080A0000000C010B70
:100E3000090A0000000C010B0A0A0000000C010B5B
:100E40000B0A0000000C010B0C0A0000000C010B47
:100E50000D0A0000000C010B0E0A00000008010B37
:100E60000F0A0000000C010B000C0000000C010B2D
:100E7000010C0000000C010B020C0000000C010B27
:100E8000030C0000000C010B040C0000000C010B13
:100E9000050C0000000C010B060C0000000C010BFF
:100EA000070C0000000C010B080C0000000C010BEB
:100EB000090C0000000C010B0A0C0000000C010BD7
:100EC0000B0C0000000C010B0C0C0000000C010BC3
:100ED0000D0C0000000C010B0E0C0000000C010BAF
:100EE000000D0000000C0115010D0000000C0115A3
:100EF000020D0000000C0115030D0000000C01158F
:100F0000040D000000080115050D0000100001157A
:100F1000070D0000590000004C0C0002000000000A
:100F2000020403040404D4D4000000680000006834
:100F300000000080000000800000007000000070D1
:100F400000000022000000220B000000600F0002E1
:100F500019000000E40F000204000000280F000246
:100F600000000068000000680001000D000000683B
:100F7000000000680001000D0000008000000080FB
:100F8000000100080000008000000080000100084F
:100F900000000070000000700001000A00000070F6
:100FA000000000700001000A0000000000000000C6
:100FB00001000005000000200000002001000004E6
:100FC0000000002200000022000000032C04002288
:100FD000A004002200000003A0040022A0040022BC
:100FE000000000030000006800000068000000909E
:100FF0000001090D00000068000000680000007892
:1010000000010B0D000000680000006800000027D0
:101010000001020D000000680000006840000002AE
:101020000001010D00000080000000800000009021
:101030000001090800000080000000800000007826
:1010400000010B0800000080000000800000002765
:101050000001020800000080000000804000000243
:101060000001010800000070000000700000009006
:101070000001090A00000070000000700000007804
:1010800000010B0A00000070000000700000002743
:101090000001020A00000070000000704000000221
:1010A0000001010A000000000000000000000090A4
:1010B00001010905000000000000000000000078A8
:1010C00001010B05000000000000000000000027E7
:1010D00001000205000000000000000040000002C6
:1010E0000100010500000020000000200000009029
:1010F0000101090400000020000000200000007829
:1011000001010B0400000020000000200000002767
:101110000100020400000020000000204000000246
:1011200001000104000000220000002200000090E5
:1011300000010903000000220000002200000078E6
:1011400000010B0300000022000000220000002725
:101150000000020300000022000000224000000204
:1011600000000103A0040022A004002240000002AD
:10117000000001030600000008000000030000005A
:10118000050000000A000000000001000200080045
:101190001000200000000306362E332E300042756A
:1011A000696C7420776974682052656E6573617329
:1011B00020416476616E63656420466C657869627F
:1011C0006C6520536F667477617265205061636B44
:1011D0006167652076657273696F6E20362E332ED7
:0211E0003000DD
:0200000402C92F
:04F04000FFFFFFFFD0
:04F04400EFFFFFFFDC
:04F0C000FFFFFFFD52
:04F0C400FFFFFFFF4C
:04F1200000000000EB
:04F1240000000000E7
:04000005020009B933
:00000001FF
