S021000052413850315F63706B636F725F6E6F725F666C6173685F65702E7372656387
S31502000000E0410022C9480002A9460002D94800027E
S31502000010D9480002D9480002D9480002D94800024C
S31502000020000000000000000000000000D9480002A5
S31502000030D948000200000000D9480002D94800024F
S315020000401000000000000000017A5200017C0E013F
S30D020000501B0C0D00000000006C
S315020000580000000000000000000000000600000189
S3150200006800000000000000008300000000000000FD
S315020000780300800071000001040100000000000076
S31502000088400000000000000004008000710000012A
S31502000098040100000000000000000000000000004B
S315020000A80600800071000001040100000000000043
S315020000B8000000000000000000000000050000012A
S315020000C8000100000000000000000000000000001F
S315020000D80300800065000101040100000000000021
S315020000E80000000000000000040080006500010115
S315020000F804010000000000000000000000000000EB
S3150200010806008000650001010401000000000000ED
S315020001180000000000000000000000009F0000012F
S3150200012800040000000000000000000000000000BB
S3150200013800000000060600020000000000000000A1
S3150200014883000000000000000300800071710002B5
S315020001580402000000000000400000000000000049
S315020001680400800071710002040200000000000011
S315020001780000000000000000060080007171000205
S315020001880402000000000000000000000000000059
S315020001980000000005050402040200000000000039
S315020001A800000000000000000300800065650402EC
S315020001B80402000000000000000000000000000029
S315020001C804008000656504020402000000000000C5
S315020001D800000000000000000600800065650402B9
S315020001E804020000000000000000000000000000F9
S315020001F8000000009F9F04020404000000000000A3
S3150200020800001888000000000000000001004000FD
S30C0200021801000000000000D6
S3150200022080B56F4682B044F21020C2F200200190DF
S315020002300198A82104F090FD019903200861019913
S315020002404861019845F22C61C0F200218161019A50
S3150200025044F2B820C2F20020D061019A4FF48060C5
S315020002601062019A00209062019A5062019AD0624D
S31502000270019A1166019A44F2B861C2F200215166EE
S31502000280019A10219166019908670199C866019938
S315020002904867BFF35F8F0090FFE700980F280ED8DC
S315020002A0FFE7009A44F68250C0F20020801AC07B13
S315020002B001998854FFE7009801300090EDE7BFF3FB
S315020002C05F8F02B080BD80B56F468EB00D900C91E7
S315020002D00B92FFE744F21020C2F20020039003982B
S315020002E00078532803D0FFE7FFF79AFFFFE7FFE7FF
S315020002F00D9800EB400144F21020C2F2002000EB00
S31502000300C100603005900C98069005980069089027
S315020003100598C068079000200990089807998842B6
S3150200032036D9FFE7059880680899401A0A900A9814
S315020003300B99884203D2FFE70A98029002E00B98D3
S315020003400290FFE702980A900598406808990844C7
S315020003500490069804990A9A04F002FD0A990998EB
S31502000360084409900A990698084406900A990B9837
S31502000370401A0B900A99089808440890089805991B
S315020003808968884203D1FFE700200890FFE7FFE76C
S3150200039007980899401A0A900A980B99884203D23C
S315020003A0FFE70A98019002E00B980190FFE7019897
S315020003B00A900A98D8B1FFE7059840680899084458
S315020003C00490069804990A9A04F0CAFC0A990998B4
S315020003D0084409900A990698084406900A990B98C7
S315020003E0401A0B900A99089808440890FFE7099862
S315020003F020B1FFE7089805990861FFE709980EB052
S3150200040080BD80B56F4686B0059004910392EFF3E6
S3150200041011804FF0200181F311880190059804990B
S31502000420039AFFF750FF0290019880F31188029811
S3150200043006B080BD84B003900398006902900398C9
S31502000440C068019002980199884209D8FFE703988B
S3150200045081680198C043084402990844009005E067
S3150200046002990198C04308440090FFE7009804B03F
S31502000470704780B56F4688B0079006910592079837
S31502000480C0680390079880680399401A0290029800
S315020004900599884212D9FFE70798406803990844EC
S315020004A0019001980699059A04F05AFCBFF35F8FF2
S315020004B00398059908440799C8601FE002980490BA
S315020004C00798406803990844019001980699049A8E
S315020004D004F046FC05980299401A04900798406871
S315020004E0019001980699029A1144049A04F038FC84
S315020004F0BFF35F8F04980799C860FFE708B080BD15
S3150200050080B56F468AB0099008910792002005903F
S315020005100998C0680390FFE7099800690490049857
S315020005200399884206D9FFE704990398C043084411
S31502000530069008E0099881680398049A801AC043D5
S3150200054008440690FFE7069809998968039A891A6A
S31502000550884203D2FFE70698019005E00998806871
S315020005600399401A0190FFE70198069006980799A9
S31502000570884203D2FFE70698009002E007980090AF
S31502000580FFE700980690099840680399084402908C
S3150200059002980899069A04F0E3FB0699059808441E
S315020005A00590069908980844089006990798401AF3
S315020005B00790069903980844039003980999896855
S315020005C0884203D1FFE700200390FFE7BFF35F8F66
S315020005D003980999C860FFE7079808B12FF065C02C
S315020005E005980AB080BD80B56F468AB00990089119
S315020005F0079208980490099800EB400144F21020F3
S31502000600C2F2002000EBC100183003900398406943
S31502000610029040B1FFE70298012819D0FFE702983D
S3150200062002282CD032E00398FFF704FF05900598C4
S315020006300799884203D2FFE70020069007E0079851
S31502000640069003980499079AFFF713FFFFE720E045
S315020006500398FFF7EFFE059005980799884203D2A3
S31502000660FFE70598019002E007980190FFE70198DD
S31502000670069003980499069AFFF7FBFE09E0039891
S315020006800499079AFFF73CFF069002E000200690C5
S31502000690FFE706980AB080BD80B56F4686B0059022
S315020006A004910392FFE744F21020C2F20020019067
S315020006B001980078532803D0FFE7FFF7B1FDFFE763
S315020006C0FFE7EFF311804FF0200181F311880090CC
S315020006D005980499039AFFF786FF0290009880F323
S315020006E01188029806B080BD80B56F4684B0FFE7D8
S315020006F044F21020C2F2002000900098007853289D
S3150200070003D0FFE7FFF78CFDFFE7FFE744F2102077
S31502000710C2F20020603003900398006902900298AA
S315020007200399C968884203D0FFE70120019002E0DD
S3150200073000200190FFE7019804B080BD83B00290CB
S31502000740029800EB400144F21020C2F2002000EBB6
S31502000750C100183001900198006900900198C068A4
S315020007600099401A03B0704780B56F46A4B0239033
S315020007702291219207A81B9040201C9000201D90D8
S3150200078023991F911E90FFE72298007807F80D0C17
S3150200079022980130229017F80D0C08B9FFE777E18D
S315020007A017F80D0C252840F06681FFE70020189007
S315020007B001201A90FFE72298007807F80D0C17F827
S315020007C00D0C2338014604910D2829D80499DFE837
S315020007D001F01F2727272727272717270727270F4E
S315020007E0189840F0010018902298013022901AE0E1
S315020007F0189840F00200189022980130229012E0D8
S31502000800189840F0040018902298013022900AE0CD
S31502000810189840F00800189022980130229002E0C1
S3150200082000201A90FFE7FFE71A9808B12FF03DC89B
S3150200083000201790FFE72298007807F80D0C17F8AA
S315020008400D0C302805DBFFE717F80D0C3A2801DB03
S31502000850FFE710E0229801302290179800EB800102
S3150200086017F80D0C00EB410030381790FFE7012016
S3150200087008B12FF021C0002019902298007807F8BD
S315020008800D0C17F80D0C2E2825D1FFE72298013002
S315020008902290FFE72298007807F80D0C17F80D0C46
S315020008A0302805DBFFE717F80D0C3A2801DBFFE7D6
S315020008B010E0229801302290199800EB800117F877
S315020008C00D0C00EB410030381990FFE7012008B10A
S315020008D02FF021C0FFE72298007807F80D0CFFE7FA
S315020008E017F80D0C6C2805D0FFE717F80D0C6828D1
S315020008F008D1FFE72298013022902298007807F863
S315020009000D0C00E004E0FFE7012008B12FF019C04A
S3150200091017F80D0C01460391252800F0A280FFE787
S315020009200398582850D0FFE70398632815D0FFE7AD
S315020009300398642820D0FFE70398702800F080808F
S31502000940FFE70398732853D0FFE70398752827D04B
S31502000950FFE70398782837D088E0219A1068011DAE
S31502000960116000681A901A9807F8750C17F8751C2A
S315020009701BA800F0A2F87AE0219A1068011D116006
S3150200098000681A901A99199B1798DDF860C06A4692
S31502000990C2F804C010601BA80A2200F0CAF866E07A
S315020009A0219A1068011D116000681A901A99199B04
S315020009B01798DDF860C06A46C2F804C010601BA82A
S315020009C00A2200F095F952E0219A1068011D116081
S315020009D000681A901A99199B1798DDF860C06A4642
S315020009E0C2F804C010601BA8102200F081F93EE094
S315020009F0219A1068011D116000680590059830B9AA
S31502000A00FFE745F22C20C0F200200590FFE7FFE742
S31502000A100598007807F80D0C05980130059017F82F
S31502000A200D0C08B9FFE70AE017F80D1C1BA800F029
S31502000A3044F8FFE71E98B0F1FF3FE9DCFFE716E056
S31502000A40219A1068011D116000681A901A99684669
S31502000A5000224260082303601BA8102200F048F916
S31502000A6005E01BA8252100F028F800E0FFE7229800
S31502000A700130229005E017F80D1C1BA800F01DF8A6
S31502000A80FFE7FFE71E98B0F1FF3F3FF77DAEFFE7B6
S31502000A901E9801280EDBFFE71D9830B1FFE7239869
S31502000AA01D9A07A9FFF7F8FDFFE71D991E9808444E
S31502000AB01E90FFE71E9824B080BD80B56F4684B0B5
S31502000AC0039007F8051C039880680190019801308D
S31502000AD00399496888420FD8FFE717F8050C03996E
S31502000AE00968019A8854019801300399886003992C
S31502000AF0C8680130C860FFE7039841688068884289
S31502000B0015D1FFE70398016882680069FFF7C4FD03
S31502000B1003998968884205D0FFE703994FF0FF30B1
S31502000B20C86003E0039900208860FFE7FFE704B08E
S31502000B3080BDD0B502AF8CB0D7F80CC0D7F808C0CC
S31502000B400B900A91099208930A98B0F1FF3F04DCD0
S31502000B50FFE70A984042059002E00A980590FFE7EF
S31502000B600598069001200790FFE7069809998842A2
S31502000B7009DBFFE70698099990FBF1F006900798C2
S31502000B8001300790F1E708980799884203D9FFE7F1
S31502000B9008980790FFE7B86868B1FFE70A98002847
S31502000BA005D4FFE7387B4007002804D5FFE7B8687D
S31502000BB00138B860FFE7387B8007002803D5FFE7D6
S31502000BC0089848B3FFE7387BC00728BBFFE7B86839
S31502000BD008B3FFE7FFE7B9680020049039B1FFE7E1
S31502000BE00798B96888425FEA2F900490FFE7049855
S31502000BF0C00778B1FFE7B8680138B8600B982021C2
S31502000C00FFF75BFF0B98C068B0F1FF3F01DCFFE71F
S31502000C1000E0E0E7FFE7FFE70B98C068002865D42D
S31502000C20FFE70A98B0F1FF3F08DCFFE70A98404267
S31502000C300A900B982D21FFF740FF0BE0387B400707
S31502000C40002805D5FFE70B982B21FFF736FF00E0BA
S31502000C50FFE7FFE70B98C068002846D4FFE7387B1A
S31502000C60800700282CD5FFE7387BC00740BBFFE78B
S31502000C70089828BBFFE7B86808B3FFE7FFE7B9683B
S31502000C800020039039B1FFE70798B96888425FEA06
S31502000C902F900390FFE70398C00778B1FFE7B86883
S31502000CA00138B8600B983021FFF707FF0B98C06830
S31502000CB0B0F1FF3F01DCFFE700E0E0E7FFE7FFE717
S31502000CC00B98C06800280FD4FFE70B980A99099A77
S31502000CD0089BD7F808C0FC68EE46CEF80440CEF86A
S31502000CE000C000F005F8FFE7FFE7FFE70CB0D0BD54
S31502000CF080B56F468CB0D7F80CC0D7F808C00B90F9
S31502000D000A91099208930A98059001200690049088
S31502000D10FFE705980999884209D3FFE705980999DB
S31502000D20B0FBF1F00590049801300490F1E70898C1
S31502000D300499884203D9FFE708980490FFE7387BB5
S31502000D40C007B0BBFFE7B86890B3FFE7387B800700
S31502000D50002807D5FFE7089820B9FFE7302007F8F3
S31502000D60210C03E0202007F8210CFFE7FFE7B96812
S31502000D700020029039B1FFE70498B96888425FEA19
S31502000D802F900290FFE70298C00780B1FFE7B8688C
S31502000D900138B8600B9817F8211CFFF78EFE0B98E6
S31502000DA0C068B0F1FF3F01DCFFE700E0DFE7FFE7E5
S31502000DB0FFE70B98C06800286AD4FFE7FFE70898A8
S31502000DC0022804D3FFE70898013808900BE00A9836
S31502000DD00699B0FBF1F0079007980999884201D26B
S31502000DE0FFE705E0FFE70999069848430690E6E71C
S31502000DF0FFE70A980699B0FBF1F007900798069963
S31502000E000A9A00FB11200A900B98079A45F6D2110E
S31502000E10C0F20021895CFFF750FE0B98C068B0F162
S31502000E20FF3F01DCFFE709E009990698B0FBF1F004
S31502000E300690FFE7069808B12FF025C8387BC00751
S31502000E4028B3FFE7B86808B3FFE7FFE7B9680020F1
S31502000E50019039B1FFE70498B96888425FEA2F909A
S31502000E600190FFE70198C00778B1FFE7B86801383B
S31502000E70B8600B982021FFF720FE0B98C068B0F1EE
S31502000E80FF3F01DCFFE700E0E0E7FFE7FFE7FFE700
S31502000E900CB080BD82B080B56F4684B0FB60BA608C
S31502000EA00390029107F108000090039802996A469E
S31502000EB0FFF75AFC0190019804B0BDE8804002B0E9
S31502000EC0704780B56F468EB0002005900D900C904D
S31502000ED00B900A9009900890079006900CA803F0D0
S31502000EE05FFB05989DF831C09DF832109DF83330AE
S31502000EF06A46C2F804C0116045F2A221C0F200217E
S31502000F0044F61362C0F20022FFF7C4FFFFE7002097
S31502000F10FFF714FC08B1FFE7F9E744F6AB61C0F24C
S31502000F2000210020FFF7B6FFFFE70020FFF706FCCF
S31502000F3008B1FFE7F9E700F0A1FF0D900D9845F221
S31502000F403561C0F2002100F093F800F00AF90D9025
S31502000F500D9845F27A41C0F2002100F089F80BA8FB
S31502000F6000F09DFC0D900D9845F6EF01C0F20021B0
S31502000F7000F07EF845F24721C0F2002100200490DD
S31502000F80FFF788FF04980B99CAB2C1F30723C1F38E
S31502000F900741EC46CCF8001045F24961C0F2002147
S31502000FA0FFF778FF049845F2CA01C0F20021FFF765
S31502000FB071FFFFE7FFF798FB002858D0FFE70020F4
S31502000FC00A9009900890079007A91022FFF719FACC
S31502000FD09DF81C0001460391312804D0FFE70398CF
S31502000FE0322819D033E000F0DDF90D900D9845F264
S31502000FF09201C0F2002100F03BF84FF0F04006905B
S31502001000069800F0C1FC0D900D9845F22A01C0F237
S31502001010002100F02DF822E000F0DEFA0D900D9886
S3150200102045F2CD41C0F2002100F022F841F2000063
S31502001030C7F600000690069800F0A6FC0D900D98E3
S3150200104045F22A01C0F2002100F012F807E045F647
S315020010502801C0F200210020FFF71CFFFFE745F23E
S31502001060CA01C0F200210020FFF714FFFFE7A1E743
S3150200107080B56F4682B0019000910198002852D047
S31502001080FFE700990020FFF705FF44F24870C2F21D
S3150200109000204068C8B1FFE744F24870C2F200205F
S315020010A001F0FEFA80B1FFE745F27E51C0F200215F
S315020010B044F61762C0F2002244F62463C0F200230B
S315020010C00020FFF7E7FEFFE7FFE744F21070C2F2E7
S315020010D000200068C8B1FFE744F21070C2F2002097
S315020010E002F068F880B1FFE745F27E51C0F20021B6
S315020010F044F61762C0F2002245F21473C0F20023CE
S315020011000020FFF7C7FEFFE7FFE7019850B1FFE7B0
S31502001110019A45F2F141C0F200210020FFF7BAFE22
S3150200112000BEFFE7FFE702B080BD80B56F4682B022
S3150200113007F8010C17F8010C08B9FFE7FFE717F8E3
S31502001140010C02280BD1FFE744F20870C2F200201C
S3150200115045F60C41C0F2002101F029FEFFE702B07C
S3150200116080BD80B56F468AB0002008900790069031
S31502001170059004900390029044F24870C2F2002057
S3150200118045F6C821C0F2002100F0B8FF0890089881
S3150200119090B1FFE745F27E51C0F2002145F24402CA
S315020011A0C0F2002244F6A753C0F200230020FFF744
S315020011B071FE089809904FE044F24870C2F200208E
S315020011C0002101F0DAF80890089890B1FFE745F29D
S315020011D07E51C0F2002145F24402C0F2002245F2DD
S315020011E02973C0F200230020FFF754FE08980990E5
S315020011F032E048F20851C4F226010091086820F450
S31502001200803008604FF47A700121019103F0D2F91F
S31502001210009A0199106840F480301060022003F0B1
S31502001220C9F900F01CF80890089890B1FFE745F25A
S315020012307E51C0F2002145F24402C0F2002245F27C
S315020012405003C0F200230020FFF724FE08980990FD
S3150200125002E008980990FFE709980AB080BD80B5B8
S315020012606F4686B0002004904FF20870CFF20070ED
S3150200127003904FF20070C0F2FF000290FF20C0F20E
S31502001280080001900020CFF6FF70009042F20000A5
S31502001290C7F600006946102203F02EFD00287BD017
S315020012A0FFE744F24870C2F2002042F20001C7F69C
S315020012B000014FF4805201F03BF90490049890B17A
S315020012C0FFE745F27E51C0F2002145F26252C0F2BA
S315020012D0002245F28523C0F200230020FFF7DAFD43
S315020012E0049805905BE048F2A060C0F2010000F0AD
S315020012F033FE0490049890B1FFE745F27E51C0F2A6
S31502001300002145F26252C0F2002245F2B863C0F2F1
S3150200131000230020FFF7BEFD049805903FE044F24B
S315020013204870C2F20020694642F20002C7F6000285
S31502001330102301F042F80490049890B1FFE745F2B9
S315020013407E51C0F2002145F26252C0F2002245F6F9
S315020013500E13C0F200230020FFF79CFD04980590AF
S315020013601DE042F2107000F0F7FD0490049890B16F
S31502001370FFE745F27E51C0F2002145F26252C0F209
S31502001380002245F2B863C0F200230020FFF782FD77
S315020013900498059003E0FFE704980590FFE7059897
S315020013A006B080BD80B56F468AB0002000900890D6
S315020013B007900690059004900390029027F8220C5D
S315020013C044F24870C2F20020008908B9FFE75CE0E7
S315020013D044F24870C2F20020008940F2FF3188428E
S315020013E040D1FFE700F057F80890089890B1FFE760
S315020013F045F27E51C0F2002145F24F72C0F2002240
S3150200140045F68C03C0F200230020FFF743FD08983F
S3150200141009903DE0062007F8220C022007F8210C6D
S31502001420A7F1220002F0F1FF44F24870C2F2002056
S31502001430002100F0A2FF0890089890B1FFE745F25C
S315020014407E51C0F2002145F24F72C0F2002244F6EC
S31502001450D953C0F200230020FFF71CFD089809901B
S3150200146016E011E045F27E51C0F2002145F24F72BC
S31502001470C0F2002245F24A13C0F200230020FFF711
S3150200148009FD0520099003E0FFE708980990FFE7A8
S3150200149009980AB080BDB0B502AF88B000200690A8
S315020014A005900490039002900190009044F24870D7
S315020014B0C2F20020008950B9FFE740F20001C2F2F1
S315020014C00021684691E83C5080E83C500BE040F22F
S315020014D00000C2F2002000F1D801684691E83C50B3
S315020014E080E83C50FFE744F24870C2F200206946A9
S315020014F0012200F030FF0690069890B1FFE745F210
S315020015007E51C0F2002145F2B602C0F2002245F237
S315020015109A53C0F200230020FFF7BCFC06980790FE
S3150200152057E044F24870C2F20020008960B9FFE732
S3150200153040F20000C2F2002000F16001684691E824
S315020015403C5080E83C500BE040F20000C2F2002022
S3150200155000F59C71684691E83C5080E83C50FFE7F4
S3150200156044F24870C2F200206946002200F0F3FEFF
S315020015700690069890B1FFE745F27E51C0F200212F
S3150200158045F2B602C0F2002245F29A53C0F2002397
S315020015900020FFF77FFC069807901AE0009800F0FB
S315020015A00200022812D0FFE745F27E51C0F2002166
S315020015B045F2B602C0F2002245F2EC63C0F2002305
S315020015C00020FFF767FC1220079002E006980790BA
S315020015D0FFE7079808B0B0BD80B56F468EB0002011
S315020015E004900C900B900A90099008900790069030
S315020015F027F8220C44F24870C2F20020008940F219
S31502001600FF31884201D1FFE743E144F24870C2F25A
S3150200161000200089002840F02981FFE7FFF73BFF01
S315020016200C900C9890B1FFE745F27E51C0F2002172
S3150200163045F26A72C0F2002245F68C03C0F200231C
S315020016400020FFF727FC0C980D9025E1002003905F
S315020016500B900A9009900890079006908121ADF8A8
S31502001660241001228DF82720089003218DF82810D6
S315020016708DF82600E72006908DF8292044F248705E
S31502001680C2F2002006A900F066FE0C900C9890B1FA
S31502001690FFE745F27E51C0F2002145F26A72C0F2BE
S315020016A0002244F65963C0F200230020FFF7F2FB42
S315020016B00C980D90F0E0062007F8220C002007F89F
S315020016C0210CA7F1220002F0A0FE44F24870C2F2F9
S315020016D0002040F2FF3100F050FE0C900C9890B1C1
S315020016E0FFE745F27E51C0F2002145F26A72C0F26E
S315020016F0002244F6D953C0F200230020FFF7CAFBAA
S315020017000C980D90C8E0002202920B920A9209925E
S3150200171008920792069248F28550ADF824000220FC
S315020017208DF82700089204208DF8280006920120E1
S315020017308DF8290008208DF8260044F24870C2F27E
S31502001740002006A900F007FE0C900C9890B1FFE766
S3150200175045F27E51C0F2002145F26A72C0F20022C1
S3150200176045F6AA03C0F200230020FFF793FB0C986C
S315020017700D9091E000200B900A9009900890079036
S31502001780069041F21221ADF8241002218DF827109D
S315020017904FF40051089104218DF8281045F2AA5100
S315020017A0C1F2232107914CF6DD41C5F2BB510691E8
S315020017B008218DF829108DF8260044F24870C2F2ED
S315020017C0002006A9012200F0C6FD0C900C9890B1EB
S315020017D0FFE745F27E51C0F2002145F26A72C0F27D
S315020017E0002245F2A613C0F200230020FFF752FBA7
S315020017F00C980D9050E0002201920B920A920992E7
S3150200180008920792069240F60C40ADF82400022098
S315020018108DF827004FF40050089004208DF8280018
S31502001820069208208DF82900079206928DF8260066
S3150200183044F24870C2F2002006A900F08CFD0C901A
S315020018400C9890B1FFE745F27E51C0F2002145F2B5
S315020018506A72C0F2002244F69353C0F200230020BB
S31502001860FFF718FB0C980D9016E011E045F27E5139
S31502001870C0F2002145F26A72C0F2002245F24A1312
S31502001880C0F200230020FFF705FB05200D9003E0C0
S31502001890FFE70C980D90FFE70D980EB080BDB0B52E
S315020018A002AF8AB00890002007900590049003903A
S315020018B002900190009044F24870C2F20020008922
S315020018C060B9FFE740F20000C2F2002000F1C00159
S315020018D0684691E83C5080E83C500BE040F200003C
S315020018E0C2F2002000F5CC71684691E83C5080E8CF
S315020018F03C50FFE744F24870C2F2002069460022DB
S3150200190000F029FD0790079890B1FFE745F27E5156
S31502001910C0F2002145F2BB12C0F2002245F29A53F0
S31502001920C0F200230020FFF7B5FA0798099027E0D6
S31502001930009845F6EF31C0F21A2188421AD0FFE725
S31502001940009845F6EF31C0F21A21884212D0FFE71D
S3150200195045F27E51C0F2002145F2BB12C0F20022CE
S3150200196045F21153C0F200230020FFF793FA12202A
S31502001970099005E000980899086007980990FFE722
S3150200198009980AB0B0BDD4D480B56F469CB01A90FF
S3150200199000200690199018901790169015901490A2
S315020019A044F69461C0F20021A7F13700172205928E
S315020019B003F0D6F9059A45F2D111C0F20021A7F13A
S315020019C04E0003F0CDF90698079044F24870C2F231
S315020019D00020008920B9FFE7A7F13700049003E051
S315020019E0A7F14E000490FFE704980790079A45F680
S315020019F02B11C0F200210020FFF74CFAFFE7FEF799
S31502001A0073FE002800F0C480FFE7002017901690AE
S31502001A101590149014A91022FEF7F3FC9DF85000BD
S31502001A20313801460391032800F2A1800399DFE8C9
S31502001A3001F0022970941A9818A900F0ADF81990CD
S31502001A40199890B1FFE745F27E51C0F2002145F2A6
S31502001A502A52C0F2002245F26523C0F2002300207A
S31502001A60FFF718FA19981B9093E0079A1898694697
S31502001A70086045F2C051C0F2002100204023FFF762
S31502001A8009FA7CE01A9818A900F01BF9199019981E
S31502001A9090B1FFE745F27E51C0F2002145F22A528B
S31502001AA0C0F2002245F2C273C0F200230020FFF703
S31502001AB0F1F919981B906CE0079A18986946086024
S31502001AC045F28F41C0F20021002040230293FFF726
S31502001AD0E1F9029A44F2C860C2F2002045F6E21128
S31502001AE0C0F2002103F008F948B9FFE7079A45F268
S31502001AF09261C0F200210020FFF7CCF908E0079AB4
S31502001B0045F2FF51C0F200210020FFF7C3F9FFE7BB
S31502001B1035E01A9818A900F021F91990199890B190
S31502001B20FFE745F27E51C0F2002145F22A52C0F289
S31502001B30002245F66C03C0F200230020FFF7AAF943
S31502001B4019981B9025E0079A189B45F28571C0F2F9
S31502001B5000210020FFF79EF911E045F2E811C0F2DC
S31502001B6000210020FFF796F919981B9011E045F61F
S31502001B702801C0F200210020FFF78CF9FFE7079A3F
S31502001B8045F62B11C0F200210020FFF783F9FFE78B
S31502001B9035E71B981CB080BD80B56F4686B00490B1
S31502001BA00391002002900190049801A900F0D6F852
S31502001BB00290029890B1FFE745F27E51C0F20021F1
S31502001BC045F6D802C0F2002245F66C03C0F20023A5
S31502001BD00020FFF75FF9029805906FE000F079F9AF
S31502001BE00290029890B1FFE745F27E51C0F20021C1
S31502001BF045F6D802C0F2002244F63C63C0F2002346
S31502001C000020FFF747F90298059057E0049A44F23C
S31502001C104870C2F2002045F6E211C0F200214023CC
S31502001C2000F0CBFB0290029890B1FFE745F27E519D
S31502001C30C0F2002145F6D802C0F2002245F2465310
S31502001C40C0F200230020FFF725F90298059035E03F
S31502001C5042F2107000F080F90290029890B1FFE70C
S31502001C6045F27E51C0F2002145F6D802C0F20022AA
S31502001C7045F2B863C0F200230020FFF70BF9029881
S31502001C8005901BE0039800F0B8F90290029890B113
S31502001C90FFE745F27E51C0F2002145F6D802C0F2B6
S31502001CA0002245F65103C0F200230020FFF7F2F8A6
S31502001CB00298059002E002980590FFE7059806B0A3
S31502001CC080BD80B56F4684B00290019100200090DD
S31502001CD044F2C860C2F20020402103F03DF800F051
S31502001CE0F8F80090009890B1FFE745F27E51C0F2F5
S31502001CF0002144F6FD52C0F2002244F63C63C0F2D3
S31502001D0000230020FFF7C6F80098039023E002990B
S31502001D1044F2C860C2F20020402203F021F8019882
S31502001D2000F06BF90090009890B1FFE745F27E5102
S31502001D30C0F2002144F6FD52C0F2002245F65103DC
S31502001D40C0F200230020FFF7A5F80098039002E0F6
S31502001D5000980390FFE7039804B080BD80B56F46F4
S31502001D6086B004900391002002900190009004989E
S31502001D700021C9F20201884209D3FFE74FF480200D
S31502001D8001904EF26030C0F21600009008E04FF467
S31502001D908050019048F2A060C0F201000090FFE777
S31502001DA000F097F80290029890B1FFE745F27E5153
S31502001DB0C0F2002145F21522C0F2002244F63C632D
S31502001DC0C0F200230020FFF765F80298059052E062
S31502001DD00499019A44F24870C2F2002000F0A8FB6E
S31502001DE00290029890B1FFE745F27E51C0F20021BF
S31502001DF045F21522C0F2002245F27603C0F2002314
S31502001E000020FFF747F80298059034E0009800F0AA
S31502001E10A3F80290029890B1FFE745F27E51C0F214
S31502001E20002145F21522C0F2002245F2B863C0F243
S31502001E3000230020FFF72EF8029805901BE0039876
S31502001E4000F0DBF80290029890B1FFE745F27E516E
S31502001E50C0F2002145F21522C0F2002245F65103D6
S31502001E60C0F200230020FFF715F80298059002E061
S31502001E7002980590FFE7059806B080BD80B56F46CB
S31502001E8082B00020009044F21070C2F2002045F6A3
S31502001E906421C0F2002101F01EF90090009890B171
S31502001EA0FFE745F27E51C0F2002145F23B52C0F2F5
S31502001EB0002245F27213C0F200230020FEF7EAFF69
S31502001EC00098019002E000980190FFE7019802B0A5
S31502001ED080BD80B56F4682B00020009044F210703B
S31502001EE0C2F2002001F02BF90090009890B1FFE7B2
S31502001EF045F27E51C0F2002145F20122C0F20022D3
S31502001F0045F2E173C0F200230020FEF7C3FF0098FA
S31502001F1001901EE044F21070C2F2002001F0F9F8BE
S31502001F200090009890B1FFE745F27E51C0F2002181
S31502001F3045F20122C0F2002245F2D763C0F2002325
S31502001F400020FEF7A7FF0098019002E0009801909A
S31502001F50FFE7019802B080BD80B56F4684B002905B
S31502001F600020019007F80D0C012007F80D0CFFE781
S31502001F7017F80D0CC007D0B3FFE744F24870C2F25F
S31502001F800020A7F10D0100F07AFB019890B1FFE75E
S31502001F9045F27E51C0F2002144F6C352C0F200223D
S31502001FA045F28613C0F200230020FEF773FF019864
S31502001FB003901FE0029890B9FFE745F27E51C0F206
S31502001FC0002144F6C352C0F2002245F2F673C0F273
S31502001FD000230020FEF75EFF142003900AE0012191
S31502001FE0084602F0E7FA029801380290C0E7019823
S31502001FF00390FFE7039804B080BD80B56F4688B0B2
S3150200200006900020059004900390029001900090A3
S3150200201044F21070C2F2002003A901F0B7F805904D
S31502002020059890B1FFE745F27E51C0F2002145F2D4
S315020020300272C0F2002245F60F03C0F2002300200E
S31502002040FEF728FF059807904AE044F21070C2F2A4
S315020020500020694601F07EF80590059890B1FFE7E9
S3150200206045F27E51C0F2002145F20272C0F2002210
S3150200207045F6BB13C0F200230020FEF70BFF0598BE
S3150200208007902DE044F21070C2F2002001F04CF8E5
S315020020900590059890B1FFE745F27E51C0F2002106
S315020020A045F20272C0F2002245F23323C0F2002347
S315020020B00020FEF7EFFE0598079011E003986421D1
S315020020C0484301994CF66B22C6F65F32A1FB022108
S315020020D0890DB0FBF1F00699086005980790FFE7B5
S315020020E0079808B080BD80B56F4682B00020009088
S315020020F00190FEF7E6FE009802B080BD80B56F46FD
S3150200210092B00B900A910B980990002008900A99B8
S315020021108969079107990A7848F20001C4F22601F3
S3150200212001EB822106910590EFF310800D900D9838
S31502002130059001211191119880F310880798007873
S31502002140103001FA00F343F20400C4F220000268E0
S315020021509A43026000681E2002F02CFA059810903D
S31502002160109880F310880A980999086006980999C8
S3150200217008610A98008809990881079840780999A0
S315020021808872079800780999C8720798406904907E
S31502002190049A106851689268126890470998807A82
S315020021A030B9FFE70699086E20F03300086605E0AD
S315020021B00699086E20F0CC000866FFE70A980088A8
S315020021C0039003980699079A527801EB82010865F3
S315020021D00998807A48B9FFE70798017B4FF4F850CF
S315020021E000EA01200699086008E00798017B4FF093
S315020021F0F85000EA016006990860FFE70798406810
S31502002200007800F00F01039840EA01400390079816
S315020022104068807800F00101039840EA015003907B
S3150200222007984068407800F00101039840EA41505F
S31502002230039007984068C07800F00101039840EACD
S315020022408150039007984068007900F001010398D5
S3150200225040EAC150039007984068407900F00F01A8
S31502002260039840EA016003900798406881790398D1
S3150200227040EA0170039003980699079A527801EB97
S3150200228082010865099800F05FFA089040F68070AE
S31502002290C0F201000290069988600699C860099802
S315020022A0807A30B9FFE70699086E40F03300086677
S315020022B005E00699086E40F0CC000866FFE708982C
S315020022C0B0B9FFE7099945F24900C7F653004860DD
S315020022D007980178427801209040490000FA01F2FD
S315020022E044F25C71C2F200210868104308602FE0D4
S315020022F044F25C70C2F2002000680799097849002E
S31502002300C840800710BBFFE700200190EFF3108062
S315020023100C900C98019001210F910F9880F3108870
S3150200232007980078103001FA00F343F20400C4F271
S31502002330200002681A43026000681E2002F03AF981
S3150200234001980E900E9880F3108800E0FFE7FFE7F1
S31502002350089812B080BD80B56F4684B00390029192
S3150200236007F8092C039800900098029917F8092C8F
S3150200237000F097FA002004B080BD80B56F4686B0A3
S31502002380059027F8061C059803900398008927F8FC
S315020023900E0C37F8060C03990881039800F0D4F95D
S315020023A001900198052805D1FFE737F80E0C03992D
S315020023B00881FFE7019806B080BD80B56F4692B0EE
S315020023C010900F910E920D9310980C9000200B9086
S315020023D00C9800690A900C980168897900F0F6FA5F
S315020023E008B9FFE703E049F6424011909DE00C98D8
S315020023F000688069099009984069089008984068C1
S3150200240040680790079800784AF20002C4F2000278
S315020024104FF4296110FB012006900699012081F8EC
S3150200242030000F9808994968096848600E9808991B
S31502002430496809688860089840680168086820F059
S3150200244040500860089840680168086820F04040DB
S3150200245008600D98089949680968C881089A106841
S31502002460516892685268096890470B900B9808B9B0
S31502002470FFE702E00B98119057E00C9800F013FB6F
S315020024800899086889684A69012190470B900B9858
S3150200249008B9FFE702E00B98119046E0002005908C
S315020024A0049003900290089908688968CA6902A98B
S315020024B090470B900B9808B9FFE702E00B98119032
S315020024C033E0FFE70B990020009031B9FFE705984A
S315020024D000285FEA0F900090FFE70098C00778B1E6
S315020024E0FFE7089908688968CA6902A990470B90AC
S315020024F00B9808B9FFE702E00B98119015E0E1E7A7
S315020025000699002081F83000402007F8410C0D980A
S3150200251017F8411C884205D2FFE70A994FF440702A
S315020025204866FFE700201190FFE7119812B080BDC0
S3150200253080B56F469AB01890179116921898159012
S31502002540159800681490002027F81A0C1598817ABD
S315020025504FF0E040002918BF4FF0F0401290179854
S315020025601299401A1190012007F8250C1598C06897
S315020025700F9015981499897900F028FA08B9FFE79F
S3150200258003E049F64240199076E00F98406A0068E7
S315020025900E900F98406A007907F8310C00200C90D3
S315020025A0FFE70C9817F8311C88421DD2FFE71698F0
S315020025B00E990C9A01EBC201496888420FD1FFE7D6
S315020025C01698013020B9FFE7002007F8250CFFE72F
S315020025D00E980C9930F8310027F81A0C04E0FFE740
S315020025E00C9801300C90DCE7159800F05CFA0B9021
S315020025F00B9808B9FFE702E00B9819903CE000201F
S31502002600059004901199069137F81A1CADF81C1022
S315020026108DF81E000F9800798DF81F0004A810305F
S31502002620029017F8250CC00730B1FFE70F984079E2
S315020026300130C0B2019002E000200190FFE702994A
S315020026400198087000208DF82100159804A901222E
S3150200265000F027F9159800690390FFE70398D0F870
S315020026608401800708B1FFE7F8E703994FF4406059
S31502002670486600201990FFE719981AB080BD80B508
S315020026806F4684B003900291039801900198016805
S31502002690897900F09BF902990870002004B080BD88
S315020026A080B56F468AB00690069805900020009085
S315020026B00490059800688069039003984069029027
S315020026C0029908688968096A8847009805994860E6
S315020026D003980178427801209040490000FA01F2FD
S315020026E044F25C70C2F20020016891430160006806
S315020026F0039909784900C840800710BBFFE700200C
S315020027000190EFF31080079007980190012109913B
S31502002710099880F3108803980078103001FA00F3C4
S3150200272043F20400C4F2200002681A430260006801
S315020027301E2001F03FFF01980890089880F3108848
S31502002740FFE704980AB080BD80B56F468AB008904C
S3150200275008980069079000200690089800F0F9FA98
S315020027600590059808B1FFE702E00520099095E07B
S3150200277005980899C86007980899897A00EB81003C
S31502002780006D40F2FF7188430490089801896FF347
S315020027909F210498084304900598C07800F001012F
S315020027A0049840EA8120049004980799089A927A3C
S315020027B001EB82010865059A90785179D27D40EA4B
S315020027C0024001F0030140EA810003900598407936
S315020027D0032805D1FFE7039840F470000390FFE752
S315020027E00598817803980843039003980799089AF5
S315020027F0927A01EB021108610598C08827F81E0C2F
S3150200280005980089ADF808000598007901280BD1D2
S31502002810FFE737F81E0C000227F81E0CBDF8080069
S315020028200002ADF80800FFE70598807C07F8210C46
S315020028300598C07C07F8220C37F81E0C17F8211CE5
S3150200284001F01F0140EA01400799089A927A01EBCA
S3150200285002114861BDF8080017F8221C01F01F0199
S3150200286040EA01400799089A927A01EB02118861BF
S3150200287008980068806900900098007B58B9FFE7C5
S31502002880089800898005002805D5FFE7089800F01A
S3150200289059F90690FFE706980990FFE709980AB0EA
S315020028A080BD87B0069005918DF8132006980069C1
S315020028B003900698807A8DF80B00059A917BD07B5F
S315020028C0137C527C00F0030003F0070340EA830006
S315020028D002F00F0240EA421001F01F0140EA4120D5
S315020028E09DF8131001F0010140EAC13001900598EC
S315020028F0C07B012805D1FFE7059880890006009074
S3150200290004E00598808900040090FFE70099019889
S31502002910084301909DF80B10082000EAC1000399B4
S315020029200867FFE70398006FC00708B1FFE7F9E7FA
S3150200293001980399C1F88000059880680399C1F847
S3150200294084009DF81300012811D1FFE7059800685D
S315020029500399C1F888000598407C052806D3FFE74D
S31502002960059840680399C1F88C00FFE7FFE70399D1
S31502002970086F40F001000867FFE70398006FC00781
S3150200298008B1FFE7F9E79DF81300B8B9FFE7039826
S31502002990D0F88800059900224A6008600598407CB4
S315020029A005280AD3FFE70398D0F88C3005990A6800
S315020029B0486818430A604860FFE7FFE70398D0F8C3
S315020029C090010399C1F8940107B0704780B56F462C
S315020029D08EB00C9007F8091C0C98C0680A900A98E9
S315020029E0808920B9FFE7002007F8010C57E0002094
S315020029F00590049004A8083003900A98007EC00748
S31502002A0020B1FFE70A98C069029002E00020029016
S31502002A10FFE70399029808600A988089ADF81C00BE
S31502002A200A98007D8DF81E000A9800798DF81F001D
S31502002A3004A8103001900A98007EC00738B1FFE75B
S31502002A400A9890F820000130C0B2009002E00020FF
S31502002A500090FFE701990098087001208DF8210087
S31502002A609DF8200068B1FFE70C98008940F2FF311B
S31502002A70884206D1FFE70A98407901308DF8200096
S31502002A80FFE70C9804A90022FFF70BFF049817F83A
S31502002A90091CC84000F0010007F8010CFFE717F80F
S31502002AA0010C0EB080BD80B56F468EB00C900C98AE
S31502002AB0C0680B900B98408918B9FFE700200D906B
S31502002AC03DE000200190099008900790069005903D
S31502002AD004900B984089ADF81C000B9800798DF88C
S31502002AE01F000C9804A901220092FFF7DAFE009952
S31502002AF0019807F8291C0290FFE70298042812D8C9
S31502002B00FFE70C980168C979FFF760FF07F8290CFF
S31502002B1017F8290CC00708B1FFE704E0FFE702989F
S31502002B2001300290E9E717F8290CC00708B1FFE760
S31502002B3002E013200D9002E000200D90FFE70D98B1
S31502002B400EB080BD89B007900798006906900020F4
S31502002B50059007980068806904900798C0680390FA
S31502002B600798807A8DF80B0006989DF80B1000EBFB
S31502002B704110D0F83001C00720B1FFE749F64240C4
S31502002B800890E3E0039800798DF80A000398C0885C
S31502002B90ADF808000398807C8DF807000398407909
S31502002BA001308DF806009DF80A00012806D1FFE7DC
S31502002BB0BDF808000002ADF80800FFE79DF80A001C
S31502002BC000F003009DF806108900C9B208449DF87A
S31502002BD0071001F01F0140EA016040F4F070069907
S31502002BE09DF80B2001EB4211C1F83401BDF8080033
S31502002BF0000406999DF80B2001EB4211C1F8380139
S31502002C000498006920F0704006999DF80B2001EBAC
S31502002C104211C1F83C0106989DF80B1000EB4111D8
S31502002C200020CFF6FF70C1F8400106989DF80B1000
S31502002C3000EB4111FF20C0F20800C1F844010698DA
S31502002C409DF80B1000EB41114FF20070C0F2FF002D
S31502002C50C1F8480106989DF80B1000EB41114FF29E
S31502002C600870CFF20070C1F84C0106989DF80B105F
S31502002C7000EB411141F60270C1F60070C1F8300155
S31502002C8006989DF80B1000EB4111D1F8300140F087
S31502002C900100C1F83001FFE70698D0F890019DF8CF
S31502002CA00B101E3120FA01F10020C907009069B904
S31502002CB0FFE70698D0F890019DF80B101C31C8402A
S31502002CC010F0010F5FEA1F900090FFE70098C0071F
S31502002CD008B1FFE7E0E706989DF80B1000EB4111FB
S31502002CE0D1F8300120F00100C1F830010698D0F881
S31502002CF090019DF80B101E31C840C00750B1FFE786
S31502002D009DF80B0000F11E01012088400699C1F8CA
S31502002D10940118E00698D0F890019DF80B101C312A
S31502002D20C840C00768B1FFE74FF4966005909DF86A
S31502002D300B0000F11C01012088400699C1F894019C
S31502002D4000E0FFE7FFE705980890FFE7089809B05B
S31502002D50704785B00390039800688069029000204E
S31502002D600090FFE70098029989680979884218D28B
S31502002D70FFE7029880680068009901EB810100EB89
S31502002D80C10001900198008803990989884203D1FC
S31502002D90FFE70198049007E0FFE7009801300090F2
S31502002DA0E0E700200490FFE7049805B0704780B57D
S31502002DB06F4684B00390029103980190019945F2FF
S31502002DC05420C5F24F000860029800F003F8002074
S31502002DD004B080BD80B56F4684B00390039800F0BE
S31502002DE025F80398019000F0E1F8002027F8060C78
S31502002DF0FFE737F8060C01990988884212DAFFE7DD
S31502002E000198416837F8062C01EBC200808851F818
S31502002E10321000F0F6F8FFE737F8060C013027F813
S31502002E20060CE6E700F024F904B080BD80B56F46D3
S31502002E3088B007904EF20000C4F20100049042F2FC
S31502002E400000C4F22000039000200690FFE70698D7
S31502002E5007990988884280F0A780FFE7002005903D
S31502002E60FFE70598022800F29A80FFE70798406874
S31502002E70069900EBC1008088059A45F61841C0F212
S31502002E80002131F81210884240F08480FFE707984B
S31502002E904068069950F8310000F0F8500290029806
S31502002EA0B0F1807F05D0FFE70298B0F1106F38D1FC
S31502002EB0FFE7049890F84C0C059A012191400840CE
S31502002EC0000688B9FFE70120019001F0C0FC0198D5
S31502002ED0059900FA01F3049A92F84C1C194382F8F8
S31502002EE04C1C01F06CFC00E0FFE70398059900EB2F
S31502002EF0410090F840100020B0EBD11F0FD1FFE740
S31502002F000398059900EB410191F8400040F08000DA
S31502002F1081F84000C820012101F04CFB00E0FFE7E8
S31502002F2037E0049890F84C0C059A0121914008402C
S31502002F30C0B2012811DBFFE70120009001F087FCF7
S31502002F400098059900FA01F3049A92F84C1C9943E9
S31502002F5082F84C1C01F033FC00E0FFE70398059968
S31502002F6000EB410090F84000C00901280FDBFFE7A3
S31502002F700398059900EB410191F8400000F07F00AB
S31502002F8081F84000C820012101F014FB00E0FFE7B0
S31502002F90FFE7FFE7FFE705980130059061E7FFE7E6
S31502002FA006980130069052E708B080BD84B0002032
S31502002FB00090EFF310800190019800900120039099
S31502002FC0039880F3108844F2B470C2F200200068BD
S31502002FD048B9FFE740F61451C4F2400100200870D8
S31502002FE040200870FFE744F2B471C2F2002108687B
S31502002FF00130086000980290029880F3108804B0AD
S31502003000704782B0ADF8060000919DF80200C00735
S31502003010E8B1FFE7BDF806206FF03F0101EA920032
S31502003020D2B200EB820340F60002C4F24002985884
S3150200303020F480309850009820F48030BDF8063095
S3150200304001EA9301DBB201EB83018850FFE70098A6
S31502003050BDF806206FF03F0101EA9201D2B201EB00
S31502003060820140F60002C4F24002885002B0704764
S3150200307084B000200090EFF3108001900198009038
S3150200308001200390039880F3108844F2B470C2F2D0
S315020030900020006840B1FFE744F2B471C2F2002199
S315020030A0086801380860FFE744F2B470C2F20020F3
S315020030B0006848B9FFE740F61451C4F24001002007
S315020030C0087080200870FFE700980290029880F34B
S315020030D0108804B0704780B56F4684B003900291A1
S315020030E0039801900298017C012088400199C860EA
S315020030F00198029900F094F80198029900F0BBF841
S31502003100019945F25400C0F247000860002004B05D
S3150200311080BD82B001900198009000988168C068D5
S315020031204860002002B0704782B00190019800907A
S3150200313000988168C0688860002002B0704782B03B
S3150200314001900198009000988168C068C8600020CC
S3150200315002B0704780B56F4686B005900491059817
S31502003160039003988068406E0290029801300190A5
S31502003170019804998860039800F097F904994860C9
S31502003180049901200870002006B080BD83B0029029
S3150200319001910298009000988068C06A00F00100D0
S315020031A00199087100988068806C01990860002076
S315020031B003B0704780B56F4686B0059005980490B7
S315020031C000200090039004984068C0690290049819
S315020031D0406890F9120000F07DF9029890F92400F7
S315020031E000F078F9029890F9250000F073F900983A
S315020031F004990860049800F038F901460098019194
S3150200320004998A68C9689160049989684863049830
S31502003210019941F4254100F02DF9039806B080BDCD
S3150200322083B00290019101980299486002990120A7
S31502003230087402988089800420B1FFE70299002071
S315020032400874FFE70198017C42F20000C4F23200E2
S3150200325000EB01200090009802998860019840696D
S3150200326002994861019880690299C8610299002011
S31502003270886103B0704780B56F468EB00A90099197
S315020032800998C069089043F61071C4F23201012010
S31502003290086000210791EFF310810B910B990791BA
S315020032A00D900D9880F310880998007C042808D3A5
S315020032B0FFE70998007C092803D8FFE7042000905D
S315020032C003E00998007C0090FFE70098C0F11F0018
S315020032D0012101FA00F343F21000C4F22000026851
S315020032E09A43026000681E2001F064F907980C9068
S315020032F00C9880F310880A9881684FF4254008607C
S315020033000A9881680020C8620A998968C8630A997E
S31502003310896888640998007A06900698C00505901F
S31502003320099840680138049009980078032805D165
S31502003330FFE7059840F480300590FFE705980A9963
S315020033408968C8620A9800F09AF8089880690A990A
S315020033508968C8610898C0690A99896808620498E8
S315020033600A998968886604980A99896848660020D5
S3150200337003900898806B02900A9800F0F4F8099876
S31502003380017C01208840800428B1FFE70A98816801
S3150200339000204864FFE70A988168002088630A993A
S315020033A08968C1F888000898806B78B9FFE70898A1
S315020033B090F82010029840EA41300290089890F85E
S315020033C02110029840EA41700290FFE74FF4AA00EA
S315020033D00190089890F8300020B1FFE74FF4A00062
S315020033E00190FFE701980A998968086402980A9988
S315020033F089684863089991F83C0091F83D100001EC
S3150200340040EA41120A988168C86A1043C862039862
S3150200341040F003000A9989680863039840F00100A6
S315020034200A99896808630A988168C068C8600A9818
S315020034304AF2015100F01EF8099991F91200497CED
S315020034400A9A00F0B3F8089991F9240091F822102B
S315020034500A9A00F0ABF8089991F9250091F8231021
S315020034600A9A00F0A3F80EB080BD81B00090002049
S3150200347001B0704782B00190009102B0704781B0EE
S315020034800090009881684FF00040086100998968B1
S3150200349048610099896888610098816800204862BD
S315020034A000998968886201B0704780B56F4684B01A
S315020034B0039003988068C06AC0F3C35007F8050CEE
S315020034C0002000F01BF90190019817F8051CC8406E
S315020034D004B080BD80B56F4682B007F8010C17F9BB
S315020034E0010C00280AD4FFE717F9010C00F0ECF8EA
S315020034F017F9010C002100F0C4F8FFE702B080BD05
S3150200350081B08DF803009DF903204CF20030C4F21D
S31502003510000050F8221021F4803140F822109DF963
S31502003520031050F8210001B0704780B56F4682B093
S3150200353007F8010C17F9010CFFF7E2FFBFF35F8FE3
S3150200354017F9010C0090009800F01F010120884035
S3150200355017F9011C4A094EF28021CEF2000141F808
S31502003560220002B080BD82B0019001984068C06915
S315020035700090009890F83000C00738B1FFE7009835
S31502003580806A013801998968C864FFE7009890F853
S3150200359030008007002807D5FFE70098C06A013887
S315020035A0019989680865FFE702B0704780B56F46E2
S315020035B084B007F8010C0291019217F9010C002858
S315020035C007D4FFE717F9010C0299019A00F003F8F4
S315020035D0FFE704B080BD80B56F4684B007F8010CE2
S315020035E00291019217F9010C0299019A00F006F86C
S315020035F017F9010C00F015F804B080BD80B56F46CE
S3150200360084B007F8010C0291019217F9010C029994
S3150200361000F016F817F9010C019900F032F804B01F
S3150200362080BD80B56F4682B007F8010C17F9010C10
S31502003630FFF77BFF17F9010C00F032F802B080BDEC
S3150200364082B08DF8070000919DF9070000280AD480
S31502003650FFE7009800019DF907104EF20042CEF2F4
S31502003660000288540BE0009800019DF8071001F053
S315020036700F014EF61452CEF200028854FFE702B052
S31502003680704782B08DF80700009100989DF90720D7
S3150200369044F2B871C2F2002141F8220002B070472A
S315020036A082B08DF807009DF907000090009901F09D
S315020036B01F02012090404A094EF20011CEF200018B
S315020036C041F8220002B0704782B08DF807009DF9DA
S315020036D007000090009800F01F01012088409DF924
S315020036E007104A094EF28011CEF2000141F822007B
S315020036F0BFF34F8FBFF36F8F02B0704787B08DF85D
S3150200370017009DF81700FF2803D1FFE70020069057
S3150200371066E04EF22000C4F20100006804900498AC
S315020037209DF81710C84000F00F0003909DF817008F
S31502003730202807D1FFE744F2C870C2F200200068D1
S3150200374006904DE04EF22400C4F20100008800F01B
S315020037500F0002900298039908430007002834D507
S31502003760FFE79DF808000007002807D5FFE7029843
S3150200377000F0070103208840019004E0029901202D
S3150200378088400190FFE7019802909DF80C0000071F
S31502003790002807D5FFE7039800F0070103208840B9
S315020037A0009004E00399012088400090FFE700980A
S315020037B0039044F2C870C2F200200068029948439E
S315020037C00399B0FBF1F006900AE044F2C870C2F227
S315020037D000200068029988400399C8400690FFE7D6
S315020037E0069807B0704780B56F468AB00690059175
S315020037F006980490059840680390059804994860D5
S31502003800039801784AF20000C4F2000000EB81102E
S31502003810049988600398C0680499C860039840694F
S315020038200499486104990020019008610290EFF31F
S31502003830108007900798029001210091099109983A
S3150200384080F3108843F20000C4F22000026822F4DA
S315020038508002026000681E2000F0ACFE009901980A
S31502003860029A0892089A82F310884AF60002C4F273
S31502003870000211704AF61001C4F2000108700498A1
S315020038800599096800F007F90198049A44F2431170
S31502003890C4F24D4111600AB080BD80B56F4686B054
S315020038A004900391049801900198039900F0F3F8AB
S315020038B0049800F015FA0290029808B9FFE702E0B0
S315020038C01320059002E000200590FFE7059806B058
S315020038D080BD80B56F4688B006900591049227F8A0
S315020038E0123C0698029000200190029800F001FA1C
S315020038F0059828B1FFE70598029989680860FFE7ED
S31502003900049828B1FFE70498029989684860FFE79E
S3150200391002988068018A0020B0EB913F06D0FFE74B
S3150200392037F8120C02998968C86005E037F8120C5C
S31502003930029989688860FFE7029800F0D1F9019040
S31502003940019808B9FFE702E01320079002E0002081
S315020039500790FFE7079808B080BD80B56F4682B032
S31502003960019001980090009800F0BAF902B080BD6B
S3150200397080B56F4682B0019001980090009800F0E1
S31502003980B8F9002002B080BD83B002908DF807100E
S31502003990029800909DF8070000010130009989689D
S315020039A04877002003B0704782B0019001980090DA
S315020039B0009881680020487702B0704784B003906F
S315020039C002910398019002994FF4806088600299EF
S315020039D04FF48030086001988068008A800B8DF869
S315020039E0030001988068C06802994860019880685F
S315020039F0806880B20299C8609DF8030028B9FFE783
S31502003A0002994FF6FF708860FFE7002004B0704706
S31502003A1080B56F4684B0039003980290029840687E
S31502003A2040680190019802784CF28021C4F20001AC
S31502003A30002041F822000299896808770198C06837
S31502003A4060B1FFE7019890F9010000F06EF9019864
S31502003A5090F90100002100F082F9FFE702990020A7
S31502003A60086004B080BD84B0039002910192009375
S31502003A70062004B0704785B0049003910292019328
S31502003A800498009003980099C860029800994861CA
S31502003A90002005B0704780B56F468CB00B900A9136
S31502003AA00B9840684068099000200890079006909D
S31502003AB0059004900B9800F01CF90A9801684FF4DF
S31502003AC0407000EA11510698084306900A98016868
S31502003AD04FF4404000EA11310498084304900A98D2
S31502003AE00168C02000EA11310498084304900A983C
S31502003AF0408800F440410698084306900A98C08917
S31502003B0008900A9801680220B0EB917F0ED0FFE779
S31502003B100A9801680120B0EB917F07D0FFE70A9867
S31502003B2001680320B0EB917F24D1FFE7089840EAB1
S31502003B3000400890089820F0FC2008900A98808996
S31502003B4007900A9801680220B0EB917F07D0FFE741
S31502003B500A9801680120B0EB917F0AD1FFE70A9823
S31502003B6001684FF4805000EA112106980843069036
S31502003B70FFE704E0069840F400500690FFE7099834
S31502003B80408928B1FFE7069840F001000690FFE75A
S31502003B900B98C068F0B1FFE7059840F01000059059
S31502003BA00A980068400DC00760B1FFE70A980168ED
S31502003BB00320B0EB917F05D0FFE7059840F00C009B
S31502003BC00590FFE7099991F9010089780B9A00F0AF
S31502003BD0EAF8FFE70020039002900A9801680320A2
S31502003BE0B0EB917F4ED1FFE70A98808927F82A0C1D
S31502003BF00A98C089ADF804000A980068C0F381608B
S31502003C00012809D1FFE737F82A0C27F82E0C049869
S31502003C1040F40050049004E00998008927F82E0C1D
S31502003C20FFE70A980068C0F38140012809D1FFE73F
S31502003C3037F82A0CADF80000049840F020000490F2
S31502003C4007E037F82A0CBDF804104843ADF8000027
S31502003C50FFE737F82E0C0390039840EA00400390E2
S31502003C60BDF800000290029840EA004002900A98CD
S31502003C7040680B99896808620A9880680B99896876
S31502003C804862FFE703980B998968886202980B9944
S31502003C908968C86204980B998968888206980B9984
S31502003CA0896808820A9840680B99896808600A98A8
S31502003CB080680B998968486008980B9989688860BA
S31502003CC0BDF81C000B998968C860099840680B9971
S31502003CD08968886105980B998968C8740CB080BD9B
S31502003CE081B000900098816801200877002001B019
S31502003CF0704782B001900198406840680090009831
S31502003D0001784CF28022C4F20002002042F821001F
S31502003D10019989680877009B59891B7842F8231014
S31502003D2001998968487702B0704782B08DF807001A
S31502003D309DF907000090009800F01F0101208840BD
S31502003D409DF907104A094EF28011CEF2000141F8A0
S31502003D502200BFF34F8FBFF36F8F02B0704782B05E
S31502003D608DF80700009100989DF9072044F2B8717A
S31502003D70C2F2002141F8220002B0704781B08DF8EC
S31502003D8003009DF903204CF20030C4F2000050F803
S31502003D90221021F4803140F822109DF9031050F8C8
S31502003DA0210001B0704780B56F4684B007F8010C58
S31502003DB00291019217F9010C0299019A00F006F894
S31502003DC017F9010C00F015F804B080BD80B56F46F6
S31502003DD084B007F8010C0291019217F9010C0299BD
S31502003DE000F016F817F9010C0199FFF7B8FF04B0B5
S31502003DF080BD80B56F4682B007F8010C17F9010C39
S31502003E0000F027F817F9010C00F041F802B080BD66
S31502003E1082B08DF8070000919DF9070000280AD4A8
S31502003E20FFE7009800019DF907104EF20042CEF21C
S31502003E30000288540BE0009800019DF8071001F07B
S31502003E400F014EF61452CEF200028854FFE702B07A
S31502003E50704780B56F4682B007F8010C17F9010C5E
S31502003E60FFF78CFFBFF35F8F17F9010C00900098E4
S31502003E7000F01F010120884017F9011C4A094EF281
S31502003E808021CEF2000141F8220002B080BD82B04C
S31502003E908DF807009DF907000090009901F01F02B6
S31502003EA0012090404A094EF20011CEF2000141F87B
S31502003EB0220002B0704782B04EF22600C4F2010020
S31502003EC0007801904EF22400C4F20100008800F04E
S31502003ED00F008DF803009DF803008DF802009DF88F
S31502003EE00200082814D1FFE7019944F2E010C2F259
S31502003EF0002050F821004AF6AB21CAF6AA21A0FBFF
S31502003F000110400844F2C871C2F2002108605DE067
S31502003F109DF80200092814D1FFE7019944F2E01046
S31502003F20C2F2002050F821004AF6AB21CAF6AA21B5
S31502003F30A0FB0110800844F2C871C2F20021086099
S31502003F4043E09DF802000A2814D1FFE7019944F2E2
S31502003F50E010C2F2002050F821004AF6AB21CAF660
S31502003F60AA21A0FB0110C00844F2C871C2F20021C6
S31502003F70086029E09DF802000B2814D1FFE7019999
S31502003F8044F2E010C2F2002050F821004AF6AB21BA
S31502003F90CAF6AA21A0FB0110000944F2C871C2F2B6
S31502003FA0002108600FE0019944F2E010C2F20020FD
S31502003FB050F821009DF80210C84044F2C871C2F2BE
S31502003FC000210860FFE7FFE7FFE7FFE702B070475F
S31502003FD04CF20000C4F2130000210170017801784E
S31502003FE00078704781B04CF20400C4F213000068F6
S31502003FF06FF39F2000900098652807D3FFE74CF2E5
S315020040000001C4F2130101200870FFE701B07047F6
S3150200401083B0029001910298B0F5004F03D8FFE7F2
S31502004020002000900EE0029844F23F21C0F20F01F8
S3150200403008444DF68361C4F21B31A0FB0110800CCB
S315020040400090FFE7FFE700984CF20401C4F2130167
S315020040500968884209D0FFE7009840F0F0504CF218
S315020040600401C4F213010860EDE70198B0F5004FB0
S3150200407003D8FFE7002000900EE0019844F23F21AA
S31502004080C0F20F0108444DF68361C4F21B31A0FB56
S315020040900110800C0090FFE7FFE700984CF2080140
S315020040A0C4F213010968884209D0FFE7009840F07C
S315020040B061404CF20801C4F213010860EDE703B057
S315020040C0704780B56F4682B04EF2FA31C4F20101F2
S315020040D04AF20350088000F0DAF84EF65021C4F294
S315020040E001010A2008704EF2A201C4F20101092060
S315020040F0087000F006F94EF23201C4F20101002006
S315020041000870FFE74EF23C00C4F201000078C008D6
S31502004110C00708B9FFE7F5E74EF2C801C4F201018C
S315020041204CF2027008604EF24E01C4F2010140F2F6
S31502004130274008804EF24A01C4F2010100200870AD
S315020041404EF2AC02C4F201024FF6021111604EF2B7
S315020041504C02C4F2010240F251411180BFF34F8F6B
S31502004160BFF36F8F4EF61452CEF20002116821F49D
S31502004170003111604EF65071CEF200010860BFF3B5
S315020041804F8FBFF36F8F4EF20001CEF20101086826
S3150200419020F440500860BFF34F8FBFF36F8F4EF28B
S315020041A01401C4F20101087800F0F8000130087029
S315020041B0FFE74EF21400C4F2010000780009C007BE
S315020041C008B1FFE7F5E74EF20001CEF201010868F9
S315020041D040F440500860BFF34F8FBFF36F8F4EF627
S315020041E01450CEF2000000688003002801D5FFE7D4
S315020041F01AE0BFF34F8FBFF36F8F4EF65071CEF2B8
S31502004200000100200860BFF34F8FBFF36F8F4EF699
S315020042101451CEF20001086840F400300860BFF382
S315020042204F8FBFF36F8FFFE74EF22A01C4F20101EF
S3150200423000200870FFE74EF23C00C4F2010000784D
S315020042404009C00708B9FFE7F5E700F098F84EF213
S315020042503001C4F20101012008704EF25201C4F28B
S31502004260010108704EF25301C4F2010108704FF4C5
S31502004270837027F8020CB81E00F0C7F84EF2FA3126
S31502004280C4F201014FF42540088002B080BD80B51A
S315020042906F4644F2E011C2F2002146F60040C0F237
S315020042A0DC20086041F20020C0F27A0048604FF438
S315020042B00040886043F20062C0F26E12CA60086172
S315020042C04CF60020C3F69A30486144F25530C1F2EA
S315020042D0DE30C86148F20040C1F2D77008624CF283
S315020042E00020C0F6EB30886140F25550C1F6CA7024
S315020042F048624DF20000C1F212308862FFF7DBFD20
S3150200430080BD80B56F464EF60040C4F201000078CB
S3150200431040B9FFE74EF60140C4F20100007880077B
S3150200432038B3FFE74EF60040C4F201000078A0B9A8
S31502004330FFE74EF60040C4F2010001210170C820D9
S3150200434000F038F9FFE74EF60040C4F201000078AB
S31502004350012801D0FFE7F6E7FFE74EF60141C4F276
S315020043600101002008704EF60041C4F201010870F6
S3150200437004E04FF47A7000F092F8FFE780BD80B552
S315020043806F4682B0FFF724FE4BF28020C0F6E6604D
S3150200439045F64011C0F27371FFF73AFE4EF2200164
S315020043A0C4F2010143F23240C3F2232008604EF206
S315020043B02401C4F2010142F2201008804EF22601C5
S315020043C0C4F2010105200870FFF775FD1E200121C8
S315020043D0019100F0EFF8FFF705FEFFF76CFD01987B
S315020043E042F20001C4F200014AF201520A80BFF30E
S315020043F05F8F42F20802C4F200021070BFF35F8FB1
S315020044004FF42540088002B080BD82B001904EF282
S31502004410FA31C4F201010888ADF802004AF20350EB
S3150200442008804EF27501C4F20101087840F040009E
S315020044300870FFE74EF27500C4F201000178012010
S31502004440B0EBD11F01D0FFE7F4E7019840784EF2B6
S315020044506D01C4F2010108700198007840F0400035
S315020044604EF27501C4F201010870019800780870D5
S31502004470FFE74EF27500C4F2010001780020B0EBAE
S31502004480D11F01D0FFE7F4E7BDF8020040F4254052
S315020044904EF2FA31C4F20101088002B0704781B0CF
S315020044A0009001B0704780B56F4684B042F2280191
S315020044B0C4F22001002002900870C820012100F0F9
S315020044C079F8029842F22401C4F220010870FFE74B
S315020044D042F22400C4F22000007808B1FFE7F7E7B1
S315020044E042F22401C4F22001087840F0020008706A
S315020044F0FFE742F22400C4F2200000784008C00719
S3150200450008B1FFE7F5E742F22201C4F220010020DA
S315020045100870FFE742F22200C4F22000007808B1D8
S31502004520FFE7F7E7002007F8010CFFE717F8010C91
S31502004530022822D8FFE717F8012C42F24001C4F202
S31502004540200111F8120000F07F0001F81200FFE7C7
S3150200455017F8011C42F24000C4F2200010F81110B4
S315020045600020B0EBD11F01D0FFE7F1E7FFE717F814
S31502004570010C013007F8010CD8E70120019000F088
S3150200458066F901984EF64C42C4F2010200211170FE
S3150200459000F015F904B080BD81B0009001B07047FB
S315020045A081B0009000990020C0F2016008600020EE
S315020045B001B0704780B56F468CB00B900A9100200F
S315020045C008900B980A994843079044F2C870C2F2C1
S315020045D0002000680990099841F20021C0F27A0190
S315020045E088421FD3FFE7099844F23F21C0F20F0128
S315020045F008444DF68361C4F21B31A0FB0110800C06
S31502004600069007980699A0FB01010591049005986A
S3150200461020B1FFE74FF0FF30089002E004980890BF
S31502004620FFE731E009994CF60020C3F69A30B0FB59
S31502004630F1F0029007984FF47A71A0FB0101019103
S315020046400090019840B9FFE700980299B0FBF1F09B
S3150200465003900398089016E007980299B0FBF1F0D0
S31502004660079007984FF47A71A0FB0101019100901F
S31502004670019818B9FFE70098089003E04FF0FF3061
S315020046800890FFE7FFE7FFE7089820B1FFE70898E1
S3150200469000F006F8FFE70CB080BDD4D4D4D4D4D44D
S315020046A001380028FCD1704780B56F4684B04CF2C1
S315020046B00010C4F20000006803904CF22010C4F20D
S315020046C000000068039908400290002007F8090CD0
S315020046D0FFE717F8090C142813DCFFE7029817F80E
S315020046E0091CC840C00728B1FFE717F8090C00F0FB
S315020046F01BF8FFE7FFE717F8090C013007F8090C6A
S31502004700E7E702984CF21011C4F200010860FFE7D5
S315020047104CF22010C4F2000000680299084201D04F
S31502004720FFE7F5E704B080BD80B56F4682B007F8B3
S31502004730010C17F8011C44F26070C2F2002050F816
S31502004740210050B1FFE717F8010C44F26071C2F282
S31502004750002151F820108847FFE702B080BD82B0E1
S31502004760602001900198022803D3FFE701200190FF
S31502004770FFE700200090FFE70098019988421CD2CB
S31502004780FFE7009945F69860C0F2002030F8110064
S3150200479070B1FFE7009A45F69860C0F2002030F843
S315020047A012004CF20031C4F2000141F82200FFE788
S315020047B0FFE7009801300090DEE702B0704785B04F
S315020047C08DF8070000200090EFF310800290029807
S315020047D0009001200490049880F310889DF8071039
S315020047E044F2BC70C2F2002030F8110060B1FFE75B
S315020047F09DF8072044F2BC71C2F2002131F8120082
S31502004800013821F81200FFE79DF8071044F2BC7048
S31502004810C2F2002030F8110090B9FFE74EF2FA31E9
S31502004820C4F20101088840F425409DF8073045F698
S315020048309A62C0F2002232F8132090430880FFE702
S3150200484000980390039880F3108805B0704785B0EE
S315020048508DF8070000200090EFF310800290029876
S31502004860009001200490049880F310889DF80710A8
S3150200487044F2BC70C2F2002030F8110090B9FFE792
S315020048804EF2FA31C4F2010108889DF8073045F666
S315020048909A62C0F2002232F81320104340F42540F7
S315020048A00880FFE79DF8072044F2BC71C2F200219E
S315020048B031F81200013021F8120000980390039893
S315020048C080F3108805B0704780B56F4600F006F891
S315020048D0FDF709FCFFE7FEE700BE704780B56F46AD
S315020048E090B04EF61451CEF2000140F20120C0F211
S315020048F00E000860BFF34F8FBFF36F8F4EF6005066
S31502004900CEF2000000680E900E98C0F303500D9090
S315020049100E9800F00F000C900D98012803D1FFE7C6
S315020049200C9820B9FFE70D9802280DD3FFE74EF247
S315020049300001CEF20101086820F004000860BFF30E
S315020049404F8FBFF36F8F18E04EF20001CEF20101D6
S31502004950086840F004000860BFF34F8FBFF36F8F03
S315020049604EF20801CEF20001086840F48030086079
S31502004970BFF34F8FBFF36F8FFFE74EF68851CEF22C
S3150200498000014FF47000086040F20000C0F20020FF
S315020049904EF60851CEF2000108600020FCF7C5FB76
S315020049A0FFF78FFB0120FCF7C0FB40F2E010C2F2DA
S315020049B000200F900F9880F30A884EF20000CEF284
S315020049C0010000688007002837D5FFE74EF6085039
S315020049D0CEF200000068B0F1007F2ED1FFE74EF262
S315020049E01000CEF20100006800F07800092101EB08
S315020049F0D002012000FA02F2D2080B924EF2140201
S31502004A00CEF20102126802F0780201EBD20188406E
S31502004A10C0080A900B986946086000230693184658
S31502004A201A4600F0EDF8069B0A98694608604FF0B0
S31502004A3000501A4600F0E4F8FFE70020059000F067
S31502004A40F6F8FFF738FAFFF72EFD0320FFF7FFFE11
S31502004A5005980990FFE709980D280DD8FFE7099AEE
S31502004A6040F63051C4F24001002021F82200FFE74F
S31502004A70099801300990EEE703200490FFF79FFEA4
S31502004A800498FFF7E4FE049844F20402C4F22002FA
S31502004A900021116044F20802C4F22002116044F2BD
S31502004AA00C02C4F22002116044F21002C4F2200287
S31502004AB01160FFF784FE4EF2D830C4F2010000689E
S31502004AC058B1FFE74EF2D830C4F20100006801285F
S31502004AD02ED1FFE7012058BBFFE74EF21010C4F2B9
S31502004AE00100007820B3FFE70120FFF7B0FEFFE7E1
S31502004AF04EF21010C4F20100007800F0C0008028C7
S31502004B0001D0FFE7F4E74EF21011C4F201010020D2
S31502004B100870FFE74EF21010C4F20100007810F0A0
S31502004B20C00F01D0FFE7F5E70120FFF748FEFFE7D8
S31502004B300120FFF78CFEFFE74EF21410C4F20100CB
S31502004B40007800F0C000802801D0FFE7F4E74EF2BB
S31502004B501411C4F2010100200870FFE74EF214108E
S31502004B60C4F20100007810F0C00F01D0FFE7F5E7AC
S31502004B7001200290FFF723FE0220FCF7D6FA0298E4
S31502004B8000F055F844F2D470C2F20020039000F00F
S31502004B90C3F8039800F0D6F8BFF34F8FBFF36F8FB9
S31502004BA04EF65071CEF2000100200860BFF34F8F1F
S31502004BB0BFF36F8F45F6F262C0F2002245F6F2614C
S31502004BC0C0F20021891A891008910790FFE7079819
S31502004BD0089988420DDAFFE7079945F6F260C0F2B6
S31502004BE0002050F821008047FFE707980130079020
S31502004BF0EDE7FFF7B4FD0020FFF7CEFC10B080BD55
S31502004C0080B56F4684B0B968039001930092039809
S31502004C10B968009ADDF804C0634641F005C800BFD2
S31502004C20E0E802230FF005C0039004B080BD80B512
S31502004C306F4684B0039000200290FFE7029845F683
S31502004C406C41C0F200210968884225D2FFE7039829
S31502004C5045F66C41C0F200214968029A02EB420213
S31502004C6001EB8201497A884211D1FFE745F66C4091
S31502004C70C0F200204068029901EB410200EB82017A
S31502004C8050F822004968091A00F066F8FFE7FFE7C4
S31502004C90029801300290D1E700200190FFE70198C7
S31502004CA045F66C41C0F200218968884222D2FFE7AC
S31502004CB0039845F66C41C0F20021C968019A01EBDE
S31502004CC00211497B884210D1FFE745F66C40C0F2DB
S31502004CD00020C068019A00EB0211120180584A684E
S31502004CE08968121A00F03CF8FFE7FFE701980130E5
S31502004CF00190D4E704B080BDD0B502AF3AB10B78CB
S31502004D0004789C4205D1013A01310130F6E70020D0
S31502004D10D0BDE01AD0BDD4D4D0B502AF0549044601
S31502004D20054A00F01DF805480549204400F014F82C
S31502004D30D0BD00BF1F0200020000000000000000FC
S31502004D40000000000249401A02490860704700BF8D
S31502004D5008000000D04700220A46002100F00AB8E7
S31502004D60D0B502AF00239A4203D0CC5CC4540133BF
S31502004D70F9E7D0BD00239A4208BF7047C1540133F8
S31502004D80F9E70000000000005454522052454747FC
S31502004D904553007265616420466C61736820464122
S31502004DA0494C45440D0A00525F4F5350495F425FDA
S31502004DB04F70656E20415049204641494C4544207A
S31502004DC00D0A006F7370695F625F776169745F6F66
S31502004DD07065726174696F6E00525F4F5350495F1E
S31502004DE053706950726F746F636F6C5365742041B0
S31502004DF05049204641494C4544200D0A006F7370C4
S31502004E00695F625F726561645F6F70657261746922
S31502004E106F6E00312E300068616E646C655F65727C
S31502004E20726F7200525F4F5350495F425F436C6F1D
S31502004E307365204641494C45440D0A0074696D6507
S31502004E40725F73746172745F6D65617375726520EA
S31502004E504641494C45440D0A0073657420746865E1
S31502004E6020766F6C6174696C6520636F6E66696724
S31502004E7075726174696F6E207265676973746572A3
S31502004E80204F444452206D6F6465204641494C458B
S31502004E90440D0A0031532D31532D31532050726F78
S31502004EA0746F636F6C204D6F6465000D0A546869F8
S31502004EB073206578616D706C652070726F6A6563C8
S31502004EC0742064656D6F6E737472617465732062AB
S31502004ED0617369632066756E6374696F6E616C696E
S31502004EE074696573206F66204F5350492064726956
S31502004EF07665720D0A6F6E2052656E657361732058
S31502004F005241204D435573206261736564206F6E72
S31502004F102052656E65736173204653502E2042619E
S31502004F20736564206F6E2074686520557365722000
S31502004F30696E7075742C20455020706572666F72AA
S31502004F406D730D0A726561642F77726974652F65D8
S31502004F5072617365206F7065726174696F6E206924
S31502004F606E20535049206D6F6465202831532D31D0
S31502004F70532D315329206F7220444F5049206D6FB3
S31502004F806465202838442D38442D3844292E0D0ACC
S31502004F904F6E207375636365737366756C20636FFA
S31502004FA06D706C6574696F6E206F662065616368EB
S31502004FB0206F7065726174696F6E2C2073756363FE
S31502004FC0657373206D6573736167652077696C6CB1
S31502004FD0206265207072696E7465640D0A6F6E20B8
S31502004FE0525454207669657765722E204572726F27
S31502004FF07220616E6420696E666F206D65737361DF
S315020050006765732077696C6C206265207072696EC1
S31502005010746564206F6E204A6C696E6B52545456E6
S3150200502069657765722E0D0A0A006F7370695F6291
S315020050305F6F7065726174696F6E204641494C45B7
S31502005040440D0A006F7370695F625F696E6974006E
S315020050506F7370695F625F73657475705F63616CAD
S315020050606962726174655F64617461204641494C8C
S315020050704544200D0A00525F4F5350495F425F4537
S315020050807261736520415049204641494C45440DA1
S315020050900A006F7370695F625F7365745F70726F27
S315020050A0746F636F6C5F746F5F73706920464149FA
S315020050B04C45440D0A006F7370695F625F777269CF
S315020050C074655F656E61626C65000D0A4F535049E7
S315020050D0204D61696E204D656E752C2050726F747D
S315020050E06F636F6C204D6F6465204F7074696F6ECD
S315020050F03A0D0A312E205350492031532D31532D6A
S3150200510031532050726F746F636F6C204D6F6465FC
S315020051100D0A322E204F50492038442D38442D385E
S31502005120442050726F746F636F6C204D6F64650D0F
S315020051300A50726F746F636F6C204D6F64652053F3
S31502005140656C6563743A200D0A00466C61736820CB
S3150200515064657669636520646F206E6F742073756B
S3150200516070706F72742074686973206D6F64650D58
S315020051700A00525F4750545F4F70656E20464149A0
S315020051804C45440D0A00525F4F5350495F425F53EC
S3150200519074617475734765742041504920464149CC
S315020051A04C45440D0A00776972746520466C61733A
S315020051B068204641494C45440D0A006F7370695F89
S315020051C0625F726561645F6465766963655F69647F
S315020051D00038442D38442D38442050726F746F6362
S315020051E06F6C204D6F6465000D0A476F2062616324
S315020051F06B20746F204D61696E204D656E750D0AC8
S315020052000074696D65725F73746172745F6D656156
S3150200521073757265006F7370695F625F6572617341
S31502005220655F6F7065726174696F6E00284E554CCA
S315020052304C2900525F4750545F53746F70204641A9
S31502005240494C45440D0A000D0A446576696365209A
S31502005250494420726561642073756363657373667E
S31502005260756C6C79006F7370695F625F77726974CF
S31502005270655F6F7065726174696F6E204641494C55
S3150200528045440D0A00525F4F5350495F425F4572D3
S3150200529061736520415049204641494C4544200DE1
S315020052A00A000D0A2A2A2A2A2A2A2A2A2A2A2A2ADD
S315020052B02A2A2A2A2A2A2A2A2A2A2A2A2A2A2A2A46
S315020052C02A2A2A2A2A2A2A2A2A2A2A2A2A2A2A2A36
S315020052D02A2A2A2A2A2A2A2A2A2A2A2A2A2A2A2A26
S315020052E02A2A2A2A2A2A0D0A2A20202052656E658F
S315020052F073617320465350204578616D706C65204A
S3150200530050726F6A65637420666F72206F7370697C
S315020053105F62204D6F64756C65202020202020205E
S31502005320202020202020202020202A0D0A2A20208A
S31502005330204578616D706C652050726F6A65637482
S315020053402056657273696F6E2025732020202020F7
S315020053502020202020202020202020202020202045
S31502005360202020202020202020202020202A0D0A54
S315020053702A202020466C657820536F667477617206
S3150200538065205061636B2056657273696F6E2020CB
S3150200539025642E25642E256420202020202020200E
S315020053A020202020202020202020202020202020F5
S315020053B0202020202A0D0A2A2A2A2A2A2A2A2A2AAA
S315020053C02A2A2A2A2A2A2A2A2A2A2A2A2A2A2A2A35
S315020053D02A2A2A2A2A2A2A2A2A2A2A2A2A2A2A2A25
S315020053E02A2A2A2A2A2A2A2A2A2A2A2A2A2A2A2A15
S315020053F02A2A2A2A2A2A2A2A2A0D0A526566657220
S3150200540020746F20726561646D652E7478742066EF
S31502005410696C6520666F72206D6F726520646574B3
S3150200542061696C73206F6E204578616D706C6520C2
S3150200543050726F6A65637420616E640D0A4653503A
S3150200544020557365722773204D616E75616C2066F7
S315020054506F72206D6F726520696E666F726D617410
S31502005460696F6E2061626F7574206F7370695F6217
S31502005470206472697665720D0A006F7370695F62E5
S315020054805F696E6974204641494C45440D0A002500
S3150200549073203A205265616420256420627974651E
S315020054A07320636F6D706C657465642073756363D6
S315020054B065737366756C6C7920696E202564206E3F
S315020054C0616E6F7365636F6E64730D0A006F73703E
S315020054D0695F625F7365745F70726F746F636F6C1E
S315020054E05F746F5F6F7069204641494C45440D0AEF
