S023000052413850315F63706B686D695F33326962745F736472616D5F65702E737265632D
S3150200000000040422F9150002191400020716000260
S31502000010071600020716000207160002071600025C
S3150200002000000000000000000000000007160002A9
S31502000030071600020000000007160002071600025B
S315020000401000000000000000017A5200017C0E013F
S30D020000501B0C0D00000000006C
S31502000060F0B503AF2DE9000F83B000EB400040F27C
S315020000703043C2F20423154603EBC0088946D8F87A
S315020000802C0002281AD001280CD048B9444654F84C
S31502000090246F6068F143B04275D90844A84279D208
S315020000A000269BE0C2465AF8244FDAF80410A14211
S315020000B03FD9E0430144D8F820003FE058F824AF86
S315020000C008F10400A8F1040B00260290A8F108002A
S315020000D0019024E0DBF8001010440844A1EB0A0169
S315020000E0884250EA31804946A84250EA358401984E
S315020000F022460068504401F07FFC04EB0A00DBF85C
S315020001000010411AA5EB040550EA118A2644A144BF
S31502000110002DBFF35F8F4046C8F800A05ED002985C
S315020001206FEA0A0200685045D4D91044DBF8001081
S31502000130D4E7E243D8F8200011440144A94251EA27
S315020001403586051B58F81C0F2044AE4209D2494693
S31502000150324601F051FCBFF35F8F3019CAF8000036
S315020001603CE049462A46444601F046FCA6EB050811
S31502000170206809EB0501424601F03EFCBFF35F8FA2
S31502000180CAF800802AE0D8F8202008441044A84281
S31502000190FFF486AF58F81C0FD8F804103044A1EBD0
S315020001A0060A554508D249462A4601F025FCBFF300
S315020001B05F8F7019206010E049465246464601F0AC
S315020001C01BFCA5EB0A08306809EB0A01424601F05E
S315020001D013FCBFF35F8FC4F800802E46304603B08F
S315020001E0BDE8000FF0BDF0B503AF4DF8048D40F247
S315020001F03044C2F204242378532B3AD080460E466A
S31502000200A8212046154601F0F3FB03202061606118
S3150200021040F2D84041F67841C2F20420C0F20021F1
S31502000220A161E0614FF4006020620020A06260627A
S31502000230E062216640F6D8414FF0100EC2F2042168
S315020002406166C4F868E02067E0666067BFF35F8FA7
S3150200025041F61A21C0F2002180F00F0201308A5CB9
S3150200026004F8012B0FF009C02A4631464046BFF377
S315020002705F8F5DF8048BBDE8F040FFF7F1BED4D482
S31502000280F0B503AF2DE9000F9DB00E4608A94CF656
S31502000290CD4C93461891402105901C900DF16008B3
S315020002A0CCF6CC4C002019910021CDE91A1112E0AE
S315020002B0011DCBF800100168CDE9003940465346CE
S315020002C000F018FA4CF6CD4CCCF6CC4C1B98B0F19B
S315020002D0FF3F40F30B8216F8011B25291CD000298B
S315020002E000F0F681DDE91920431C934207D8189ADB
S315020002F011541A931B98199A01301B901846904272
S31502000300E4D118991C98FFF76EFF1A99884240F0BB
S31502000310DC8100201A90D5E74FF000093178A1F16F
S3150200032023030D2B13D80222DFE803F00B11111160
S31502000330111111110D110F11110749EA02090136A6
S31502000340ECE70822F9E70422F7E70122F5E7A1F133
S315020003503A02002312F10A0F0ED30A4616F8011FBB
S3150200036003EB8303A1F13A0502EB430215F10B0FEE
S31502000370A2F130030A46F1D82E2916D116F8011F2A
S315020003804FF0000AA1F13A0212F10A0F0FD30AEB5B
S315020003908A0201EB420216F8011FA2F1300AA1F10C
S315020003A03A0515F10B0FF2D801E04FF0000A16F8E4
S315020003B0011B01F0FB02682AF9D0A1F15802202A9A
S315020003C026D8DFE802F012111111111111111111C3
S315020003D011163C111111111111111111111167117F
S315020003E0117511381111120070E7DBF800001022A6
S315020003F05EE7DDE91920411CDBF80030914203F18A
S315020004000405CBF800503FF67AAF189A1B680AE04B
S3150200041025297FF45BAFDDE91920411C91423FF6A5
S315020004206EAF189A252313541A911B98199A013004
S315020004301B90084663E7DBF800000A2238E7DBF880
S3150200044000100A1DCBF800200A680792002AC2F1A2
S31502000450000148BF0A460A2A04914FF0010107DB50
S31502000460A2FB0C54632A01F101014FEAD402F7D828
S31502000470514551EA8A8E002BCDF818B04ED0079915
S3150200048009F0040200295FEA5F9141EA9201A3EBB7
S31502000490010B45E0DBF800001022011DCBF800102D
S315020004A00168002008230825CDE90050404607E7E9
S315020004B0DBF800100A1DCBF80020096841F6DB22A2
S315020004C00029C0F2002252EA01840BE000204CF619
S315020004D0CD4C1A901B98CCF6CC4CB0F1FF3F04F1F0
S315020004E0010418DD2578B5B1DDE919214B1C9342CB
S315020004F007D81898455419461B98199A01301A9329
S315020005001B909142E9D118991C98FFF76CFE1A9933
S315020005108842DBD0D9E00DF16008D7E64FF0000B38
S315020005205FEA89750DF1600827D5BAF1000F24D16B
S31502000530002800F1C7800799B1F1FF3F51DD5FEA5C
S31502000540497174D5DDE919214B1C934208D81898D4
S315020005502B22425419461B98199A01301A931B9062
S31502000560914262D118991C982C467546FFF73BFEBC
S315020005701A99884207994ED0A7E05FEAC971D7D186
S31502000580BBF1000FD4D0039503E00028AB4600F17F
S315020005909980ABF101055D4538BFDE4580F08C8060
S315020005A0DDE919214B1C934208D81898202242549F
S315020005B019461B98199A01301A931B909142E4D15D
S315020005C018991C987446FFF70EFE1A9988427CD138
S315020005D000204CF6CD4C1A901B98CCF6CC4CA64675
S315020005E0D3E7DDE919214B1C934208D818982D222E
S315020005F0425419461B98199A01301A931B9091423C
S315020006005CD118991C982C467546FFF7ECFD1A9991
S315020006108842049959D100204CF6CD4C1A901B9869
S31502000620CCF6CC4CAE462546079100284AD4002D7E
S315020006300CD40DF160080A22404607995346CDE9CB
S3150200064000B900F057F8DDF818B03BE609F00101F1
S3150200065051EA0A01EDD1BBF1000FEAD0ABF1010874
S31502000660D84538BFDE45E4D2DDE919214B1C934259
S3150200067008D818983022425419461B98199A013004
S315020006801A931B9091420BD118991C987546FFF745
S31502000690AAFD1A99884218D100201A901B98AE46D4
S315020006A04CF6CD4C0028C346CCF6CC4CD6D5DDF85C
S315020006B018B00DF1600809E6039D39E70499079120
S315020006C00028B4D5DDF818B000E64FF0FF300DE093
S315020006D040B11A9A42B108A90598FFF784FDDDE9EF
S315020006E01A1002E0002001E0002108441DB0BDE816
S315020006F0000FF0BDF0B503AF2DE9000F81B015462E
S31502000700884691421E460446D7F808A04FF00100DB
S3150200071005D34146B1FBF5F10130A942FAD2B04206
S3150200072050EA8689BAF1000FF96835D011F0010056
S3150200073032D188074FF020014FF0200048BF302009
S31502000740002E50EA018B03E0E068B0F1FF3F23DDA3
S31502000750BAF1000F20D0D1451ED2D4E90120411CA6
S31502000760914208D8226802F800B0A160E068626887
S315020007700130E06008469042AAF1010AE4D12168FC
S315020007802069FFF730FDA168884202D10020A060EF
S31502000790DAE74FF0FF30E060E06800283ED44FF021
S315020007A0010B02E0013E0BFB05FB022EFAD2B8FB5F
S315020007B0FBF1A942F7D2A2686168531CB8FBFBF6AB
S315020007C08B420CD841F684512068C0F20021895D23
S315020007D081541A46E06861680130A360E0608A428B
S315020007E009D121682069FFF7FEFCA26890420CD16C
S315020007F00022E068A26000280AD4BBFBF5F106FBE2
S315020008001B88AB458B46D7D202E04FF0FF30E06043
S31502000810F968C90718BFBAF1000F03D101B0BDE8E4
S31502000820000FF0BD2025AAF10106564538BFD14575
S31502000830F4D26168531C8B4207D8206885541A4645
S31502000840E06861680130A360E0608A4209D12168EC
S315020008502069FFF7C8FCA168884207D10022E06838
S31502000860A260B0F1FF3FB246DDDCD7E74FF0FF30C2
S31502000870E060D3E782B080B56F4682B0C7E9022353
S3150200088007F10802019201AAFFF7FAFC02B0BDE8DD
S31502000890804002B07047F0B503AF2DE9000F81B07A
S315020008A041F62B240020C0F2002400252146FFF742
S315020008B0E1FF00202146FFF7DDFF41F60F41002050
S315020008C0C0F20021FFF7D6FF40F674544FF4004100
S315020008D0C2F204244FF40046204601F089F840F69D
S315020008E074504FF40041C2F2062001F081F840F242
S315020008F000004FF40041C6F6020001F079F840F21A
S3150200090000004FF40041C6F6000001F071F846F00F
S3150200091001E040F2000040F20001C2F20000C2F221
S31502000920002144F8045B41F8045B40F8045B01359E
S315020009300FF009C841F204054EF6FC58CEF2000546
S31502000940CEF20008002040F6E84645F8040CC2F252
S315020009500426D8F800104FF4004E41F08071C8F812
S315020009600010286055F8041C41F0010145F8041CEA
S31502000970286040F674512868306040F20000C6F6DE
S315020009800200C2F2042151F8042B40F8042B0FF0A6
S3150200099007C040F6EC4B40F6F44AC2F2042B286834
S315020009A0C2F2042ACBF80000DBF800003168401AD4
S315020009B0CAF80000DAF8000030B941F60751002003
S315020009C0C0F20021FFF756FF44F6D351DAF80000D1
S315020009D0C1F2620140F6F049A0FB0101C2F204290C
S315020009E000248809C9F80000D9F800004FF4003144
S315020009F0B1FBF0F241F66C210020C0F20021FFF7B4
S31502000A0039FFD9F80000002800F0658141F67831F7
S31502000A100020C0F20021FFF72DFF0A204FF47A7161
S31502000A2000F0B8FC41F637410020C0F20021FFF782
S31502000A3021FF45F8044C4FF4004ED8F8000040F66A
S31502000A40745140F08070C8F800002C60C2F2042194
S31502000A5055F8040C40F0010045F8040C2C60286897
S31502000A60306040F20000C6F6000051F8042B40F850
S31502000A70042B0FF007C02868CBF80000DBF8000053
S31502000A803168401ACAF80000DAF8000030B941F6B7
S31502000A9007510020C0F20021FFF7ECFE44F6D351C5
S31502000AA0DAF80000C1F262014FF00008A0FB010172
S31502000AB08809C9F80000D9F800004FF40031B1FBEB
S31502000AC0F0F241F6E2210020C0F20021FFF7D2FE49
S31502000AD0D9F80000002800F0FF8041F643510020BB
S31502000AE0C0F20021FFF7C6FE0A204FF47A7100F029
S31502000AF051FC41F62B240020C0F200242146FFF7C8
S31502000B00B9FE00202146FFF7B5FE00202146FFF779
S31502000B10B1FE41F61B510020C0F20021FFF7AAFEEA
S31502000B2041F699210020C0F20021FFF7A3FE4EF6FE
S31502000B30FC5145F8048CCEF200014FF4004E0868D1
S31502000B4040F080700860C5F8008040F2000155F858
S31502000B50040CC6F6020140F0010045F8040CC5F883
S31502000B60008040F6E848C2F204282868C8F8000067
S31502000B7040F20000C2F2022051F8042B40F8042B86
S31502000B800FF007C02868CBF80000DBF80000D8F8A1
S31502000B900010401ACAF80000DAF8000030B941F62F
S31502000BA007510020C0F20021FFF764FE44F6D3513C
S31502000BB0DAF80000C1F262010024A0FB01018809F3
S31502000BC0C9F80000D9F800004FF40031B1FBF0F289
S31502000BD041F6B3310020C0F20021FFF74BFED9F8EF
S31502000BE000004EF6FC560028CEF2000675D041F6FD
S31502000BF081410020C0F20021FFF73CFE0A204FF49B
S31502000C007A7100F0C7FB41F613310020C0F20021D1
S31502000C10FFF730FE45F8044C4FF4004E306840F2C0
S31502000C20000140F0807030602C60C6F6000155F875
S31502000C30040C40F0010045F8040C2C602868C8F842
S31502000C40000040F67450C2F2062051F8042B40F818
S31502000C50042B0FF007C02868CBF80000DBF8000071
S31502000C60D8F80010401ACAF80000DAF8000030B9C5
S31502000C7041F607510020C0F20021FFF7FBFD44F6C2
S31502000C80D351DAF80000C1F26201A0FB0101880922
S31502000C90C9F80000D9F800004FF40031B1FBF0F2B8
S31502000CA041F6DF310020C0F20021FFF7E3FDD9F85B
S31502000CB0000098B141F6C1410020C0F20021FFF7C1
S31502000CC0D9FD0A204FF47A7101B0BDE8000FBDE8E4
S31502000CD0F04000F05FBBFEE7FEE7FEE7FEE780B509
S31502000CE06F4641F659310020C0F20021FFF7C2FDDE
S31502000CF0BDE88040FFF7CFBD022818BF704780B518
S31502000D006F4640F6F84041F67471C2F20420C0F212
S31502000D10002100F00BF80120BDE8804000F006BC7F
S31502000D2080B56F46FFF7DBFF002080BD80B56F46BA
S31502000D3045F25422C5F24F020260084600F002F85C
S31502000D40002080BDF0B503AF4DF804BD044600F0A7
S31502000D5060F840F6545CEFF31081C2F2042C0120D5
S31502000D6080F31088DCF8000038B940F614500022EF
S31502000D70C4F24000027040220270DCF8000001302A
S31502000D80CCF8000081F31088208828B340F6000EC4
S31502000D900021C4F2400E07E00EEB8010013140F84C
S31502000DA022302088814217D2606800EBC10250F8D7
S31502000DB031309288D8034FEA1220D2B2ECD50EEB2C
S31502000DC0801555F8226026F4803645F8226023F411
S31502000DD0803645F82260DFE70120EFF3108180F3C9
S31502000DE01088DCF8000020B1DCF800000138CCF8ED
S31502000DF00000DCF8000038B940F614500022C4F2B4
S31502000E00400002708022027081F310885DF804BBF4
S31502000E10F0BDF0B503AF2DE9000F81B0044600889E
S31502000E20002861D04EF64C4B0025C4F2010B03E0BC
S31502000E3020880135854257D241F6807942F2400830
S31502000E400026C0F20029C4F220080AE088F8000051
S31502000E50C820012100F09EFA013608F10208032E8D
S31502000E60E6D0606839F8022B00EBC5018988914209
S31502000E70F2D150F835009BF80010012200F0B8506C
S31502000E8002FA06FAB0F1807F0AEA010015D158B9D2
S31502000E90012000F024FB9BF8000040EA0A008BF8D0
S31502000EA00000012000F0F1FA98F900000028D3D4DE
S31502000EB098F8000040F08000C8E758B1012000F021
S31502000EC00EFB9BF8000020EA0A008BF800000120C6
S31502000ED000F0DBFA98F90000B0F1FF3FBCDC98F8AD
S31502000EE0000000F07F00B1E701B0BDE8000FF0BDE1
S31502000EF04EF22401C4F201018878098801F00F023A
S31502000F00A2F1080103293BD8DFE801F0022C101EEA
S31502000F1040F20041C2F2042151F820004AF6AB2108
S31502000F20CAF6AA21A0FB0101480830E040F20041BE
S31502000F30C2F2042151F820004AF6AB21CAF6AA21D0
S31502000F40A0FB0101C80822E040F20041C2F20421DE
S31502000F5051F820004AF6AB21CAF6AA21A0FB0101EC
S31502000F60080914E040F20041C2F2042151F82000BF
S31502000F704AF6AB21CAF6AA21A0FB0101880806E0BF
S31502000F8040F20041C2F2042151F82000D04040F65E
S31502000F906451C2F2042108607047D4D4D4D4D4D4A4
S31502000FA0F0B503AF2DE9000F81B0D5A04EF2FA38A5
S31502000FB04AF20151C4F20108CFF6FF7140F2004B2A
S31502000FC0023190ED001FC2F2042B4CF60020A8F865
S31502000FD00010C3F69A304FF400414EF22405CBE9D5
S31502000FE0041044F2553048F20041C4F201058BED7B
S31502000FF0001FC1F2DE30C1F2D771CBE90701A87832
S31502001000298801F00F02A2F1080103292BD8DFE893
S3150200101001F002200C164AF6AB215BF82000CAF654
S31502001020AA21A0FB0101480820E04AF6AB215BF8A1
S315020010302000CAF6AA21A0FB0101C80816E04AF65A
S31502001040AB215BF82000CAF6AA21A0FB0101080920
S315020010500CE04AF6AB215BF82000CAF6AA21A0FBF7
S315020010600101880802E05BF82000D04040F6645A8D
S315020010704EF60044C2F2042AC4F201040A214EF6D4
S315020010800146CAF800004FF65060CFF6FF70C4F270
S3150200109001062154092085F87E00207818B9307897
S315020010A0800700F02881207840B901202070C820EE
S315020010B0012100F06FF920780128FCD10020307060
S315020010C020704AF201590020A873287E0007FCD539
S315020010D04FF602114EF61450C5F8881040F25141EF
S315020010E02985CEF20000BFF34F8FBFF36F8F0268E0
S315020010F04EF2000122F4003202600022C0F83C22C5
S31502001100CEF20101BFF34F8FBFF36F8F0A6822F44D
S3150200111040520A60BFF34F8FBFF36F8F15F8102C42
S3150200112002F0F802013205F8102C15F8102CD2063E
S31502001130FBD40A6842F440520A60BFF34F8FBFF3F2
S315020011406F8F0168890312D4BFF34F8FBFF36F8F7E
S315020011500021C0F83C12BFF34F8FBFF36F8F0168B7
S3150200116041F400310160BFF34F8FBFF36F8F002050
S31502001170A871287E8006FCD54CF200040020C4F239
S31502001180130420702078207820786068FA2806D028
S31502001190FA20C1F6006060606168FA29FBD1A06896
S315020011A07D2806D07D20CEF20010A060A1687D29A0
S315020011B0FBD143F23240C3F2232045F8040C42F23B
S315020011C0201028800520A870A878298801F00F022F
S315020011D0A2F1080103292BD8DFE801F002200C1640
S315020011E04AF6AB215BF82000CAF6AA21A0FB010150
S315020011F0480820E04AF6AB215BF82000CAF6AA218D
S31502001200A0FB0101C80816E04AF6AB215BF82000F4
S31502001210CAF6AA21A0FB010108090CE04AF6AB2195
S315020012205BF82000CAF6AA21A0FB0101880802E0A9
S315020012305BF82000D040CAF800001E2001210126DA
S3150200124000F0A8F860686FF39F20652828BF267013
S31502001250A878298801F00F02A2F1080103292BD8E8
S31502001260DFE801F002200C164AF6AB215BF82000FB
S31502001270CAF6AA21A0FB0101480820E04AF6AB21E2
S315020012805BF82000CAF6AA21A0FB0101C80816E0F5
S315020012904AF6AB215BF82000CAF6AA21A0FB01019F
S315020012A008090CE04AF6AB215BF82000CAF6AA212F
S315020012B0A0FB0101880802E05BF82000D04042F260
S315020012C00001CAF80000C4F2000101204FF42542D1
S315020012D0A1F80090BFF35F8F0872BFF35F8F0A8099
S315020012E0287385F82E0085F82F00A8F8002001B093
S315020012F0BDE8000FF0BD4FF47A7000F009F8E0E6A1
S31502001300006CDC0200127A000080000000366E01DA
S315020013107047B0B502AF42F22404C820C4F22004DA
S3150200132001210025257100F035F82570207808B1D5
S315020013302FF005C0207840F0020020702078800748
S31502001340FCD4002004F8020C14F8020C08B12FF0A9
S3150200135005C84FF0030E002004F11C0111F81020FD
S3150200136002F07F0201F8102011F91020002AFBD4A6
S3150200137001300FF00DC8012000F0B1F84EF64C41D5
S315020013800120C4F2010100220A70BDE8B04000F05B
S315020013907CB8704740F6645241F20023C2F204223E
S315020013A0C0F27A03484312689A420FD344F23F21AD
S315020013B0C0F20F0111444DF68362C4F21B32A1FB47
S315020013C00212910CA0FB0101C9B11DE04CF60021ED
S315020013D0C3F69A31B1FBF2F148F63812C0F2410275
S315020013E0904205D24FF47A725043B0FBF1F006E018
S315020013F0B0FBF1F0904207D24FF47A7148430028CD
S3150200140008BF704700F004B84FF0FF3000F000B894
S3150200141001380028FCD17047F0B503AF4DF8048DB2
S315020014204CF2201840F60054C4F200080026C2F21C
S31502001430042458F8200CD8F8001001EA000503E04D
S3150200144001360434152E09D025FA06F0C007F7D066
S3150200145021680029F4D0F0B28847F1E748F8105C19
S31502001460D8F800002842FBD15DF8048BF0BD42F2A9
S31502001470D410C0F200200088002808BF70474CF242
S315020014800031C4F20001086070470122EFF31081B7
S3150200149082F3108840F65852C2F2042232F8103013
S315020014A023B132F81030013B22F8103032F8102006
S315020014B012B181F3108870474EF2FA3242F2D61C0C
S315020014C0C4F20102C0F2002C13883CF8100043F467
S315020014D0254323EA0000108081F310887047D0B5B7
S315020014E002AF0122EFF3108182F3108840F65852C0
S315020014F0C2F2042232F8103083B94EF2FA3E42F2B8
S31502001500D61CC4F2010EC0F2002CBEF800403CF814
S315020015101030234343F42543AEF8003032F810303E
S31502001520013322F8103081F31088D0BDF0B503AF35
S315020015304DF804BD43F650450446C4F2000528782A
S3150200154008B12FF005C0872025F82C0C4FF01000AB
S3150200155005F8500C84B10020FFF7C1FF4EF253008C
S315020015600126C4F2010006700020FFF78EFF05F87F
S31502001570306C28780007FCD4012005F84E0C0020B8
S3150200158005F84F0C287808B12FF005C042F2035037
S31502001590C0F20500BCB14FF40C7125F8081C29787D
S315020015A0C907FCD145F80C0C012005F8100C47F2CE
S315020015B0A83125F83C1C05F83A0C112005F8500C08
S315020015C05DF804BBF0BD45F80C0C012005F8100CC3
S315020015D047F2A83125F83C1C05F83A0C15F8500CD0
S315020015E0C007FBD1287808B12FF009C0012005F801
S315020015F0400C5DF804BBF0BD80B56F4600F008F8FC
S31502001600FFF78EFBFEE700BE7047D4D4D4D4D4D401
S31502001610F0B503AF2DE9000F81B04EF6145540F236
S315020016200120CEF20005C0F20E004EF20004286040
S31502001630CEF20104BFF34F8FBFF36F8F55F8140C30
S31502001640C0F3035110F00F0F5FEA0F9001295FEA12
S315020016501081206810D879B940F0040020604EF25B
S315020016600800BFF34F8FCEF20000BFF36F8F016801
S3150200167041F48031016002E020F004002060BFF3F3
S315020016804F8FBFF36F8F4FF4700040F2000168670F
S315020016900020C0F2002145F80C1CFFF72DFBFFF7D6
S315020016A07FFC0120FFF728FB40F20000C2F2042073
S315020016B080F30A882068800722D555F80C0CB0F111
S315020016C0007F1DD120694FF40071C0F3C300626927
S315020016D001FA00F3C2F3C30081400020DA0806468D
S315020016E0CB08014642F005C0E6E802010FF005C04C
S315020016F04FF0005243F005C0E2E802010FF005C0C8
S3150200170041F6A878C0F20028D8F800A0BAF1000F76
S3150200171011D0D8F804005646041D03E0013E04F138
S315020017200C0408D060790028F8D154E90101091A9D
S3150200173000F05EF9F2E7D8F80890B9F1000F13D07D
S31502001740D8F80C004C4600F1080603E0013C06F10D
S31502001750100609D070790028F8D156E902023168DC
S31502001760121A00F049F9F1E7FFF7C2FBFFF7D1FDC4
S315020017700320FFF7B4FE4FF00E0E40F63050C4F2CF
S315020017804000002120F8041B0FF005C00320FFF7DC
S315020017907CFE0320FFF7A3FE44F204000021C4F2FC
S315020017A02000016041608160C1600320FFF76DFE89
S315020017B0D8F810B0D5F8AC104422BBF1000F62F392
S315020017C00701C5F8AC1024D0D8F8141000244FF045
S315020017D0200E4FF0010C002603E00136F4B2A345B9
S315020017E017D901EBC40251F83430526822F01F02B5
S315020017F0203A0EEB5210B0EB531FEED942F0010025
S315020018006CF30403C5F88440C5F88830C5F88C002B
S31502001810E3E7BFF35F8F0520C5F88000286940F42F
S3150200182080302861BFF34F8FBFF36F8F2868C003E4
S3150200183029D400202867BFF34F8FE96E43F6E07381
S31502001840C1F34E30CA08C1F3C9014E1C91074201C9
S3150200185002EA030446F001E00C44C5F84C4204F1E6
S3150200186040440FF007C00028A0F10100A2F12002B7
S31502001870EED1BFF34F8F286840F480302860BFF363
S315020018804F8FBFF36F8F4EF21016C4F20106D6F8D1
S31502001890C80210B1D6F8C80211E0307878B101203A
S315020018A0FFF71DFE307800F0C0008028FAD1002034
S315020018B0307030783F28FCD80120FFF7E6FD012082
S315020018C0FFF70DFE307900F0C0008028FAD1002023
S315020018D0307130793F28FCD80120FFF7D6FD02206F
S315020018E0FFF70AFABAF1000F14D0D8F804004FF441
S315020018F08076041D04E0BAF1010A04F10C0409D051
S315020019006079B6EB002FF6D154E90101091A00F00D
S315020019106FF8F0E7B9F1000F16D0D8F80C004FF4C3
S31502001920807600F1080404E0B9F1010904F110041B
S315020019300AD06079B6EB002FF6D154E9020221688B
S31502001940121A00F059F8EFE740F67454C2F208246E
S31502001950204600F02DF8204600F040F8BFF34F8FE6
S31502001960002042F22E21BFF36F8FC5F83C0242F2ED
S315020019702E20C0F20020C0F20021BFF34F8F081ABA
S31502001980BFF36F8F8410012C08DB42F22E25C0F2C2
S31502001990002555F8040B8047013CFAD1FFF767FD95
S315020019A0002001B0BDE8000FBDE8F040FFF7F1BC32
S315020019B0D0B502AF05490446054A00F01DF80548B0
S315020019C00549204400F014F8D0BD00BF58000002BB
S315020019D00000000000000000000000000249401A5A
S315020019E002490860704700BF08000000700D04221B
S315020019F00A46002100F00AB8D0B502AF00239A4287
S31502001A0003D0CC5CC4540133F9E7D0BD00239A421B
S31502001A1008BF7047C1540133F9E700000000000017
S31502001A205454522052454747455300232323232328
S31502001A30232323232323232323232323232323236E
S31502001A40232323232323232323232323232323235E
S31502001A50232323232323232323232323232323234E
S31502001A602323232323232323230D0A007372616D69
S31502001A7020636163686520736472616D20636163CC
S31502001A8068652077726974652073706565643A25A6
S31502001A90644D422F73200D0A002A2A2A2A2A2A2A4C
S31502001AA02A2A2A5352414D20636163686561626C3A
S31502001AB06520534452414D20636163686561626CDF
S31502001AC065207265616420537461727421202A2A2A
S31502001AD02A2A2A2A2A2A2A2A0D0A00284E554C4C34
S31502001AE029007372616D2063616368652073647295
S31502001AF0616D206E6F6E206361636865207772691F
S31502001B0074652073706565643A25644D422F7320AF
S31502001B100D0A002A2A2A2A2A2A2A2A2A2A5352411C
S31502001B204D20636163686561626C6520534452416E
S31502001B304D206E6F6E20636163686561626C65201D
S31502001B407265616420537461727421202A2A2A2ADA
S31502001B502A2A2A2A2A2A0D0A00534452414D207261
S31502001B606561642F77726974652074657374207376
S31502001B7074617274210D0A002A2A2A2A2A2A2A2A1A
S31502001B802A2A5352414D20636163686561626C651E
S31502001B9020534452414D20636163686561626C65FE
S31502001BA020456E6421202A2A2A2A2A2A2A2A2A2A11
S31502001BB00D0A007372616D20636163686520736448
S31502001BC072616D206361636865207265616420736A
S31502001BD0706565643A25644D422F73200D0A0073C1
S31502001BE072616D20636163686520736472616D2042
S31502001BF06E6F6E206361636865207265616420732F
S31502001C00706565643A25644D422F73200D0A002AD9
S31502001C102A2A2A2A2A2A2A2A2A20577269746520F7
S31502001C20746F20534452414D21202A2A2A2A2A2AF5
S31502001C302A2A2A2A0D0A002A2A2A2A2A2A2A2A2A63
S31502001C402A5352414D20636163686561626C652067
S31502001C50534452414D204E6F6E2063616368656145
S31502001C60626C6520537461727421202A2A2A2A2AF8
S31502001C702A2A2A2A2A0D0A005465726D696E616C37
S31502001C80002A2A2A2A2A2A2A2A2A2A5352414D2055
S31502001C90636163686561626C6520534452414D20FD
S31502001CA0636163686561626C652072656164204583
S31502001CB06E6421202A2A2A2A2A2A2A2A2A2A0D0A4E
S31502001CC0002A2A2A2A2A2A2A2A2A2A5352414D2015
S31502001CD0636163686561626C6520534452414D20BD
S31502001CE06E6F6E20636163686561626C6520726502
S31502001CF0616420456E64212020202A2A2A2A2A2A63
S31502001D002A2A2A2A0D0A0044575420636F756E74D4
S31502001D10206572726F7221200D0A002A2A2A2A2A47
S31502001D202A2A2A2A2A526561642066726F6D205316
S31502001D304452414D21202A2A2A2A2A2A2A2A2A2A92
S31502001D400D0A002A2A2A2A2A2A2A2A2A2A535241EA
S31502001D504D20636163686561626C6520534452413C
S31502001D604D204E6F6E20636163686561626C65200B
S31502001D70456E64212020202A2A2A2A2A2A2A2A2A49
S31502001D802A0D0A003031323334353637383941427A
S31502001D9043444546000C010B0C010000000C010BEC
S31502001DA00D010000000C010B0E010000000C010BDE
S31502001DB00F010000000001000802000000000100FF
S31502001DC009020000000001000A02000000000100F2
S31502001DD00B020000000C010B00030000000C010BBB
S31502001DE001030000000C010B02030000000C010BB2
S31502001DF003050000000C010B04050000000C010B9A
S31502001E0005050000000C010B06050000000C010B85
S31502001E1007050000000C010B08050000000C010B71
S31502001E2009050000000C010B0A050000000C010B5D
S31502001E3007060000000C010B08060000000C010B4F
S31502001E4009060000000C010B0A060000000C010B3B
S31502001E500B060000000C010B0C060000000C010B27
S31502001E600D060000000C010B0E060000000C010B13
S31502001E700F060000000C010B0D080000000C010B00
S31502001E80000A0000000C010B010A0000000C010B05
S31502001E90020A0000000C010B030A0000000C010BF1
S31502001EA0040A0000000C010B050A0000000C010BDD
S31502001EB0060A0000000C010B080A0000000C010BC8
S31502001EC0090A0000000C010B0A0A0000000C010BB3
S31502001ED00B0A0000000C010B0C0A0000000C010B9F
S31502001EE00D0A0000000C010B0E0A0000000C010B8B
S31502001EF00F0A0000000C010B000C0000000C010B85
S31502001F00010C0000000C010B020C0000000C010B7E
S31502001F10030C0000000C010B040C0000000C010B6A
S31502001F20050C0000000C010B060C0000000C010B56
S31502001F30070C0000000C010B080C0000000C010B42
S31502001F40090C0000000C010B0A0C0000000C010B2E
S31502001F500B0C0000000C010B0C0C0000000C010B1A
S31502001F600D0C0000000C010B0E0C0000000C010B06
S31502001F70000D00003C000000941D0002000000005D
S31502001F80020403040404D4D40000006800000068BC
S31502001F900000008000000080000000700000007059
S31502001FA000000022000000220B000000C01F0002F9
S31502001FB0190000004420000204000000881F0002ED
S31502001FC000000068000000680001000D00000268C1
S31502001FD0000002680001000D000000800000008081
S31502001FE000010008000000800000008000010008D7
S31502001FF000000070000000700001000A000000707E
S31502002000000000700001000A00000000000000004D
S31502002010010000050000002000000020010000046D
S315020020200000002200000022000000033004042207
S31502002030740D042200000003740D0822740D082298
S315020020400000000300000068000000680000009025
S315020020500001090D00000068000000680000007819
S3150200206000010B0D00000068000000680000002758
S315020020700001020D0000006800000068580000021E
S315020020800001010D000000800000008000000090A9
S3150200209000010908000000800000008000000078AE
S315020020A000010B08000000800000008000000027ED
S315020020B000010208000000800000008058000002B3
S315020020C0000101080000007000000070000000908E
S315020020D00001090A0000007000000070000000788C
S315020020E000010B0A000000700000007000000027CB
S315020020F00001020A00000070000000705800000291
S315020021000001010A0000000000000000000000902B
S31502002110010109050000000000000000000000782F
S3150200212001010B050000000000000000000000276E
S315020021300100020500000000000000005800000235
S3150200214001000105000000200000002000000090B0
S3150200215001010904000000200000002000000078B0
S3150200216001010B04000000200000002000000027EF
S3150200217001000204000000200000002058000002B6
S31502002180010001040000002200000022000000906D
S31502002190000109030000002200000022000000786E
S315020021A000010B03000000220000002200000027AD
S315020021B00000020300000022000000225800000274
S315020021C000000103740D0822740D08225800000253
S315020021D000000103000001000200080010002000B8
S315020021E000000106362E312E30004275696C7420CD
S315020021F0776974682052656E6573617320416476EF
S31502002200616E63656420466C657869626C6520530D
S315020022106F667477617265205061636B61676520D2
S3130200222076657273696F6E20362E312E30008F
S30902C9F040FFFFFFFFFF
S30902C9F044EFFFFFFF0B
S30902C9F0C0FFFFFFFD81
S30902C9F0C4FFFFFFFF7B
S30902C9F120000000001A
S30902C9F1240000000016
S705020015F9EA
