:020000040200F8
:100000002004002237410002493F0002454100021E
:1000100045410002454100024541000245410002C0
:100020000000000000000000000000004541000248
:100030004541000200000000454100024541000228
:10004000993600021D370002F918000273190002E8
:10005000ED190002ED1A0002751B0002EF1B0002F1
:10006000B1290002932200027D240002C72500026C
:08007000D3260002172D000247
:100078001000000000000000017A5200017C0E010F
:080088001B0C0D00000000003C
:1000900000F8E0071F00FFFFD7E6E7CEC0E5CFD1AD
:0A00A000FC677FCEA0FE18C6010128
:1000B000F0B503AF2DE9000F83B000EB400040F234
:1000C0005043C2F20023154603EBC0088946D8F816
:1000D0002C0002281AD001280CD048B9444654F804
:1000E000246F6068F143B04275D90844A84279D2C0
:1000F00000269BE0C2465AF8244FDAF80410A142C9
:100100003FD9E0430144D8F820003FE058F824AF3D
:1001100008F10400A8F1040B00260290A8F10800E1
:10012000019024E0DBF8001010440844A1EB0A0120
:10013000884250EA31804946A84250EA3584019805
:1001400022460068504404F087F904EB0A00DBF80B
:100150000010411AA5EB040550EA118A2644A14477
:10016000002DBFF35F8F4046C8F800A05ED0029814
:100170006FEA0A0200685045D4D91044DBF8001039
:10018000D4E7E243D8F8200011440144A94251EADF
:100190003586051B58F81C0F2044AE4209D249464B
:1001A000324604F059F9BFF35F8F3019CAF80000E6
:1001B0003CE049462A46444604F04EF9A6EB0508C1
:1001C000206809EB0501424604F046F9BFF35F8F52
:1001D000CAF800802AE0D8F8202008441044A84239
:1001E000FFF486AF58F81C0FD8F804103044A1EB88
:1001F000060A554508D249462A4604F02DF9BFF3B0
:100200005F8F7019206010E049465246464604F060
:1002100023F9A5EB0A08306809EB0A01424604F00D
:100220001BF9BFF35F8FC4F800802E46304603B041
:10023000BDE8000FF0BDF0B503AF4DF8048D40F2FE
:1002400050450C46C2F200252B78532B38D08046FF
:10025000A8212846164604F0FBF8032028616861AF
:1002600040F2F84044F69911C2F20020C0F2002199
:10027000A961E8614FF4006028620020A86268620A
:10028000E862296640F6F8414FF0100EC2F20021F4
:100290006966C5F868E02867E8666867BFF35F8F3E
:1002A00044F27A41C0F2002180F00F0201308A5CF2
:1002B00005F8012B0FF009C032464046BFF35F8FAF
:1002C000EFF311854FF0200181F311882146FFF7EC
:1002D000EFFE85F311885DF8048BF0BDF0B503AF38
:1002E0002DE9000F9BB090460C4606A94FF0000B7D
:1002F00004901A900020169140211791CDE918BB67
:100300000EE0011DC8F800100168CDE9003916A8FB
:10031000534600F027FA1998B0F1FF3F40F31E82D0
:1003200014F8011B25291CD0002900F00982DDE901
:100330001720431C934207D8169A11541893199802
:10034000179A0130199018469042E4D116991A98DC
:10035000FFF771FF1899884240F0EF81CDF860B047
:10036000D9E74FF000092178A1F123030D2B13D811
:100370000222DFE803F00B111111111111110D11FF
:100380000F11110749EA02090134ECE70822F9E7E5
:100390000422F7E70122F5E7A1F13A02002312F166
:1003A0000A0F0ED30A4614F8011F03EB8303A1F1D1
:1003B0003A0602EB430216F10B0FA2F130030A4694
:1003C000F1D82E290ED1224612F8015F2A2D0DD127
:1003D000D8F8001002340A1DC8F80020D1F800A097
:1003E00001211EE000214FF0000A1AE0A5F13A06B3
:1003F00016F10A0F03D200214FF0000A10E04FF06F
:10040000000A12F8011F0AEB8A06A1F13A0405EB73
:10041000460614F10B0FA6F1300A0D46F1D8012162
:10042000144614F8012B02F0FB06682EF9D0A2F155
:100430005806202E26D8DFE806F0121111111111EE
:100440001111111111163C1111111111111111116C
:1004500011117111117E1138111112005BE7D8F8DA
:10046000000010224DE7DDE91720411CD8F80030CC
:10047000914203F10406C8F800603FF665AF169A92
:100480001B680AE0252A7FF446AFDDE91720411CEE
:1004900091423FF659AF169A252313541891199893
:1004A000179A0130199008464EE7D8F800000A2242
:1004B00027E7D8F800104CF6CD4C0A1DC8F80020EC
:1004C000D1F800E0CCF6CC4CBEF1000FCEF100012B
:1004D000724648BF0A4603910A2A4FF0010107DB22
:1004E000A2FB0C56632A01F101014FEAD602F7D8AC
:1004F000514551EA8A8C0026002BCDF814E056D0E5
:10050000BEF1000F5FEA5F9109F0040241EA920137
:10051000A3EB010B5FEA89754ED475E0D8F80000B3
:100520001022011DC8F80010016808200823CDE939
:10053000000B16A8EDE6D8F80020131DC8F800300F
:10054000126844F60813002AC0F2002352EA138509
:100550005FEA018908E01998CDF860B0B0F1FF3F7B
:10056000AAF1010A7FF7D7AE15F8011BBAF1000F07
:100570005FEA198200293FF4CEAE002A7FF4CBAEA9
:10058000DDE917235E1C964207D81698C1543346FE
:100590001998179A0130189619909342DED116993E
:1005A0001A98FFF748FE18998842D4D0C5E04FF05A
:1005B000000B5FEA897527D5BAF1000F24D1002816
:1005C00000F1B8800599B1F1FF3F4FDD5FEA497155
:1005D00074D5DDE917214B1C934208D816982B22BD
:1005E000425419461998179A01301893199091425C
:1005F0005BD116991A9802956546FFF71CFE18996B
:10060000884205994CD098E05FEAC971D7D1BBF117
:10061000000FD4D0029504E000260028AB4600F17C
:100620008980ABF101055D4538BFDC4540D2DDE98D
:1006300017214B1C934208D8169820224254194681
:100640001998179A0130189319904FF0000B9142A6
:10065000E2D116991A986646FFF7EDFD189988427F
:100660006BD11998B446CDF860B0D5E7DDE9172114
:100670004B1C934208D816982D22425419461998BB
:10068000179A013018931990914213D116991A981C
:1006900002956546FFF7CFFD1899884203994CD122
:1006A0001998AC46029D18960591002806D541E0A0
:1006B000029D84E70399059100283BD4002D0AD4BC
:1006C0000A2216A805995346CDE900B900F04AF868
:1006D0004FF0000B1FE609F0010151EA0A01EFD1CA
:1006E000BBF1000FECD0ABF101055D4538BFDC4537
:1006F000E6D2DDE917214B1C934208D81698302228
:10070000425419461998179A0130189319904FF0CE
:10071000000B91420BD116991A986646FFF78BFD94
:100720001899884209D11998B446CDF860B00028CC
:10073000AB46D8D54FF0000BEDE54FF0FF300DE0A4
:1007400040B1189A42B106A90498FFF774FDDDE99B
:10075000181002E0002001E0002108441BB0BDE8B1
:10076000000FF0BDF0B503AF2DE9000F81B01546C5
:10077000884691421E460446D7F808A04FF0010073
:1007800005D34146B1FBF5F10130A942FAD2B0429E
:1007900050EA8689BAF1000FF96835D011F00100EE
:1007A00032D188074FF020014FF0200048BF3020A1
:1007B000002E50EA018B03E0E068B0F1FF3F23DD3B
:1007C000BAF1000F20D0D1451ED2D4E90120411C3E
:1007D000914208D8226802F800B0A160E06862681F
:1007E0000130E06008469042AAF1010AE4D1216894
:1007F0002069FFF720FDA168884202D10020A06097
:10080000DAE74FF0FF30E060E06800283ED44FF0B8
:10081000010B02E0013E0BFB05FB022EFAD2B8FBF6
:10082000FBF1A942F7D2A2686168531CB8FBFBF642
:100830008B420CD844F684412068C0F20021895DC7
:1008400081541A46E06861680130A360E0608A4222
:1008500009D121682069FFF7EEFCA26890420CD113
:100860000022E068A26000280AD4BBFBF5F106FB79
:100870001B88AB458B46D7D202E04FF0FF30E060DB
:10088000F968C90718BFBAF1000F03D101B0BDE87C
:10089000000FF0BD2025AAF10106564538BFD1450D
:1008A000F4D26168531C8B4207D8206885541A46DD
:1008B000E06861680130A360E0608A4209D1216884
:1008C0002069FFF7B8FCA168884207D10022E068E0
:1008D000A260B0F1FF3FB246DDDCD7E74FF0FF305A
:1008E000E060D3E782B080B56F4682B0C7E90223EB
:1008F00007F10802019201AAFFF7F0FC02B0BDE87F
:10090000804002B07047002808BF704740F6085189
:100910000079C2F20021087070470121EFF31080C6
:1009200081F3108840F65861C2F200210A683AB992
:1009300040F614520023C4F2400213704023137097
:100940000A6801320A6080F3108800F0D8B90228E2
:1009500018BF704780B56F4640F6785046F2D861B0
:10096000C2F20020C0F2002101F092F90120BDE89E
:10097000804003F07ABB002808BF7047B0B502AFD3
:100980000D4644F6A21144F21A620446C0F2002158
:10099000C0F200220020FFF7A5FF00202946FFF744
:1009A000A1FF40F68050C2F200200068C0B140F6BE
:1009B0008050C2F2002002F05AF988B144F6A21128
:1009C00044F21A62C0F20021C0F200220020FFF7B8
:1009D00089FF44F646410020C0F20021FFF782FF64
:1009E00040F66850C2F200200078C0B140F668506E
:1009F000C2F2002002F022FC88B144F6A21144F2B7
:100A00001A62C0F20021C0F200220020FFF76AFF44
:100A100044F658110020C0F20021FFF763FF40F6B2
:100A20003850C2F200200068C0B140F63850C2F21F
:100A3000002001F099FF88B144F6A21144F21A6235
:100A4000C0F20021C0F200220020FFF74BFF44F269
:100A500048610020C0F20021FFF744FF40F6A0509B
:100A6000C2F20020C068C0B140F6A050C2F200201F
:100A700001F0B3FA88B144F6A21144F21A62C0F24E
:100A80000021C0F200220020FFF72CFF44F60F11D6
:100A90000020C0F20021FFF725FF44F6FC310020C2
:100AA000C0F200212246FFF71DFF00BEB0BD80B599
:100AB0006F4646F2A41040F62A52C0F20020C2F25D
:100AC000002240F628538188C2F200231180C28898
:100AD0001A800368514340F62C52C2F2002280680B
:100AE000106040F63052C2F20022880003EB011180
:100AF000106040F60C50C2F20020036040F6105027
:100B0000C2F20020016040F6805040F61451C2F25B
:100B10000020C2F2002102F061F844F22761C0F225
:100B20000021FFF728FF40F66850C2F2002002F0D3
:100B30002CFC44F6DB31C0F20021FFF71CFF40F62D
:100B40003850C2F2002001F0EDFE44F61B41C0F225
:100B50000021FFF710FF40F6205B40F200084FF045
:100B6000000AC2F2002BC2F200284FF4C8704FF402
:100B70007A7103F0A4F940F6245340F62850C2F2EB
:100B80000023C2F20020196800884A1C172A5AEA7A
:100B9000819CC3F800C0E8B140F62A51C2F200219E
:100BA00000240E88730040F20001C6F6000103E045
:100BB0000134194484420DD0002EF9D038F81C209D
:100BC0000D46A0EE302B16F001E0A5EC881E1FF0BC
:100BD00005C0EDE740F6685040F200010022C2F285
:100BE0000020C6F6000102F0F0FB8BF800A09BF895
:100BF00000000028FBD1B8E746F2A0014068C0F22F
:100C000000210978884218BF704740F62250012120
:100C1000C2F2002001702220C4F24000018881F459
:100C2000806101807047D0B502AF40F678540D2145
:100C3000C2F200240022204601F095F840F20C4157
:100C40000422204601F030F8C820012103F037F9D2
:100C500040F20C410122204601F085F8C820012114
:100C600003F02DF90D210122204601F07CF80A2025
:100C70004FF47A7103F023F940F20C410022204630
:100C800001F071F864204FF47A7103F018F940F222
:100C90000C414FF4A0422046BDE8D04001F004B81A
:100CA0000078032818BF704740F620500121C2F297
:100CB000002001707047017805290CD099B940686F
:100CC000B0F5807F18BF704740F621500121C2F275
:100CD00000200170704740F634514068C2F2002194
:100CE0000A681043086070470079002818BF7047F1
:100CF00040F623500121C2F200200170704780B5F8
:100D00006F4688B003A80024039403F0D2F89DF83E
:100D10000F3044F6BC1144F6E6029DF80D609DF8D4
:100D20000E50C0F20021C0F200220020CDE9005692
:100D3000FFF7D8FD44F297610020C0F20021FFF7D1
:100D4000D1FD44F28B410020C0F20021FFF7CAFD23
:100D500040F6685046F2A411C2F20020C0F2002111
:100D600002F061F844F26C61C0F20021FFF703FE6B
:100D700040F6805046F26821C2F20020C0F2002105
:100D800001F05DFE44F6EA01C0F20021FFF7F3FD39
:100D9000FFF749FF40F6A05046F29021C2F2002032
:100DA000C0F2002101F0CFF844F65F41C0F200210B
:100DB000FFF7E1FD44F6B44540F6215640F65058A1
:100DC00044F6731AC0F20025FE20C2F20026C2F2D9
:100DD00000280DF11009C0F2002A08E005204FF4A8
:100DE0007A7103F06CF8287E0D35FD281BD0297828
:100DF0002A7BFE288DF810408DF811008DF8122006
:100E0000ADF8141005F10101CDE90614E6D0404615
:100E10004946347000F0EDFC5146FFF7ACFD3078E8
:100E20000028FCD0DFE740F6385046F2A001C2F2BD
:100E30000020C0F2002101F027FD44F62F11C0F27E
:100E40000021FFF798FDFFF732FE80B56F46FFF7F0
:100E500064FD002080BDF0B503AF4DF8048D46F66B
:100E6000004391F80CC0C4F234039A6C22F00102E2
:100E700042EA0C024EF2200CC4F2010C9A64DCF837
:100E80000020BCF80440844644EA123E5FEA0E703B
:100E9000C2F3033E04F00F0009D440F69C62C2F294
:100EA0000022126802FA00F020FA0EF01CE000F0B6
:100EB0000704032505FA04F4160B4FF0010808286F
:100EC00038BF08FA00F406F0070040F69C66C2F24C
:100ED000002605FA00F01204356805FB04F258BF3D
:100EE00008FA0EF0B2FBF0F04DF683621E68C4F211
:100EF0001B32A0FB02024FF0FF3000EB9240320A9F
:100F000062F31F201860186940F001001861D86969
:100F1000C007FCD0087B68B1086858600879DA68B7
:100F200060F30402DA60986820F001009860D869E4
:100F3000C005FCD5886802686FF3DF425A624268D8
:100F40009A628268DA62C2681A6302695A63007D33
:100F500044F650129863C4F65052186A40F00100EB
:100F600018620020CCE900215DF8048BF0BD46F644
:100F70000842C4F23402916921F0010191611168C3
:100F800041F0010111609368014623F00100906077
:100F9000002000220A607047F0B503AF2DE9000F72
:100FA00089B043F25042C4F234021268520601D4AE
:100FB0001E2076E20D4640F6E051C2F20021834643
:100FC0000020087040F6E151C2F2002108700120B3
:100FD000CBF80850EFF3108680F3108843F2080036
:100FE000C4F22000016821F480610160006896204D
:100FF000012102F064FF86F310882868D0E900011F
:10100000FFF729FF002840F04C8246F21010C4F28E
:10101000340050F8101C41F4807140F8101C016835
:1010200041F001010160416801F01F011F29FAD15F
:10103000E97A013941F4407140F8101C297B50F8DD
:10104000082C22F0FF02114440F8081C95F82C10DF
:101050002A8D95F82D3095F82E6095F82F4042EAAC
:10106000014195F8302063F3175141EA467141EA96
:10107000847141EAC27101616968D1E900321204E8
:1010800089683FFA82F263F38B0242EA0161C0F899
:10109000041269686FF0FF02C9686FF39F21C0F8FE
:1010A0000812E969C0F80011296AC0F80411696AD8
:1010B000C0F808112969C0F8D0116969C0F8D411C5
:1010C000A969C0F8D811016841F480310160E97A5A
:1010D00002EB4121426802F403428A42FAD10168DC
:1010E00021F480310160016821F001010160416853
:1010F000C906FCD1A96E40F21016C7F609564EF289
:10110000001CCA68C0F8F8200A69C0F8F8214A69CA
:10111000C0F818228A69C0F8082346F2D452CB6975
:10112000C4F23402CEF2000C4EF618585360CEF2E0
:1011300000080B6A5364166016640B220CF54076A7
:10114000C0F2D002C0F804234EF20752C5F2F77283
:10115000C0F8F420002291F9013091F800E0CBF8BA
:101160001420D5E9182903F00F0406EB030ACBF885
:101170000C204FEA0E12043C0096002B48BF04EBF3
:10118000080ACBF810908AF8002040F65C624CF216
:10119000003EC2F20022C4F2000E5C094EF6185A5C
:1011A00042F823B001225EF82360CEF2000A26F452
:1011B00080364EF823605EF8236066460CF5C07CEE
:1011C00003F01F03BFF35F8F02FA03F34CF82430E0
:1011D00046F82430012691F9033091F80280009AF4
:1011E00003F00F0402EB0309043C002B48BF04EB9F
:1011F0000A094FEA081489F8004040F65C64C2F21C
:10120000002444F823B05EF8234024F480344EF8E0
:1012100023405EF823405C0903F01F0306FA03F342
:101220004EF20016CEF20006BFF35F8F4CF824306A
:1012300046F8243091F9053091F8048003F00F044A
:10124000002BA4F1040902EB030448BF09EB0A04D4
:1012500040F65C6A4FEA0816C2F2002A26700126A0
:1012600091464AF823B05EF8234024F480344EF8C7
:1012700023405EF823405C0903F01F0306FA03F3E2
:101280004EF20016CEF20006BFF35F8F4CF824300A
:1012900046F8243091F9073091F8068003F00F04E6
:1012A000D618043C4EF61852002BCEF2000248BF6E
:1012B000A6184FEA081434704AF823B001225EF8E9
:1012C000234024F480344EF823405EF823405C0928
:1012D00003F01F0302FA03F34EF20012CEF20002F3
:1012E000BFF35F8F4CF8243042F824304EF618528A
:1012F00091F9093091F80880CEF2000203F00F0452
:1013000009EB0306043C002B48BFA6184FEA08145B
:1013100034704AF823B04EF200185EF823400122E0
:1013200024F480344EF823405EF823405C0903F037
:101330001F03CEF2000802FA03F3BFF35F8F4CF8ED
:1013400024304EF6185248F82430CEF2000291F9BB
:101350000B30897A03F00F0409EB0306043C002BE1
:1013600048BFA618090131704AF823B003F01F02E4
:101370005EF82310012621F480314EF823105EF828
:101380002310590906FA02F2BFF35F8F4CF82120AF
:1013900040F6E05348F8212044F64411C4F6505179
:1013A000CBF80010C2F20023DBF8081050F8102C24
:1013B00042F4807240F8102C1E704A7B002A4FF0D5
:1013C000030208BF012240F80C2C497BD0F8102200
:1013D000C2F380628A421CBF1A78022AF6D1022127
:1013E000197095F8311095F8332095F832300026B1
:1013F000C90302F0030263F31541C7F6FF7641EA21
:101400008251C0F8101395F83820696BEB6B6FF3BD
:101410001F3106EA034341EAC2311943C0F81813E9
:10142000D5E910126FF35F3162F31C41C0F81C1351
:1014300095F84C102A6DAB6C06EA02426FF31F332D
:1014400043EAC1311143C0F82013D5E915126FF3F7
:101450005F3162F31C41C0F82413E96D43F6FC725E
:1014600002EA8101C0F8F412DBE9041006228DF8CB
:101470000420049150B10DF1140C90E84E008CE85A
:101480004E0001AE4ECE80E84E0000E001A8DBF831
:101490000C108847DBF8140010B105AE4ECE4EC0DC
:1014A000002009B0BDE8000FF0BDF0B503AF2DE995
:1014B000000B46F210418046C4F234010A6852071C
:1014C00014D551F8100C40F0020041F8100C40F611
:1014D000E150C2F200200A68920703D402780AB1F0
:1014E0002FF007C800220270086848604FF6F440E9
:1014F000D8F80820CFF6FF700B5823F001030B50EB
:1015000040F6E0500323C2F200200370527B51F8F2
:10151000F03CC3F3C06393421CBF0378002BF6D1A9
:1015200000250570D8F808C04FF00109DCF86810F4
:1015300091F9012002F01F0354094EF2801209FABA
:1015400003F3CEF2000242F8243040F65C63BFF3AE
:101550004F8FBFF36F8F91F9030091F90140C2F2F1
:101560000023460900F01F0043F8245009FA00F058
:1015700042F82600BFF34F8FBFF36F8F91F903003E
:1015800091F90560740943F8205006F01F0009FA2C
:1015900000F042F82400BFF34F8FBFF36F8F91F933
:1015A000050091F90760740943F8205006F01F0008
:1015B00009FA00F042F82400BFF34F8FBFF36F8F9A
:1015C00091F9070091F90960740943F8205006F079
:1015D0001F0009FA00F042F82400BFF34F8FBFF359
:1015E0006F8F91F9090091F90B60740943F820504D
:1015F00006F01F0009FA00F042F82400BFF34F8FF5
:10160000BFF36F8F91F90B0043F82050DCF8000016
:101610000068FFF7ACFC43F20800C8F80050C4F2C1
:101620002000EFF3108489F31088016841F4806191
:10163000016000689620012102F041FC84F31088CB
:101640000020BDE8000BF0BDD0B502AF88B0044665
:10165000D0E904104FF007028DF80020039160B12B
:10166000D0E900C2CDE904C2D0E90231CDE90631AA
:101670009DE80E1080E80E1000E06846E16888479B
:10168000606928B10DF1100C9CE80E1080E80E1076
:1016900046F21000C4F234000168C9071FD1016886
:1016A000C9061CD4A1680A7A4B7A897A120242EAE6
:1016B000432242EA81210131C0F8F01340F6E151A2
:1016C000C2F20021D0F80024120703D40A780AB924
:1016D0002FF009C001200870002008B0D0BD0820FC
:1016E00008B0D0BD46F21040C4F23400016849078A
:1016F00014D550F8101C41F0020140F8101C40F6BF
:10170000E151C2F200210268920703D40A780AB1BB
:101710002FF007C800220A7001684160002070475E
:101720008A07024606D5107900285FEA1F904FEA23
:10173000007C01E04FF0000CB0B502AF92F804E07D
:10174000507901F00203947900284EEA030E01F06B
:10175000010343EA0005604608BF40F08070002B9B
:1017600050EA1C83002D46F20C1544EA01005FEAA2
:101770000F91C4F2340590715171BEF1000F5FEA10
:101780000F91002011712B60B0BDF0B503AF4DF883
:1017900004BD8A07024602D44FF0000E02E0107921
:1017A0004FEA407E11F0020F53795FEA1F9C11F05F
:1017B00001005FEA1F94002B7546167918BF45F0AB
:1017C000007500285EEA0580002B5FEA0483002E86
:1017D00046F20C16C4F2340653715FEA0C8313719F
:1017E00030609379002023EA010191715DF804BB18
:1017F000F0BD46F210008A78C4F234000368DB07BB
:101800001CD10368DB0619D4F0B503AF2DE9000F36
:10181000C2F3801E4D788EF0010C8C8805F00F0607
:101820004FEA921800EBCC13092E03F5EE6B07D3A9
:101830005FFA84F9260A4FF0807A14E00820704796
:1018400044B18E68012C96F8009009D14FF0000A3F
:10185000002608E04FF0000A4FF00009002602E0E1
:1018600076784FF0000A05F03F0549EA06260C7825
:1018700046EA054502F0030664F3975545EA0A0473
:1018800008F001054FF4800808EA424344EA456441
:1018900015071D4618BF05F18075920644EA866259
:1018A0004FF00C0453EA5583002ECBF800204FF084
:1018B000807208BF08240959CBF80C100EF50001FE
:1018C000CBE90123C0F8B0150CF50001C0F8F01504
:1018D0000020BDE8000FF0BD46F21002C4F2340251
:1018E00010680880D2F8100248600020D2F8143244
:1018F0008B60C2F818327047D0B502AF88B046F29C
:10190000D0504FF07042C4F2340001684160EFF3F0
:10191000038002EB00604CF200328015C4F200023A
:10192000835823F48033835040F65C638258C2F2BC
:10193000002300228DF800201C580191D4E90430C6
:10194000039360B1D0E900C2CDE904C2D0E902310D
:10195000CDE906319DE80E1080E80E1000E06846E3
:10196000E1688847606910B104AC1ECC1EC008B0A5
:10197000D0BDD0B502AF88B046F210604FF07042D3
:10198000C4F2340001684160EFF3038002EB0060B1
:101990004CF200328015C4F20002835823F48033E5
:1019A000835040F65C638258C2F2002301228DF816
:1019B00000201C580191D4E90430039360B1D0E9B0
:1019C00000C2CDE904C2D0E90231CDE906319DE87B
:1019D0000E1080E80E1000E06846E16888476069F4
:1019E00010B104AC1ECC1EC008B0D0BDF0B503AF22
:1019F0004DF8048D88B046F210144FF07041C4F2D7
:101A00003404D4F80063C4F80463EFF303803307AD
:101A100001EB00604CF200314FEAA050C4F200012B
:101A2000425822F48032425040F65C624158C2F281
:101A3000002252F8008003D4B00707D5002000E050
:101A4000012040F6E151C2F200210870D8E90420DB
:101A500002218DF800100196039260B1D0E900C216
:101A6000CDE904C2D0E90231CDE906319DE82E006E
:101A700080E82E0000E06846D8F80C108847D8F8B7
:101A8000140010B104AD2ECD2EC016F4400F29D095
:101A900054F8100C40F4807044F8100C206840F0AA
:101AA00001002060606800F01F001F28FAD1D8F8FC
:101AB0000800216841F480312160C07A6FF0FF0195
:101AC00001EB4020616801F403418142FAD12068B2
:101AD00020F480302060206820F0010020606068E1
:101AE000C006FCD108B05DF8048BF0BDF0B503AFC3
:101AF0004DF804BD88B046F200264FF07042C4F2A3
:101B0000340630687060EFF3038102EB01614CF240
:101B100000328915C4F200028B5823F480338B50B5
:101B200040F65C638A58C2F20023019006F140023D
:101B30005D5803218DF80010D5E90410CDE902218C
:101B400050B10DF1100C90E81E008CE81E009DE8CD
:101B50001E0080E81E0000E06846E9688847686962
:101B600010B104AD2ECD2EC00120F06308B05DF899
:101B700004BBF0BDD0B502AF88B046F200304FF0E4
:101B80007042C4F2340001684160EFF3038002EB5D
:101B900000604CF200328015C4F20002835823F436
:101BA0008033835040F65C638258C2F200230422E3
:101BB0008DF800201C580191D4E90430039360B1E2
:101BC000D0E900C2CDE904C2D0E90231CDE9063145
:101BD0009DE80E1080E80E1000E06846E168884736
:101BE000606910B104AC1ECC1EC008B0D0BDB0B549
:101BF00002AF88B046F220304FF07042C4F2340099
:101C000001684160EFF3038002EB006082154CF243
:101C10000030C4F20000135823F4803313501058DE
:101C200040F65C6340F6E050C2F20023C2F20020AE
:101C30009D580278012A04D111F0806201D002225D
:101C400006E00278032A04D111F0006201D00022DC
:101C50000270D5E9043005228DF80020019103932C
:101C600060B1D0E900C2CDE904C2D0E90231CDE9CA
:101C700006319DE81E0080E81E0000E06846E96825
:101C80008847686910B104AD2ECD2EC008B0B0BD34
:101C900080B56F4645F25422C5F24F0202600846F5
:101CA00000F07BF8002080BDF0B503AF4DF804BD17
:101CB00086B001A8049003A814460D46ADF808109C
:101CC00001920126ADF80C6000F0CEF840F65860A5
:101CD000EFF31081C2F2002086F3108802683AB94F
:101CE00040F614520023C4F24002137040231370D4
:101CF00002680132026081F31088E10340F60001BE
:101D00004FEA1522C4F2400101D4EBB20CE001EB22
:101D10008216EBB256F8235025F4803546F823504E
:101D200024F4803546F8235001EB8211012241F85A
:101D30002340EFF3108182F31088026812B1026829
:101D4000013A0260006838B940F614500022C4F22B
:101D5000400002708022027081F31088002006B0DB
:101D60005DF804BBF0BDD0B502AFCBB20120984006
:101D70006FF0010E84B20EEAD110002A40F2080280
:101D80004FEA0011C4F240024FF000004FF4803CD3
:101D900008BF0CFA03F45450D0BDF0B503AF4DF8B2
:101DA00004BD044600F060F840F6586CEFF3108173
:101DB000C2F2002C012080F31088DCF8000038B952
:101DC00040F614500022C4F240000270402202701B
:101DD000DCF800000130CCF8000081F31088208886
:101DE00028B340F6000E0021C4F2400E07E00EEBCF
:101DF0008010013140F822302088814217D260687B
:101E000000EBC10250F831309288D8034FEA12201B
:101E1000D2B2ECD50EEB801555F8226026F4803650
:101E200045F8226023F4803645F82260DFE7012080
:101E3000EFF3108180F31088DCF8000020B1DCF8AB
:101E400000000138CCF80000DCF8000038B940F69A
:101E500014500022C4F2400002708022027081F30C
:101E600010885DF804BBF0BDF0B503AF2DE9000F9D
:101E700081B004460088002861D04EF64C4B002506
:101E8000C4F2010B03E020880135854257D246F2A7
:101E9000287942F240080026C0F20029C4F2200846
:101EA0000AE088F80000C820012102F008F8013695
:101EB00008F10208032EE6D0606839F8022B00EB27
:101EC000C50189889142F2D150F835009BF8001085
:101ED000012200F0B85002FA06FAB0F1807F0AEA57
:101EE000010015D158B9012002F098F89BF80000C4
:101EF00040EA0A008BF80000012002F065F898F92A
:101F000000000028D3D498F8000040F08000C8E713
:101F100058B1012002F082F89BF8000020EA0A0084
:101F20008BF80000012002F04FF898F90000B0F1A2
:101F3000FF3FBCDC98F8000000F07F00B1E701B083
:101F4000BDE8000FF0BDF0B503AF4DF8048D0D46B0
:101F5000097804464EF20000C4F22500002600EB8A
:101F600001202061A8686060287B25602072E869F4
:101F70006063286AE063A6630120EFF3108880F3B2
:101F800010882978C1F10901884043F20401C4F2A4
:101F900020010A6822EA00000860086896200121F2
:101FA00001F08DFF88F310882046294600F086F85E
:101FB00044F64311C4E90566C5F249210020C4E98D
:101FC000076684F8296084F82A6084F82B6084F816
:101FD0002C60E1605DF8048BF0BDB0B502AF044643
:101FE00000690025C5712046216800F067F894F863
:101FF0002600A16984F828002069C4E90751B321AB
:1020000084F82C5084F82A50C1714EF28011206956
:10201000CEF20001C571E560206890F91100430916
:1020200000F01F02012000FA02F241F82320BFF362
:102030004F8FBFF36F8F226892F90E20530902F081
:102040001F0200FA02F241F82320BFF34F8FBFF3C3
:102050006F8F226892F91020530902F01F0200FAD4
:1020600002F241F82320BFF34F8FBFF36F8F226836
:1020700092F90F20530902F01F0200FA02F241F810
:10208000232043F20402BFF34F8FBFF36F8FEFF3B0
:10209000108580F310882168C4F220020978136843
:1020A000C1F1090188400121184310601068962091
:1020B00001F005FF85F310880020B0BDF0B503AF37
:1020C0002DE9000F02691F230826772513705F236F
:1020D00002694EF2001ECEF2000E4EF6185C13702E
:1020E000DF2302690EF5407A40F65C68CEF2000C00
:1020F0001370C2F20028026803690EF5C07B4FF02E
:102100000109526A127942F0E0021A740268036906
:10211000526AD27842F0E0025A7402680369526A45
:10212000927862F306169E7002680669526A137806
:102130005278012B5FEA1F9343EA420242F0040205
:10214000F270026844F240260369C0F20F0652683A
:10215000B24208BF6FF008055D71002302699371F8
:10216000B3230269D37191F911604B7B06F00F0222
:102170000AEB06051B01141F002E48BF04EB0C05DB
:102180002B704CF20033C4F2000348F826007409A7
:1021900053F8265025F4803543F8265053F826503E
:1021A00006F01F0609FA06F6BFF35F8F4BF82460AE
:1021B0004EF8246091F90F404A7B04F00F060AEBB9
:1021C0000405043E002C48BF06EB0C0512012A70E2
:1021D00048F8240053F8242022F4803243F82420C5
:1021E00053F82420620904F01F04BFF35F8F09FA3B
:1021F00004F44BF822404EF8224091F910204D7B18
:1022000002F00F040AEB0206043C002A48BF04EB6C
:102210000C062C01347048F8220053F8224024F4B4
:10222000803443F8224053F82240540902F01F0240
:10223000BFF35F8F09FA02F24BF824204EF82420F6
:1022400091F90E20497B02F00F040AEB0205043CD1
:10225000002A48BF04EB0C050901297048F8220048
:1022600053F8221021F4803143F8221053F8221041
:10227000510902F01F02BFF35F8F09FA02F24BF817
:1022800021204EF821209F2100690170BDE8000F38
:10229000F0BDD0B502AF82B0EFF303804FF07041D4
:1022A00001EB00604CF200328015C4F2000283584A
:1022B00023F4803383508058EFF3038001EB0060F8
:1022C00040F65C618015C2F200210C5894F82D0094
:1022D00078B1E069002800F0C8802168496AC979AE
:1022E00000293FD0A06B58B3D0E90012CDE900120D
:1022F00027E0A069022804D82069017941F0400153
:102300000171E06901280ED12069017941F01001C5
:1023100001712069017941F0080101712069017999
:1023200001F0EF0101712068406AC07900287CD07B
:10233000A06B002868D0D0E90012CDE9001264E05B
:102340006846616BE26B0260052202718847A06BF0
:1023500000281CBFDDE90012C0E90012002084F84B
:102360002B00E069012819D0022807D003286FD17B
:102370002069017941F04001017169E0206901792A
:1023800041F0100101712069017941F008010171EA
:102390002069017901F0EF01017159E094F82A00F8
:1023A00000284DD020684EF28013CEF2000390F941
:1023B0000F00420900F01F01012000FA01F143F86B
:1023C0002210BFF34F8FBFF36F8F2169CA7942F09C
:1023D0008002CA7121690A7942F010020A712169EA
:1023E0000A7902F0F7020A7121690A7902F0EF0214
:1023F0000A71216904224A7021694A7902F0FE02B9
:102400004A7184F82C0023E06846616BE26B02603D
:10241000052202718847A06B00281CBFDDE900126D
:10242000C0E90012002084F82B002069C07C8DF8E0
:1024300000009DF80000012084F82D0002B0D0BDFE
:102440002069417A01F0F701417220690821417049
:10245000D4E90401C07C226A8854D4E90701013818
:1024600001F10101C4E9070101D002B0D0BD20692A
:10247000017901F0BF01017102B0D0BDB0B502AF6A
:1024800082B0EFF303804FF0704101EB00604CF23B
:1024900000358015C4F20005425922F480324251C1
:1024A0004059EFF3038001EB006040F65C6180155A
:1024B000C2F200210C5894F82700D0B194F82600FD
:1024C000032806D194F82800022802D194F830009D
:1024D00090B1206994F82410817494F8280094F83D
:1024E0002710013084F82800481E84F8270002B025
:1024F000B0BD94F8290008B102B0B0BD2068406AB0
:10250000C079E0B194F82B00C8B9206AB8B1A06BCB
:1025100020B1D0E90012CDE9001200E06846616BFD
:10252000E26B0260052202718847A06B00281CBF85
:10253000DDE90012C0E90012002084F82B00E069F8
:1025400060B1D4E90401226A895C8174D4E907018D
:10255000013801F10101C4E90701CDD12069C17938
:1025600001F07F01C17120696FF0BE0190F9072071
:10257000B2F1FF3F03DC002901F10101F6D120682F
:1025800090F9100055F8201021F4803145F8201002
:1025900055F82000206890F9100000280CD4C0B233
:1025A0001C214EF2802300F01F0201EAD000CEF27F
:1025B000000301219140C1502069C17941F04001DF
:1025C000C17102B0B0BDD0B502AF82B0EFF30380ED
:1025D0004FF0704101EB006040F65C618015C2F283
:1025E00000210C582068406AC079B8B1A06B20B1B6
:1025F000D0E90012CDE9001200E06846616BE26BA1
:102600000260052202718847A06B00281CBFDDE92B
:102610000012C0E90012002084F82B0094F8290071
:1026200030B194F82700012802D194F8300078B333
:10263000E06968BB94F82A0010B320684EF280135A
:10264000CEF20003012290F90F0000F01F014009B3
:1026500002FA01F143F82010BFF34F8FBFF36F8FE1
:102660002069C17941F08001C17120690421417064
:102670002069417901F0FE01417184F82C2007E0C6
:102680002069417A01F0F701417220690821417007
:102690002069C17901F0BF01C17120696FF0BE01ED
:1026A000C279520603D5002901F10101F8D1EFF3F7
:1026B00003804FF0704101EB00604CF20031801557
:1026C000C4F20001425822F480324250405802B015
:1026D000D0BDF0B503AF4DF804BD82B0EFF3038079
:1026E0004FF0704101EB006040F65C618015C2F272
:1026F00000210C5821694A7A4B7A02F01F0002F03F
:1027000003020F2803F0E0034B7201D83AB939E015
:1027100021694B785B0658BF42F001027AB301256C
:1027200084F82B5020690026C67120462168FFF7E7
:10273000C5FC94F82600A16984F828002069C4E942
:102740000761B32184F82C6084F82A60C171A06B02
:1027500020B1D0E90012CDE9001200E06846616BBB
:10276000E26B026005718847A06B00281CBFDDE9A1
:102770000012C0E90012002084F82B0069E04A78BA
:10278000520629D4010715D494F82C10002918BF3B
:1027900010F0040138D140075BD52068406AC07949
:1027A000002856D0A06B002867D0D0E90012CDE9F0
:1027B000001263E0254615F82B0F58B3A1690020DD
:1027C000C4E9070194F8261084F82810012184F840
:1027D0002C0084F82A0023E0012084F82B00082034
:1027E000487020682369406A41790278807942EA1A
:1027F000011141EAC01040F00200D870206941790F
:1028000041F00101417124E0254615F82B0F08B174
:10281000012108E094F829000221002851EA1191D1
:102820002069B322C271A06B20B1D0E90023CDE9A9
:10283000002300E06846626BE36B03600171904720
:10284000A06B00281CBFDDE90012C0E900120020C7
:102850002870EFF303804FF0704101EB00604CF201
:1028600000318015C4F20001425822F480324250F7
:10287000405802B05DF804BBF0BD6846616BE26B86
:102880000260042202716EE7F0B503AF4DF8048DCB
:1028900091F902304CF2003CC4F2000C03714FF08D
:1028A000000E3C255CF823804CF823E00B788C6804
:1028B0008460CE6805EA9304C3251C44C0F2400539
:1028C00065F31F2449F60055CFF6FF75C6604371C6
:1028D000024604F805E00B794E79C878F60146EA1D
:1028E00003131843605592F904004CF8208092F9C4
:1028F000040000280DD44EF2004340F65C6649788F
:10290000C0B2CEF20003C2F200260901C15446F85B
:10291000202044F255310020C0F2490111605DF8D9
:10292000048BF0BD90F904004CF20031C4F20001B8
:102930004EF2001CCEF2000C51F8202022F480321E
:1029400041F8202051F82010410900F01F00012219
:102950000CEB810302FA00F0BFF35F8FC3F8800134
:102960004CF8210000207047014690F9040000282F
:102970001AD4C0B21C224EF2801C00F01F0302EADF
:10298000D000CEF2000C01229A4040F80C20BFF398
:102990004F8FBFF36F8F91F9040040F65C62C2F273
:1029A0000022002342F82030002000220A607047F5
:1029B000F0B503AF4DF804BD82B04FF07041EFF3B6
:1029C000038001EB006140F65C628815C2F20022D0
:1029D0003C234CF200341058C4F200040D16427926
:1029E00003EA92031A44C323C0F2400363F31F2295
:1029F00049F60053CFF6FF73D25C02F00306032EB4
:102A000007D054F8251021F4803144F8251054F8EB
:102A10002510816829B14279C0680090684601920A
:102A20008847032E07D154F8250020F4803044F85D
:102A3000250054F8250002B05DF804BBF0BDF0B5E8
:102A400003AF2DE900070D46097C04464FF000084E
:102A50000D295FEA9F92027401202A7C00FA01F19D
:102A6000E16042F20001C4F23201656001EB022133
:102A7000A16069696161A969E16143F61071C4F8F7
:102A80001880C4F23201EE694FF000496FF0006225
:102A90000860EFF3108A80F31088287C011F29FA60
:102AA00000F0062943F21001C4F2200152EA30A0DE
:102AB0000A681040086008689620012101F0FFF9BB
:102AC0008AF310884FF42541A0680160A068C0F81F
:102AD0002C80A068C0F83C80A068C0F84880287AA4
:102AE0002978A268C0050329696808BF00F580300D
:102AF000D0620139A068C0F81090A068C0F81490A6
:102B0000A068C0F81890A068C0F82480A068C0F839
:102B10002880A068B269C261A068F2690262A068F8
:102B20008166A06841666068C16991F83020D0076D
:102B3000B06B05D0A2688B6A013BD36491F830205A
:102B4000920703D5A268C96A01391165297C0D294C
:102B500002D8A16800224A64A16800228A63A168A1
:102B6000C1F88820B16B39B996F8201096F8212069
:102B7000490341EA4271084396F83010A2680029DF
:102B80004FF4A00108BF4FF4AA0111642246A168C6
:102B900048630321A06801630121A0680163D4E9AF
:102BA0000201C16095F91200697C00F00AF996F9FA
:102BB000240096F82210224600F003F996F9250029
:102BC00096F82310224600F0FCF845F2540100204C
:102BD000C0F247012160BDE80007F0BD8068426E89
:102BE00001328A60D0F82CC04EF22000C4F20100FD
:102BF0000368808843EA000200F00F00120703F028
:102C00000F0208D440F69C63C2F200231B6803FA4B
:102C100000F0D04023E0F0B503AF4DF804BD00F064
:102C2000070E032540F69C6605FA0EF4C2F2002654
:102C30004FF0010E082838BF0EFA00F403F0070029
:102C40001B0705FA00F0356805FB04F358BF0EFAC0
:102C500002F0B3FBF0F05DF804BBBDE8F040CCF34C
:102C6000C352D0404860002001220A707047B0B5BE
:102C700002AF43684EF2801E40F65C6CCEF2000E4E
:102C800093F91210DB69C2F2002C002910D4C9B2EA
:102C90000125C1F3421201F01F0405FA04F44EF8B5
:102CA00022400022BFF34F8FBFF36F8F4CF82120DB
:102CB00093F92410002910D4C9B20125C1F342129E
:102CC00001F01F0405FA04F44EF822400022BFF37D
:102CD0004F8FBFF36F8F4CF8212093F925100029F7
:102CE00010D4C9B20124C1F3421201F01F0304FA47
:102CF00003F34EF822300022BFF34F8FBFF36F8FE4
:102D00004CF82120D0E90212002303608A60816818
:102D100000204B63B0BDD0B502AF84B0EFF30380A9
:102D20004FF0704101EB00614CF200308A15C4F2A3
:102D3000000040F65C641358C2F2002423F4803390
:102D400013501358A45862681278012A20D1D4E98C
:102D50000223091693600023A2689364A268D364D7
:102D6000A26813654EF2802350F82120CEF20003B2
:102D700022F4803240F8212050F82100BFF35F8F09
:102D800001F01F004909012202FA00F043F8210076
:102D90006169A1B1A06930B1D0E900C38268039232
:102DA000CDE901C300E001A8002202718260E2695E
:102DB00002608847A06910B101AB0ECB0EC004B011
:102DC000D0BD002848BF704780B56F464EF2001C4A
:102DD000C3B2CEF2000C090143EA0C0E8EF80013C8
:102DE00040F65C61C2F2002141F823204CF2003130
:102DF000C4F2000151F8232022F4803241F823204C
:102E000051F823101C21012301EAD00100F01F001A
:102E100041EA0C0203FA00F0BFF35F8FC2F88001B1
:102E200041F80C0080BDF0B503AF2DE9000F81B073
:102E300043F208088246C4F22008002404700120EE
:102E4000EFF3108680F31088D8F800000D4620F0CC
:102E50001000C8F80000D8F8000043F20C4943F213
:102E6000000B96200121C4F23409C4F2340B01F0A6
:102E700026F886F310884023DBF8000040F4803009
:102E8000CBF80000D5F8840095F83C100279407921
:102E9000032908BF4FF4825300F03F00002A08BF07
:102EA00003F580731844C9F8440095F84000D5F83C
:102EB0008410002818BF4FF4BC70CBF8E40349F825
:102EC000084C91F9004091F9012091F90200611C30
:102ED000D3B244F69441C0F2002113D095F830608B
:102EE0002EB9D9F8106046F01006C9F8106051F8F4
:102EF0002460346844F002043460EE8D6FF3DF2602
:102F0000C9F80C60FF2BC3B211D095F83A602EB906
:102F1000D9F8006046F01006C9F8006051F8222088
:102F2000166816602A8F6FF3DF2249F8042CFF2BF6
:102F30001FD095F83F2012B90122C9F81C2051F882
:102F40002000016841F007010160A88D698D6FF3D1
:102F5000DF206FF3DF2141EA0040C9F81400E88E5A
:102F6000A98E6FF3DF206FF3DF2141EA0040C9F83B
:102F70000400688E298D40F6EC536FF3DF20C2F217
:102F800000236FF3DF2141EA0040CBF804004FF04B
:102F90000110CBF80800A88D698D01306FF3DF2197
:102FA0006FF3DF2041EA0040CBF81000E88EA98ED5
:102FB00001306FF3DF216FF3DF2041EA0040CBF8EF
:102FC0000C0095F8450095F8461095F8442000024D
:102FD00040EA014040F6E4511044CBF81400C2F23C
:102FE0000021A88D6A8D088040F6E851C2F20021C8
:102FF000E88E1A800022088040F6F051C2F20021CB
:10300000A88E088005F15C01284600F004FA05F15D
:10301000140005F16801012200F0FDF995F83C006B
:1030200046F23E76C0F2002646F24274C0F2002418
:1030300095F85830365C95F83D2095F83EC0245CF4
:10304000002B4FEA06431AD0D5F88460B1790229E3
:1030500013D1F17996F808E096F80980B67A090359
:1030600041EA0E2141EA081143F208083143C4F253
:103070002008194341F4001301E043F480132103B5
:10308000012A08BF01F18051BCF1010F40F6F45252
:1030900008BF01F1807103284FF4007008BF01F5EB
:1030A0000071CBF8C41348F28001CBF8D433CBF8CD
:1030B000C8034FF00220C0F28001CBF8CC03CBF85C
:1030C000D013D5E91F01CAE90101E88EA98EC2F229
:1030D0000022CAF80C500844C2F800A00130DBF806
:1030E000501260F30A01CBF85012DAF80C00D0F855
:1030F0008400C16807C912689047A8B10121EFF3A5
:10310000108581F310880446D8F80010962041F00D
:103110001001C8F80010D8F80010012100F0CFFE0F
:10312000204685F3108885E00621C9F83410072170
:10313000C9F83810DAF80C604EF200114CF2003287
:1031400040F65C6C96F97750CEF20001C4F20002B2
:10315000C2F2002C002D20D4EDB296F874604C1908
:103160000123360184F800634CF825A052F825604D
:1031700026F4803642F8256052F82560C5F34216E1
:1031800005F01F05BFF35F8F01EB8604AB40C4F869
:10319000803141F82630DAF80C6096F97850002D2D
:1031A00021D4EBB296F87560CD180124360185F86C
:1031B00000634CF823A052F8236026F4803642F8CE
:1031C000236052F82360C3F3421603F01F03BFF3DA
:1031D0005F8F01EB860504FA03F3C5F8803141F8EF
:1031E0002630DAF80C6096F97950002D1FD4EBB236
:1031F00096F87660CD18360185F800634CF823A068
:1032000052F82360012526F4803642F8236052F8F4
:103210002320C3F3421203F01F03BFF35F8F01EBC0
:10322000820605FA03F3C6F8803141F82230012105
:103230008AF8001001B0BDE8000FF0BDF0B503AF93
:103240004DF8048D43F200050446C4F234052968A4
:10325000C9070ED0E068D0F88400C06881680068B3
:10326000C9688847002804BFD5F800015FEAC0702C
:1032700076D0E068D0F88400C0688168006849684A
:103280008847A969C90566D4E2684EF28011CEF27A
:10329000000192F97730002B0ED4DAB20126C2F386
:1032A000421302F01F0206FA02F241F82320BFF394
:1032B0004F8FBFF36F8FE26892F97830002B0ED4F6
:1032C000DAB20126C2F3421302F01F0206FA02F23A
:1032D00041F82320BFF34F8FBFF36F8FE268804622
:1032E00092F9790000280DD4C0B20123C0F3421234
:1032F00000F01F0003FA00F041F82200BFF34F8FE7
:10330000BFF36F8F43F244400026C4F23400C5F887
:1033100040640660286820F001002860286820F4D6
:10332000803028600120EFF3108580F3108843F28D
:103330000800C4F22000016841F01001016000683B
:103340009620012100F0BBFD85F3108826704046D1
:103350005DF8048BF0BD40F2EE305DF8048BF0BDFB
:10336000D5F80002C00704BFD5F8C0035FEAC070FB
:103370007FF47FAF2868C0053FF57BAF286820F059
:10338000010028600120207073E7D0B502AF044629
:10339000C068D0F88400C068816800688968884780
:1033A00043F20001C4F234010A6842F480720A60F8
:1033B0000A6842F001020A60D1F8402442F001029A
:1033C000C1F8402402212170D0BD43F20010130245
:1033D000C4F23400C358DB071AD16FF0FF03C3589F
:1033E000DB0515D400EB0220012200295FEA0F9CC7
:1033F00018BF0322036A23F002031A430262C0F8D3
:1034000004C0C160016841F0010101600020704703
:1034100040F2EE307047F0B503AF2DE9000F84B0F5
:10342000036843F2001BC4F2340B9BB3037B44F6E6
:10343000A44546F22E76C0F20025C0F200260BEB22
:103440000224F65C35F81330029383680193330746
:10345000E361047B0B88D0F808801EB240F6E45389
:1034600035F814A0002EC2F200231AD440F6EC5511
:10347000C2F200252D88B54213DB84881FFA86F935
:10348000A5EB090600230393D0F800E0A64256EA14
:10349000B48644E00BEB022001210162002141606F
:1034A000F6E0B6F1FF3F07DDD0F800E04FF000098D
:1034B00000260023039332E0858805EB060EBEF15B
:1034C000010FF1DB083CCDF8008014F1030F05D8A3
:1034D0004FEADA0C4024B4FBFCFC01E04FF0010C95
:1034E0007542B3F900800AFB06F60023B5FBFCF435
:1034F000C44504FB1C54C4F1000574441FFA85F94B
:10350000C6F1000554EAC486046804EBD505C8BFBB
:103510004FF00009039325F03F0EDDF80080B4B2B0
:10352000857B04FB0AF3B1F902604FEAD30C15B1B5
:10353000C3880CFB03FC002E10D440F6F053C2F2FB
:1035400000231D88B54209DBC388AD1B9D4255EAA7
:10355000B38849EA06434FEA134A13E0B6F1FF3F46
:1035600002DD4FF000080BE0C388454603EB060878
:10357000B8F1010FF5DB05FB0AF3DB0803FB16EEE0
:103580004FF0000A0BEB022B0CF13F0CCBF80CE0D8
:10359000857B039B43EA040E55B1068A0025CBF8D0
:1035A00010501FFA88F5008AB04600FB05F30DE0C5
:1035B000DDE9014304FB03F6407B1FFA88F3F608BC
:1035C000002856EA06B00004CBF81000A8F1010666
:1035D0004FF0FF356FF3DF2640F6E45005EB9C1506
:1035E000C2F20020C5EA0646CBF8186006886FF3E1
:1035F000DF2E744640F6E8554E44C2F2002566F3CD
:103600001A44CBF8284006886FF3DF2318464E444F
:1036100066F31A4ECBF830E02E88564466F31A4013
:10362000CBF824002888504460F31A43CBF82C30A0
:10363000087A28B1012805D1487A0021000407E062
:10364000032017E0487A4FF47F01000400F18070F6
:10365000CBF8340040F60060C2F20020CBF83810FE
:1036600040F6F8510068C2F20021023041F8220011
:1036700041F203000021CBF820000120CBF8040028
:10368000CBF8501040F21801C2F2002108704870C7
:1036900004B0BDE8000FF0BD40F6F45040F6006104
:1036A000C2F20020C2F2002100680A6801320A60FA
:1036B000096831B940F6F8510022C2F20021C1E98F
:1036C000002280B56F4682B040F218010122C2F29A
:1036D00000210A704A70416831B1806801906846E3
:1036E00003228DF80020884743F24840C4F234009A
:1036F000016841F001010160EFF303804FF0704178
:1037000001EB00604CF200318015C4F20001425818
:1037100022F480324250405802B080BD80B56F46DE
:1037200082B040F6F450C2F200200068416831B126
:1037300080680190684601228DF80020884743F296
:103740004840C4F23400016841F002010160EFF327
:1037500003804FF0704101EB00604CF200318015A6
:10376000C4F20001425822F480324250405802B064
:1037700080BDD4D44EF22401C4F2010188780988B6
:1037800001F00F02A2F1080103293BD8DFE801F0A4
:10379000022C101E40F22041C2F2002151F82000FC
:1037A0004AF6AB21CAF6AA21A0FB0101480830E085
:1037B00040F22041C2F2002151F820004AF6AB212C
:1037C000CAF6AA21A0FB0101C80822E040F220416C
:1037D000C2F2002151F820004AF6AB21CAF6AA2114
:1037E000A0FB0101080914E040F22041C2F20021CF
:1037F00051F820004AF6AB21CAF6AA21A0FB01012C
:10380000880806E040F22041C2F2002151F8200071
:10381000D04040F69C61C2F2002108607047D4D4C9
:10382000F0B503AF2DE9000F81B00FF2E4504EF276
:10383000FA3840F2204BC4F2010890ED001FC2F2AA
:10384000002B0FF2DC504AF203514EF25505CFF631
:10385000FF71A8F800108BED001F0BF12003C4F2DC
:10386000010590ED001F48F2004040F60001C1F252
:10387000D77043F600028BED041FC2F6AF71C1F69C
:103880009C4207C315F82F0C35F8311C01F00F02CC
:10389000A2F1080103292BD8DFE801F002200C1661
:1038A0004AF6AB215BF82000CAF6AA21A0FB010171
:1038B000480820E04AF6AB215BF82000CAF6AA21AE
:1038C000A0FB0101C80816E04AF6AB215BF8200016
:1038D000CAF6AA21A0FB010108090CE04AF6AB21B7
:1038E0005BF82000CAF6AA21A0FB0101880802E0CB
:1038F0005BF82000D04040F69C6A4EF60046C2F2CB
:10390000002AC4F201060A214EF60144CAF800005A
:103910004FF65060CFF6FF704AF20359C4F201042B
:103920003154092085F84D00307818B92078800787
:1039300000F06282307840B901203070C820012147
:1039400000F0BDFA30780128FCD1002020703070E2
:10395000002005F81F0C05F8230C15F8190C0007BA
:10396000FBD542F60230C0F20100C5F8730040F208
:10397000234025F8070C002005F80B0C4FF6021029
:10398000C5F8570040F2514025F8090C15F8410CD4
:1039900000F0F800013005F8410C15F8410CC006A4
:1039A000FBD4002005F82B0C15F8190C8006FBD56C
:1039B0004CF200060020C4F21306307030783078E4
:1039C00030787068FA2806D0FA20C1F6006070607E
:1039D0007168FA29FBD1B0687D2806D07D20CEF22F
:1039E0000010B060B1687D29FBD143F23340C3F2CF
:1039F000232045F8350C42F2201025F8310C052023
:103A000005F82F0C15F82F0C35F8311C01F00F02BA
:103A1000A2F1080103292BD8DFE801F002200C16DF
:103A20004AF6AB215BF82000CAF6AA21A0FB0101EF
:103A3000480820E04AF6AB215BF82000CAF6AA212C
:103A4000A0FB0101C80816E04AF6AB215BF8200094
:103A5000CAF6AA21A0FB010108090CE04AF6AB2135
:103A60005BF82000CAF6AA21A0FB0101880802E049
:103A70005BF82000D040CAF8000096200121012404
:103A800000F01DFA70686FF39F20652828BF34701E
:103A900015F82F0C35F8311C01F00F02A2F10801C6
:103AA00003292BD8DFE801F002200C164AF6AB21DF
:103AB0005BF82000CAF6AA21A0FB0101480820E01B
:103AC0004AF6AB215BF82000CAF6AA21A0FB01014F
:103AD000C80816E04AF6AB215BF82000CAF6AA2116
:103AE000A0FB010108090CE04AF6AB215BF82000BD
:103AF000CAF6AA21A0FB0101880802E05BF82000B9
:103B0000D040CAF8000042F20000C4F20000A9F15F
:103B1000020101800121BFF35F8F01724FF4254143
:103B2000BFF35F8F018095F8850040F0400085F875
:103B3000850095F98500B0F1FF3FFADC032085F898
:103B40007F00C92085F8850095F8850000F0BF004A
:103B500085F8850095F985000028FBD4012005F83B
:103B6000250C05F8030C05F8020C002005F8170CCD
:103B7000802005F8170CE87F40F04000E87795F9C1
:103B80001F00B0F1FF3FFADC0720E8754A20E87714
:103B90000A20E87795F91F000028FBD4B8F8000048
:103BA000A8F8009095F8201041F0400185F8201009
:103BB00095F92010B1F1FF3FFADC00212976472169
:103BC00085F82010072185F8201095F9201000298C
:103BD000FBD4A8F8000095F8210040F0400085F8DB
:103BE000210095F92100B0F1FF3FFADC032068764F
:103BF000CA2085F8210095F8210000F0BF0085F863
:103C0000210095F921000028FBD4287840F04000DD
:103C1000287095F90000B0F1FF3FFADC022005F8AA
:103C2000010CCA202870287800F0BF00287095F990
:103C300000000028FBD4A87840F04000A87095F957
:103C40000200B0F1FF3FFADC00206870C720A870C6
:103C5000A87800F0BF00A87095F902000028FBD4F6
:103C6000287A40F04000287295F90800B0F1FF3F33
:103C7000FADC0120E871C6202872287A00F0BF0023
:103C8000287295F908000028FBD495F8230040F02D
:103C9000400085F8230095F92300B0F1FF3FFADCDE
:103CA0000220E876C92085F8230095F8230000F06B
:103CB000BF0085F8230095F923000028FBD4A87ADB
:103CC00040F04000A87295F90A00B0F1FF3FFADC1D
:103CD00001206872CA20A872A87A00F0BF00A872FA
:103CE00095F90A000028FBD495F8220040F0400026
:103CF00085F8220095F92200B0F1FF3FFADC04209C
:103D0000A876CA2085F8220095F8220000F0BF00AE
:103D100085F8220095F922000028FBD4A87940F00C
:103D20004000A87195F90600B0F1FF3FFADC0220CF
:103D30006871CA20A871A87900F0BF00A87195F930
:103D400006000028FBD495F8860040F0400085F876
:103D5000860095F98600B0F1FF3FFADC022085F875
:103D60008000C52085F8860095F8860000F0BF0029
:103D700085F8860095F986000028FBD495F8870021
:103D800040F0400085F8870095F98700B0F1FF3FCB
:103D9000FADC012085F88100C52085F8870095F8B8
:103DA000870000F0BF0085F8870095F9870000289C
:103DB000FBD495F8890040F0400085F8890095F91A
:103DC0008900B0F1FF3FFADC092085F88300C920A3
:103DD00085F8890095F8890000F0BF0085F8890012
:103DE00095F989000028FBD44FF42540A8F800007D
:103DF00001B0BDE8000FF0BD4FF47A7000F018F884
:103E0000A6E500BF00BF00BF00BF00BF00BF00BFEE
:103E1000006CDC0200127A000080000000366E01A7
:103E20000080000000CA9A3B0046C3235543DE13BE
:103E30007047B0B502AF42F22404C820C4F2200497
:103E400001210025257100F03AF82570207808B18D
:103E50002FF005C0207840F0020020702078800705
:103E6000FCD4002004F8020C14F8020C08B12FF066
:103E700005C84FF0030E002004F11C0111F81020BA
:103E800002F07F0201F8102011F91020002AFBD463
:103E900001300FF00DC8012000F0C0F84EF64C4183
:103EA0000120C4F2010100220A70BDE8B04000F018
:103EB0008BB8014600204FF0C0620A60704740F6A0
:103EC0009C6241F20023C2F20022C0F27A0348430E
:103ED00012689A420FD344F23F21C0F20F011144FD
:103EE0004DF68362C4F21B32A1FB0212910CA0FBBF
:103EF0000101C9B11DE04CF60021C3F69A31B1FBB6
:103F0000F2F148F63812C0F24102904205D24FF465
:103F10007A725043B0FBF1F006E0B0FBF1F0904252
:103F200007D24FF47A714843002808BF704700F069
:103F300007B84FF0FF3000F003B8D4D4D4D4D4D4B1
:103F400001380028FCD17047F0B503AF4DF8048D5F
:103F50004CF2201840F60464C4F200080026C2F2B5
:103F6000002458F8200CD8F8001001EA000503E0FE
:103F700001360434152E09D025FA06F0C007F7D013
:103F800021680029F4D0F0B28847F1E748F8105CC6
:103F9000D8F800002842FBD15DF8048BF0BD80B555
:103FA0006F464FF00E0E4CF2003046F2E461C4F260
:103FB0000000C0F2002131F8022B002A18BF026075
:103FC00004300FF009C080BD0122EFF3108182F3AD
:103FD000108840F69462C2F2002232F8103023B109
:103FE00032F81030013B22F8103032F8102012B1B4
:103FF00081F3108870474EF2FA3246F2367CC4F2F2
:104000000102C0F2002C13883CF8100043F4254351
:1040100023EA0000108081F310887047D0B502AF0A
:104020000122EFF3108182F3108840F69462C2F20D
:10403000002232F8103083B94EF2FA3E46F2367C56
:10404000C4F2010EC0F2002CBEF800403CF8103063
:10405000234343F42543AEF8003032F810300133E7
:1040600022F8103081F31088D0BDF0B503AF4DF8C1
:1040700004BD43F650450446C4F20005287808B153
:104080002FF005C0872025F82C0C4FF0100005F804
:10409000500C84B10020FFF7C1FF4EF253000126FF
:1040A000C4F2010006700020FFF78EFF05F8306CA7
:1040B00028780007FCD4012005F84E0C002005F8F4
:1040C0004F0C287808B12FF005C042F20350C0F21F
:1040D0000500BCB14FF40C7125F8081C2978C907FC
:1040E000FCD145F80C0C012005F8100C47F2A83162
:1040F00025F83C1C05F83A0C112005F8500C5DF829
:1041000004BBF0BD45F80C0C012005F8100C47F27B
:10411000A83125F83C1C05F83A0C15F8500CC007DE
:10412000FBD1287808B12FF009C0012005F8400C18
:104130005DF804BBF0BD80B56F4600F005F8FCF7F4
:1041400084FEFEE700BE7047F0B503AF2DE900071F
:104150004EF6085840F20120CEF20008C0F20E00E0
:104160004EF20004C8F80C00CEF20104BFF34F8FEA
:10417000BFF36F8F58F8080CC0F3035110F00F0F06
:104180005FEA0F9001295FEA1081206810D879B9A1
:1041900040F0040020604EF20800BFF34F8FCEF2D3
:1041A0000000BFF36F8F016841F48031016002E0CD
:1041B00020F004002060BFF34F8FBFF36F8F4FF4E8
:1041C000700040F20001C8F880000020C0F2002119
:1041D000C8F80010FCF7BBFBFFF722FB0120FCF73F
:1041E000B6FB40F22000C2F2002080F30A8820686B
:1041F000800725D5D8F80000B0F1007F20D12069D4
:104200004FF40071C0F3C300626901FA00F3C2F316
:10421000C30081400020DA080646CB08014642F080
:1042200007C800BF00BF00BFE6E802010FF005C0ED
:104230004FF0005243F005C0E2E802010FF005C064
:1042400046F26879C0F20029D9F800508DB1D9F84A
:1042500004002E46041D03E0013E04F10C0408D0C6
:1042600060790028F8D154E90101091A00F0F0F84A
:10427000F2E7D9F808A0BAF1000F13D0D9F80C0072
:10428000564600F1080403E0013E04F1100409D091
:1042900060790028F8D154E902022168121A00F06E
:1042A000DBF8F1E7FFF766FAFFF7C3FD0320FFF73E
:1042B000B5FE4FF00E0E40F63050C4F24000002123
:1042C00020F8041B0FF005C04EF210140320C4F2B6
:1042D0000104FFF779FE0320FFF7A0FE44F204007B
:1042E0000021C4F22000016041608160C1600320B0
:1042F000FFF76AFED4F8C80210B1D4F8C80211E082
:10430000207878B10120FFF789FE207800F0C00006
:104310008028FAD10020207020783F28FCD8012086
:10432000FFF752FE0120FFF779FE207900F0C00070
:104330008028FAD10020207120793F28FCD8012064
:10434000FFF742FE0220FCF702FB9DB1D9F8040002
:104350004FF48076041D03E0013D04F10C0409D004
:104360006079B6EB002FF7D154E90101091A00F08A
:104370006FF8F1E7BAF1000F16D0D9F80C004FF43E
:10438000807500F1080404E0BAF1010A04F1100498
:104390000AD06079B5EB002FF6D154E9020221680A
:1043A000121A00F059F8EFE740F6A464C2F20024B4
:1043B000204600F02DF8204600F040F8BFF34F8F64
:1043C000002046F6E211BFF36F8FC8F8480246F6A8
:1043D000E210C0F20020C0F20021BFF34F8F081A94
:1043E000BFF36F8F8410012C08DB46F6E215C0F294
:1043F000002555F8040B8047013CFAD1FFF7CFFDAB
:104400000020BDE80007BDE8F04000F000B87047AC
:10441000D0B502AF05490446054A00F01DF805482D
:104420000549204400F014F8D0BD00BFAA000002E6
:104430000000000000000000000000000249401AD7
:1044400002490860704700BF08000000A00E00226B
:104450000A46002100F00AB8D0B502AF00239A4204
:1044600003D0CC5CC4540133F9E7D0BD00239A4299
:1044700008BF7047C1540133F9E700000000000095
:1044800054545220524547474553000D0A53657412
:104490002074696D6520746F20656E746572205597
:1044A0006C7472612D4C6F7720506F77657220535A
:1044B000746174652028554C5053293A0D0A312EE9
:1044C00020496E7075742027312720746F20656E27
:1044D00074657220554C50532061667465722035A6
:1044E000732E0D0A322E20496E70757420273227E4
:1044F00020746F20656E74657220554C5053206196
:1045000066746572203135732E0D0A332E20496E84
:104510007075742027332720746F20656E74657260
:1045200020554C5053206166746572203330732ED1
:104530000D0A342E20496E7075742027342720749C
:104540006F20616C7761797320646973706C617935
:10455000202844656661756C74292E0D0A0D0A4E7B
:104560006F74653A20416674657220656E74657279
:10457000696E6720556C747261204C6F7720506FA4
:104580007765722053746174652028554C50532907
:104590002C20706C6561736520746F75636820747E
:1045A00068652073637265656E20746F2065786935
:1045B000742074686973206D6F64650D0A20202073
:1045C0002020206F7220776169742033307320615E
:1045D00066746572206261636B6C696768742074CD
:1045E00075726E206F666620746F206175746F6DD2
:1045F00061746963616C6C79206578697420746892
:104600006973206D6F64652E0D0A0D0A557365720E
:1046100020496E7075743A20200068616E646C6584
:104620005F6572726F72002A2A20525F4750545F92
:10463000496E666F47657420415049206661696C18
:104640006564202A2A0D0A00525F4943555F457868
:104650007465726E616C497271436C6F7365204151
:104660005049206661696C65640D0A002A2A20475A
:104670004C4344432064726976657220696E6974A4
:1046800069616C697A6174696F6E204641494C4575
:1046900044202A2A0D0A000D0A546869732065789F
:1046A000616D706C652070726F6A656374206465FB
:1046B0006D6F6E73747261746573207468652062C7
:1046C000617369632066756E6374696F6E616C698E
:1046D00074696573206F6620746865204D49504980
:1046E0002044534920646576696365206472697665
:1046F00065720D0A6F6E2052656E6573617320528C
:1047000041204D435573206261736564206F6E20B4
:1047100052656E65736173204653502E204F6E2094
:104720007375636365737366756C20696E6974690C
:10473000616C697A6174696F6E206F66204D4950B3
:104740004920445349206D6F64756C652C0D0A74C3
:1047500068652045502077696C6C20646973706CC3
:10476000617920382D636F6C6F72206261727320E3
:104770006F6E20746865204D495049204C43442099
:104780002865787465726E616C204C434420636FB9
:104790006E6E656374656420746F205241204D43D2
:1047A0005529207573696E670D0A746865206772F4
:1047B00061706869637320616E64204D50492D44B7
:1047C0005349206D6F64756C657320696E20465384
:1047D000502E20412075736572206D656E752077AF
:1047E000696C6C2062652070726F76696465642004
:1047F0006F7665722074686520525454205669653E
:104800007765722E0D0A5468652075736572206392
:10481000616E2073656C65637420746865207469CB
:104820006D6520746F20656E74657220556C7472AE
:10483000612D4C6F772D506F7765722053746174C2
:10484000652028554C50532920616E6420746F7583
:104850006368207468652073637265656E20746F89
:1048600020657869740D0A74686973206D6F6465DA
:104870002E2053746174757320696E666F726D615A
:1048800074696F6E20616E64206572726F72206D44
:10489000657373616765732077696C6C206265204E
:1048A0007072696E746564206F6E204A2D4C696E5B
:1048B0006B20525454205669657765722064757276
:1048C000696E670D0A74686520657865637574693B
:1048D0006F6E206F66207468652070726F6A656302
:1048E000742E0D0A0A00312E31002A2A20525F4709
:1048F00050545F4F70656E20415049206661696C6D
:104900006564202A2A0D0A00284E554C4C29005275
:104910005F4949435F4D41535445525F436C6F7348
:104920006520415049206661696C65640D0A002A62
:104930002A20525F4943555F45787465726E616CF9
:104940004972714F70656E20415049206661696CF3
:104950006564202A2A0D0A00525F474C4344435F96
:10496000436C6F736520415049206661696C6564D2
:104970000D0A002A2A20525F4D4950495F4453498D
:104980005F436F6D6D616E642041504920666169BF
:104990006C6564202A2A0D0A005465726D696E6187
:1049A0006C005B4552525D20496E2046756E637403
:1049B000696F6E3A20257328292C20000D0A2A2AB7
:1049C0002A2A2A2A2A2A2A2A2A2A2A2A2A2A2A2A47
:1049D0002A2A2A2A2A2A2A2A2A2A2A2A2A2A2A2A37
:1049E0002A2A2A2A2A2A2A2A2A2A2A2A2A2A2A2A27
:1049F0002A2A2A2A2A2A2A2A2A2A2A2A2A2A2A2A17
:104A00002A2A2A2A2A2A2A2A2A2A2A2A2A2A0D0A43
:104A10002A20202052656E65736173204653502012
:104A20004578616D706C652050726F6A65637420A3
:104A3000666F72204D49504920445349204D6F64A0
:104A4000756C652020202020202020202020202080
:104A50002020202020202020202020202020202A4C
:104A60000D0A2A2020204578616D706C65205072F7
:104A70006F6A6563742056657273696F6E20257363
:104A80002020202020202020202020202020202026
:104A90002020202020202020202020202020202016
:104AA0002020202020202020202020202020202006
:104AB0002A0D0A2A202020466C657820536F6674E0
:104AC00077617265205061636B2056657273696F00
:104AD0006E202025642E25642E2564202020202091
:104AE00020202020202020202020202020202020C6
:104AF00020202020202020202020202020202020B6
:104B000020202020202A0D0A2A2A2A2A2A2A2A2A74
:104B10002A2A2A2A2A2A2A2A2A2A2A2A2A2A2A2AF5
:104B20002A2A2A2A2A2A2A2A2A2A2A2A2A2A2A2AE5
:104B30002A2A2A2A2A2A2A2A2A2A2A2A2A2A2A2AD5
:104B40002A2A2A2A2A2A2A2A2A2A2A2A2A2A2A2AC5
:104B50002A2A2A2A2A2A2A2A0D0A526566657220DA
:104B6000746F20726561646D652E74787420666957
:104B70006C6520666F72206D6F726520646574616C
:104B8000696C73206F6E204578616D706C65205084
:104B9000726F6A65637420616E640D0A465350201B
:104BA000557365722773204D616E75616C20666F59
:104BB00072206D6F726520696E666F726D617469C7
:104BC0006F6E2061626F7574204D495049204453C7
:104BD00049206472697665720D0A002A2A20525FA4
:104BE000474C4344435F53746172742041504920E1
:104BF0006661696C6564202A2A0D0A000D0A5265F7
:104C00007475726E6564204572726F7220436F64B2
:104C1000653A2030782578200D0A002A2A20525F34
:104C20004943555F45787465726E616C4972714590
:104C30006E61626C6520415049206661696C6564F3
:104C4000202A2A0D0A00525F4750545F436C6F734D
:104C50006520415049206661696C65640D0A002A2F
:104C60002A20525F4949435F4D41535445525F4F9B
:104C700070656E20415049206661696C6564202A28
:104C80002A0D0A0030313233343536373839414253
:104C9000434445460C343440143434401C343440CE
:104CA00024343440200020001000100010000800C0
:104CB000040001000500000000000000000000FEEC
:104CC0000004FF9881030000000000003940050047
:104CD000000000000000000000FE000201000000D3
:104CE000000000000000154005000000000000006A
:104CF000000000FE000202000000000000000000B2
:104D000015400500000000000000000000FE000249
:104D100003530000000000000000154005000000E3
:104D200000000000000000FE000204D300000000AC
:104D30000000000015400500000000000000000019
:104D400000FE000205000000000000000000154009
:104D50000500000000000000000000FE0002060D3B
:104D600000000000000000001540050000000000E9
:104D70000000000000FE0002070800000000000024
:104D8000000015400500000000000000000000FECB
:104D900000020800000000000000000015400500AF
:104DA000000000000000000000FE000209000000FA
:104DB0000000000000001540050000000000000099
:104DC000000000FE00020A000000000000000000D9
:104DD00015400500000000000000000000FE000279
:104DE0000B0000000000000000001540050000005E
:104DF00000000000000000FE00020C0000000000A7
:104E00000000000015400500000000000000000048
:104E100000FE00020D000000000000000000154030
:104E20000500000000000000000000FE00020E006F
:104E30000000000000000000154005000000000018
:104E40000000000000FE00020F280000000000002B
:104E5000000015400500000000000000000000FEFA
:104E600000021028000000000000000015400500AE
:104E7000000000000000000000FE00021100000021
:104E800000000000000015400500000000000000C8
:104E9000000000FE00021200000000000000000000
:104EA00015400500000000000000000000FE0002A8
:104EB0001300000000000000000015400500000085
:104EC00000000000000000FE0002140000000000CE
:104ED0000000000015400500000000000000000078
:104EE00000FE000215000000000000000000154058
:104EF0000500000000000000000000FE0002160097
:104F00000000000000000000154005000000000047
:104F10000000000000FE000217000000000000007A
:104F2000000015400500000000000000000000FE29
:104F300000021800000000000000000015400500FD
:104F4000000000000000000000FE00021900000048
:104F500000000000000015400500000000000000F7
:104F6000000000FE00021A00000000000000000027
:104F700015400500000000000000000000FE0002D7
:104F80001B000000000000000000154005000000AC
:104F900000000000000000FE00021C0000000000F5
:104FA00000000000154005000000000000000000A7
:104FB00000FE00021D00000000000000000015407F
:104FC0000500000000000000000000FE00021E407E
:104FD0000000000000000000154005000000000077
:104FE0000000000000FE00021F8000000000000022
:104FF000000015400500000000000000000000FE59
:10500000000220060000000000000000154005001E
:10501000000000000000000000FE0002210100006E
:105020000000000000001540050000000000000026
:10503000000000FE0002220000000000000000004E
:1050400015400500000000000000000000FE000206
:1050500023000000000000000000154005000000D3
:1050600000000000000000FE00022400000000001C
:1050700000000000154005000000000000000000D6
:1050800000FE0002250000000000000000001540A6
:105090000500000000000000000000FE00022600E5
:1050A00000000000000000001540050000000000A6
:1050B0000000000000FE00022700000000000000C9
:1050C000000015400500000000000000000000FE88
:1050D0000002283300000000000000001540050019
:1050E000000000000000000000FE00022933000064
:1050F0000000000000001540050000000000000056
:10510000000000FE00022A00000000000000000075
:1051100015400500000000000000000000FE000235
:105120002B000000000000000000154005000000FA
:1051300000000000000000FE00022C000000000043
:105140000000000015400500000000000000000005
:1051500000FE00022D0000000000000000001540CD
:105160000500000000000000000000FE00022E000C
:1051700000000000000000001540050000000000D5
:105180000000000000FE00022F00000000000000F0
:10519000000015400500000000000000000000FEB7
:1051A0000002300000000000000000001540050073
:1051B000000000000000000000FE000231000000BE
:1051C0000000000000001540050000000000000085
:1051D000000000FE0002320000000000000000009D
:1051E00015400500000000000000000000FE000265
:1051F0003300000000000000000015400500000022
:1052000000000000000000FE000234030000000067
:105210000000000015400500000000000000000034
:1052200000FE0002350000000000000000001540F4
:105230000500000000000000000000FE0002360033
:105240000000000000000000154005000000000004
:105250000000000000FE0002370000000000000017
:10526000000015400500000000000000000000FEE6
:105270000002389600000000000000001540050004
:10528000000000000000000000FE000239000000E5
:1052900000000000000015400500000000000000B4
:1052A000000000FE00023A000000000000000000C4
:1052B00015400500000000000000000000FE000294
:1052C0003B00000000000000000015400500000049
:1052D00000000000000000FE00023C000000000092
:1052E0000000000015400500000000000000000064
:1052F00000FE00023D00000000000000000015401C
:105300000500000000000000000000FE00023E005A
:105310000000000000000000154005000000000033
:105320000000000000FE00023F000000000000003E
:10533000000015400500000000000000000000FE15
:1053400000024000000000000000000015400500C1
:10535000000000000000000000FE0002410000000C
:1053600000000000000015400500000000000000E3
:10537000000000FE000242000000000000000000EB
:1053800015400500000000000000000000FE0002C3
:105390004300000000000000000015400500000070
:1053A00000000000000000FE0002440000000000B9
:1053B0000000000015400500000000000000000093
:1053C00000FE000250000000000000000000154038
:1053D0000500000000000000000000FE0002512354
:1053E0000000000000000000154005000000000063
:1053F0000000000000FE0002524500000000000016
:10540000000015400500000000000000000000FE44
:105410000002536700000000000000001540050076
:10542000000000000000000000FE0002548900009F
:105430000000000000001540050000000000000012
:10544000000000FE000255AB00000000000000005C
:1054500015400500000000000000000000FE0002F2
:10546000560100000000000000001540050000008B
:1054700000000000000000FE0002572300000000B2
:1054800000000000154005000000000000000000C2
:1054900000FE00025845000000000000000015401A
:1054A0000500000000000000000000FE0002596737
:1054B0000000000000000000154005000000000092
:1054C0000000000000FE00025A89000000000000F9
:1054D000000015400500000000000000000000FE74
:1054E00000025BAB0000000000000000154005005A
:1054F000000000000000000000FE00025CCD000083
:105500000000000000001540050000000000000041
:10551000000000FE00025DEF00000000000000003F
:1055200015400500000000000000000000FE000221
:105530005E000000000000000000154005000000B3
:1055400000000000000000FE00025F0800000000F4
:1055500000000000154005000000000000000000F1
:1055600000FE00026008000000000000000015407E
:105570000500000000000000000000FE00026106BF
:1055800000000000000000001540050000000000C1
:105590000000000000FE00026206000000000000A3
:1055A000000015400500000000000000000000FEA3
:1055B000000263010000000000000000154005002B
:1055C000000000000000000000FE00026401000076
:1055D0000000000000001540050000000000000071
:1055E000000000FE00026500000000000000000056
:1055F00015400500000000000000000000FE000251
:1056000066000000000000000000154005000000DA
:1056100000000000000000FE000267020000000021
:105620000000000015400500000000000000000020
:1056300000FE000268150000000000000000154098
:105640000500000000000000000000FE00026915D7
:1056500000000000000000001540050000000000F0
:105660000000000000FE00026A14000000000000BC
:10567000000015400500000000000000000000FED2
:1056800000026B140000000000000000154005003F
:10569000000000000000000000FE00026C0D000091
:1056A00000000000000015400500000000000000A0
:1056B000000000FE00026D0D000000000000000070
:1056C00015400500000000000000000000FE000280
:1056D0006E0C0000000000000000154005000000F6
:1056E00000000000000000FE00026F0C000000003F
:1056F0000000000015400500000000000000000050
:1057000000FE0002700F00000000000000001540C5
:105710000500000000000000000000FE0002710F04
:10572000000000000000000015400500000000001F
:105730000000000000FE0002720E000000000000E9
:10574000000015400500000000000000000000FE01
:105750000002730E0000000000000000154005006C
:10576000000000000000000000FE000274020000C3
:1057700000000000000015400500000000000000CF
:10578000000000FE0002750800000000000000009C
:1057900015400500000000000000000000FE0002AF
:1057A0007608000000000000000015400500000021
:1057B00000000000000000FE00027706000000006C
:1057C000000000001540050000000000000000007F
:1057D00000FE0002780600000000000000001540F6
:1057E0000500000000000000000000FE000279013A
:1057F000000000000000000015400500000000004F
:105800000000000000FE00027A010000000000001D
:10581000000015400500000000000000000000FE30
:1058200000027B00000000000000000015400500A1
:10583000000000000000000000FE00027C000000EC
:1058400000000000000015400500000000000000FE
:10585000000000FE00027D020000000000000000C9
:1058600015400500000000000000000000FE0002DE
:105870007E1500000000000000001540050000003B
:1058800000000000000000FE00027F150000000084
:1058900000000000154005000000000000000000AE
:1058A00000FE00028014000000000000000015400F
:1058B0000500000000000000000000FE000281144E
:1058C000000000000000000015400500000000007E
:1058D0000000000000FE0002820D00000000000039
:1058E000000015400500000000000000000000FE60
:1058F0000002830D000000000000000015400500BC
:10590000000000000000000000FE0002840C000007
:10591000000000000000154005000000000000002D
:10592000000000FE0002850C0000000000000000E6
:1059300015400500000000000000000000FE00020D
:10594000860F000000000000000015400500000068
:1059500000000000000000FE0002870F00000000B1
:1059600000000000154005000000000000000000DD
:1059700000FE0002880E000000000000000015403C
:105980000500000000000000000000FE0002890E7B
:1059900000000000000000001540050000000000AD
:1059A0000000000000FE00028A020000000000006B
:1059B000000015400500000000000000000000FE8F
:1059C0000004FF9881040000000000003940050039
:1059D000000000000000000000FE00026E2B00002E
:1059E000000000000000154005000000000000005D
:1059F000000000FE00026F37000000000000000001
:105A000015400500000000000000000000FE00023C
:105A10003A240000000000000000154005000000CE
:105A200000000000000000FE00028D1A00000000CF
:105A3000000000001540050000000000000000000C
:105A400000FE000287BA00000000000000001540C0
:105A50000500000000000000000000FE0002B2D1BE
:105A600000000000000000001540050000000000DC
:105A70000000000000FE0002880B00000000000093
:105A8000000015400500000000000000000000FEBE
:105A90000002380100000000000000001540050071
:105AA000000000000000000000FE000239000000BD
:105AB000000000000000154005000000000000008C
:105AC000000000FE0002B50200000000000000001F
:105AD00015400500000000000000000000FE00026C
